:020000040800F2
:10000000D004002001010008FF160008191600089E
:10001000FD160008B5070008A11B0008000000003D
:10002000000000000000000000000000E1180008CF
:10003000E30700080000000001170008E3180008AB
:100040001B0100081B0100081B0100081B01000820
:100050001B0100081B0100081B0100081B01000810
:100060001B0100081B0100081B0100081B01000800
:100070001B0100081B0100081B0100081B010008F0
:100080001B0100081B0100081B0100081B010008E0
:100090001B0100081B0100081B0100081B010008D0
:1000A0001B0100081B0100081B0100081B010008C0
:1000B0001B0100081B0100081B0100081B010008B0
:1000C0001B0100081B0100081B0100081B010008A0
:1000D0001B0100081B010008951B00081B010008FC
:1000E0001B0100081B0100081B010008DFF80CD0F1
:1000F00000F0D0FA00480047D1240008D0040020C6
:100100000648804706480047FEE7FEE7FEE7FEE7B1
:10011000FEE7FEE7FEE7FEE7FEE7FEE7451900081B
:10012000ED000008202A04DB203A21FA02F0002129
:10013000704721FA02F3D040C2F1200291400843F7
:1001400019467047D2B201E000F8012B491EFBD2DC
:1001500070470022F6E710B513460A4604461946D2
:10016000FFF7F0FF204610BD30B480EA010202F034
:10017000004530F0004221F0004013D090B1C30D93
:10018000D40DC2F31601C0F31600E41A41F40001C5
:1001900040F400027D34914201D3641C00E0490028
:1001A000002C02DA30BC002070474FF4000000231E
:1001B000914201D3891A034340084FEA4101F7D124
:1001C00051B1914202D14FF0004105E002D24FF00F
:1001D000010101E06FF0010103EBC450284430BC81
:1001E00000F068B8C10F80EAE0700844CA0796239F
:1001F000002100F068B896230022114600F063B891
:1002000000F0004230F000400AD0C10D01F56071ED
:10021000C0F3160042EA0151C2084007114370477B
:1002200000200146704730B50B46014600202022D1
:10023000012409E021FA02F59D4205D303FA02F5F3
:10024000491B04FA02F52844151EA2F10102F1DC53
:1002500030BD2DE9F05F0546002092469B4688465A
:100260000646814640241BE0284641464746224632
:10027000FFF758FF53465A46C01A914110D3114612
:100280001846224600F018FA2D1A67EB01084F466F
:1002900022460120002100F00FFA17EB00094E4121
:1002A000201EA4F10104DFDC484631462A464346BD
:1002B000BDE8F09F0029A8BF7047401C490008BF57
:1002C00020F00100704710B4B0FA80FC00FA0CF086
:1002D00050EA010404BF10BC704749B1CCF12004BE
:1002E00021FA04F411FA0CF118BF0121214308434B
:1002F000A3EB0C01CB1D4FEA00614FEA102042BF77
:10030000002010BC704700EBC35010440029A4BF6C
:1003100010BC7047401C490008BF20F0010010BC11
:1003200070472DE9FE4F804681EA0300C00F0C465E
:10033000009021F0004123F00045B8EB0200A941F4
:1003400005D24046214690461C460B46024623F005
:100350000040104347D0270DC7F30A00C3F30A51EA
:100360000290401A019040286BDAC3F3130040F466
:10037000801B0098924620B10023D2EB030A63EB66
:100380000B0B01985946C0F14002504600F094F919
:1003900006460D4650465946019A00F09CF910EB6E
:1003A00008006141002487EA115284EAE7731A4386
:1003B00040D0009A62B3019A012A4FEA075215DC35
:1003C000001B61EB02014FF0004202EA0752CDE947
:1003D0000042001C41F5801132462B4600F09CF98A
:1003E00003B0BDE8F08F40462146F9E7001B61EB02
:1003F0000201001C41F5801300185B412018A2F592
:10040000001747EB030140EAD570B6196D4111E0C2
:100410006D084FEA360645EAC0754FEA0752001BE1
:1004200061EB0201001C41F5801149084FEA3000E0
:100430000019514132462B4603B0BDE8F04F00F0A1
:100440005CB90098012240000023D0EB020263EB6C
:10045000E073009821464FEAE074B8EB000061EBCE
:100460000401E9E783F000435BE781F0004158E7CE
:100470002DE9FE4F81EA030404F0004421F000411D
:1004800000944FF0000B23F0004350EA01045ED0CB
:1004900052EA03045BD0C3F30A54C1F30A552C4457
:1004A000A4F2F3340194A0FB0254C1F3130141F40C
:1004B0008011C3F3130343F4801301FB024400FBD8
:1004C000034E840A970A44EA815447EA8357A4FBFF
:1004D000076802958D0A05FB07854FEA932C04FBFC
:1004E0000C542705029D4FEA065847EA1637B5EB2C
:1004F00008056EEB070C870E920E47EA811742EA59
:100500008312A7FB0201B6EB0B0164EB00042B0D79
:1005100043EA0C335E1844EB1C50DA465146E7FBC5
:100520000201C5F313044FEA0B3343EA14534FEAB5
:100530000432019C43EA0603A4F10C040294009CDB
:10054000CDE900B400F0E8F803B0BDE8F08F00207A
:100550000146F9E72DE9F04D81EA030404F0004B70
:1005600021F0004514464FF0000A23F0004150EA04
:10057000050220D054EA01021DD0C5F30A570246F5
:10058000C5F31303C1F31300C1F30A5640F48015F9
:1005900043F48013A7EB0608101BD64608F2FD387B
:1005A00073EB050002D308F1010801E092185B41EA
:1005B000B8F1000F03DA00200146BDE8F08D0020FD
:1005C0004FF48011064684460EE0171B73EB0507B7
:1005D00005D3121B63EB050306434CEA010C4908E3
:1005E0004FEA300092185B4150EA0107EDD152EA20
:1005F000030012D082EA040083EA0501084305D013
:10060000101BAB4106D20122002306E000224FF06E
:10061000004302E06FF0010253101AEB06004CEBAE
:10062000085110EB0A0041EB0B01BDE8F04D00F062
:1006300064B8C1F30A52C1F3130140F2FF3341F42D
:1006400080119A4202DA00200146704740F233439B
:100650009A42A2F2334202DC5242FFF763BD00F03D
:100660002BB8000030B5041E71F1000404DB4FF01C
:100670000044404264EB0101141E73F1000405DBE9
:100680001C464FF00043524263EB0403994208BFFB
:10069000904230BD064C074D06E0E06840F0010393
:1006A00094E8070098471034AC42F6D3FFF722FDD8
:1006B000C0250008E0250008202A04DB203A00FAC3
:1006C00002F1002070479140C2F1200320FA03F3A9
:1006D000194390407047202A06DBCB17203A41FA95
:1006E00002F043EAE07306E041FA02F3D040C2F1BF
:1006F0002002914008431946704710B5141E73F14B
:10070000000408DA401C41F1000192185B411A43D1
:1007100001D120F0010010BD2DE9F04D92469B461D
:1007200011B1B1FA81F202E0B0FA80F220329046C3
:10073000FFF7C2FF04460F4640EA0A0041EA0B01F8
:1007400053465A46084313D0114653EA010019D0C4
:10075000C8F140025046FFF7E5FC05460E465046FC
:1007600059464246FFF7A8FF084305D0012004E0A0
:1007700020463946BDE8F08D0020054346EAE07684
:100780002C4337430A986305E40AA0EB08000022D3
:10079000FD0A44EA47540A3002D500200146E9E741
:1007A000010510196941DDE9084500196941BDE8F5
:1007B000F04DA2E7FEE770B505464FF6FF70002248
:1007C0004AF201040AE0AB5C58400823C6074FEA2E
:1007D000500000D060405B1EF8D1521C8A42F2DB10
:1007E00070BD704772B6FEE710B590F82110002278
:1007F000022905D00421816380F82020012010BD4A
:1008000001680B6823F00E030B6001680B6823F08E
:1008100001030B6090F84030C46B012101FA03F32F
:10082000636080F8211080F82020104610BD000081
:1008300010B590F821100024022903D0042181630F
:1008400001243DE001680A6822F00E020A60016896
:100850000A6822F001020A601A4A0168914201D135
:10086000012121E0174A1432914201D110211BE0ED
:10087000144A2832914201D1891515E0114A3C32BF
:10088000914201D189140FE00E4A5032914202D1B7
:100890004FF4803108E00B4A6432914202D14FF4A8
:1008A000801101E04FF08071064A083A5160012141
:1008B00080F82110002180F82010416B01B1884799
:1008C000204610BD0800024070B5044600F00CF947
:1008D0000546601C02D004480078044400F004F986
:1008E000401BA042FAD370BD080000202DE9F84F4C
:1008F000DFF8B8910024A9F1040B23460F2709F172
:10090000040AABF1040EC9E00125A5402A40AA4221
:100910007DD1674ED1F804C0ACEB0608B44532D0A7
:1009200014DCBCF1030F3AD009DCBCF1000F2AD073
:10093000BCF1010F1CD0BCF1020F31D11DE0BCF1A4
:10094000110F17D0BCF1120F2AD119E0B8F5881F8A
:1009500019D006DCB8F5803F15D0B8F5801F1FD13F
:1009600011E0B8F5001F0ED0B8F5041F18D10AE049
:10097000CB6815E0CB681B1D12E0CB6808330FE095
:10098000CB680C330CE08B682BB1012B4FF00803C4
:1009900003D0456104E0042302E0056100E0002388
:1009A000FF2A01D8064601E000F104064FEA84055B
:1009B00001D9A5F12005D6F8008007FA05FC28EA40
:1009C0000C0803FA05F548EA0508C6F800804D68EA
:1009D000ED0062D5374DAE6946F00106AE61AD69F6
:1009E00024F0030605F001050095334D06EB050CD8
:1009F000DCF80850A607360F07FA06F825EA0805BE
:100A0000DFF8B880404503D14FF0000817E044E01C
:100A1000DFF8AC80404502D14FF001080FE0DFF86D
:100A2000A480404502D14FF0020808E0DFF898802A
:100A3000404502D14FF0030801E04FF0040808FAE6
:100A400006F848EA0508CCF808804D68D9F8006037
:100A5000ED024D4601D5164300E096432E604D68E9
:100A6000DAF80060AD02554601D5164300E0964322
:100A70002E604D68DBF80060AD035D4601D516437E
:100A800000E096432E604D68DEF80060ED03754689
:100A900001D5164300E096432E60641C0D682A467B
:100AA000E5407FF431AFBDE8F88F00000804014055
:100AB0000000111000100240000001400008014039
:100AC000000C01400010014000140140C26821EAFE
:100AD00002030A4043EA0241016170470AB1016121
:100AE00070470904FBE70000014880687047000078
:100AF0000800002002488168027811448160704734
:100B000008000020074810B5016841F0100101609D
:100B1000032000F075F80F2000F006F800F024F82C
:100B2000002010BD0020024070B50D4D04464FF46A
:100B30007A712878B1FBF0F00A490968B1FBF0F04E
:100B400000F0DCFA48B9102C07D200222146501ED2
:100B500000F036F800206C6070BD012070BD000010
:100B600008000020140000200C4808B5816941F0FD
:100B700001018161816901F001010091C16941F0C8
:100B80008051C161C06900F0805000900448416804
:100B900021F0E06141F00071416008BD00100240A9
:100BA00000000140002809DB00F01F0201219140F4
:100BB0004009800000F1E020C0F8001170470000FB
:100BC000F0B40E4B1B680C46C3F30223C3F10705B8
:100BD000042D00D90425191D072901D2002300E0A6
:100BE000DB1E012606FA05F1491E214099409E4070
:100BF000761E16403143F0BC00F0E4BF0CED00E07F
:100C0000064900F0070208684FF6FF03184040EA63
:100C10000220034A10430860704700000CED00E01A
:100C20000000FA052DE9F0470F46050061D0434E5C
:100C3000306800F00700B84209D2306820F00700A1
:100C400038433060306800F00700B84251D128685E
:100C50003B4C810712D5400703D5606840F4E06043
:100C600060602878000703D5606840F460506060D9
:100C70006068A96820F0F000084360602878C00729
:100C800028D06868012810D02168022810D0890770
:100C900000292EDA616821F0030101436160FFF74A
:100CA00023FF804641F288390DE021688903EFE790
:100CB0008901EDE7FFF718FFA0EB0801494502D9CC
:100CC0000320BDE8F0876068696800F00C00B0EBB5
:100CD000810FEFD1306800F00700B8420BD93068BF
:100CE00020F0070038433060306800F00700B84259
:100CF00001D00120E5E72878400705D56068E9685C
:100D000020F4E060084360602878000706D560683A
:100D1000296920F4605040EAC100606000F038F8B2
:100D20006168084AC1F30311515CC8400649086074
:100D300006480068FFF7F8FE0020C2E700200240E6
:100D400000100240A6250008140000200C0000201E
:100D50000448054900684968044AC1F30221515C0E
:100D6000C84070471400002000100240B62500085B
:100D70000448054900684968044AC1F3C221515C2E
:100D8000C84070471400002000100240B62500083B
:100D90000E4A51680E4801F00C03042B11D0082BA9
:100DA0000FD10C48C1F38343C903C05C0AD5516815
:100DB000084AC1F34041921E515C054A5043B0FBC2
:100DC000F1F07047044948437047000000100240AA
:100DD00000127A009625000800093D002DE9F84F21
:100DE000040070D02078C04DC00749D06868C0F3B7
:100DF0008100012807D06868C0F38100022809D16A
:100E00006868C00306D52868800339D56068002863
:100E1000E7D035E06068B0F5803F0BD010B1B0F599
:100E2000A02F11D0286820F480302860286820F492
:100E3000802002E0286840F480302860606890B12B
:100E4000FFF752FE06460AE0286840F4802028603A
:100E5000F0E700BFFFF748FE801B642873D82868BE
:100E60008003F7D50CE0FFF73FFE064605E000BF24
:100E7000FFF73AFE801B6428F0D828688003F7D477
:100E800020789A4E80074FF001094FF0000839D5BD
:100E9000686810F00C0F07D06868C0F38100022862
:100EA00009D16868C00306D42868800714D5206972
:100EB000012808D110E02069B0B1C6F80090FFF712
:100EC00013FE074605E00AE1FFF70EFEC01B0228ED
:100ED000C4D828688007F7D52868616920F0F80031
:100EE00040EAC10028600DE0C6F80080FFF7FCFD75
:100EF000074604E0FFF7F8FDC01B022823D8286846
:100F00008007F7D4207800072CD57948A169D9B19A
:100F1000C0F80090FFF7E8FD074604E0FFF7E4FDA6
:100F2000C01B02280FD8686A8007F7D571484FF4B4
:100F3000FA510068B0FBF1F0009000BF0098411E2C
:100F40000091FAD20EE080E0C0F80080FFF7CCFDFF
:100F5000074604E0FFF7C8FDC01B022875D8686A81
:100F60008007F7D42078400760D5E8690027C000E3
:100F700008D4E86940F08050E861E869012700F092
:100F8000805000905C480168C90513D4016883460D
:100F900041F480710160FFF7A7FD824606E000BFC3
:100FA000FFF7A2FDA0EB0A0064284ED8DBF8000092
:100FB000C005F5D5E06801280AD008B1052813D08E
:100FC000286A20F001002862286A20F0040002E06C
:100FD000286A40F001002862E06841F2883B98B13D
:100FE000FFF782FD82460BE0286A40F00400286289
:100FF000EEE700BFFFF778FDA0EB0A0159455AD88C
:10100000286A8007F6D50CE0FFF76EFD824605E002
:10101000FFF76AFDA0EB0A0159454CD8286A800702
:10102000F6D41FB1E86920F08050E861E06988B328
:101030006968C1F38101022944D00228C6F86080A2
:1010400004D0FFF751FD044638E034E0FFF74CFDD3
:10105000074604E0FFF748FDC01B02282BD828688C
:101060008001F7D4206AB0F5803F05D16868A16897
:1010700020F4003008436860D4E908010843696837
:1010800021F4741108436860C6F86090FFF72CFDE6
:10109000044606E025E000BFFFF726FD001B0228FE
:1010A00009D828688001F7D51BE000BFFFF71CFDB9
:1010B000001B022802D90320BDE8F88F28688001B0
:1010C000F4D40EE00128F7D06868226A00F4803179
:1010D000914204D1616A00F47010884201D001206D
:1010E000EAE70020E8E7000000100240000042426A
:1010F00080044242140000200070004010B5401EE1
:10110000B0F1807F01D3012010BD4FF0E024606179
:101110000F21601700F056FD0020A061072020611C
:10112000002010BD70477047F8B501680446086894
:10113000CA684B6910F00F0F4FF0000559D003F04B
:10114000010602F49077374365D0C10705D0D10579
:1011500003D5616C41F001016164410705D5D907F0
:1011600003D0616C41F002016164810705D5D907A4
:1011700003D0616C41F004016164010707D502F0FE
:101180002001314303D0616C41F008016164616C5E
:1011900000293AD0800604D5900602D5204600F0FA
:1011A00001FC20684069616CC0F38010090700D41D
:1011B00060B3204600F0CFFB20684069400621D58F
:1011C0002068143050E8001F21F0400140E8001270
:1011D000002AF5D1E06BA8B16D494163E06BFFF7E0
:1011E00027FB002811D0E06B416B01B0BDE8F04057
:1011F000084783060FD593060DD52046BDE8F84075
:1012000000F0D0BB2046FFF78EFFF8BD2046FFF769
:101210008AFF6564F8BD266B2023012E7CD1C606AB
:101220007AD5D60678D508684868009048694FF0A6
:101230000206400640D5E16B086840680004000CD7
:10124000E8D0A28D8242E5D9E085886920282DD09A
:1012500020680C3050E8001F21F4807140E8001233
:10126000002AF5D12068143050E8001F21F0010158
:1012700040E80012002AF5D12068143050E8001F21
:1012800021F0400140E80012002AF5D184F84230F4
:10129000256320680C3050E8001F21F0100140E861
:1012A0000012002AF5D1E06BFFF79EFA6663A08D6D
:1012B000E18D401A81B22AE0A08DE18D401A81B201
:1012C000E08D0028A6D00029A4D022680C3252E874
:1012D000000F20F4907042E80007002FF5D120683D
:1012E000143050E8002F22F0010240E80027002FC0
:1012F000F5D184F84230256320680C3050E8002F87
:1013000022F0100240E80023002BF5D1666320464E
:10131000FFF708FFF8BDFFE705062BD5150629D511
:1013200094F841002128F5D1A068B0F5805F01D183
:101330002069B0B1206A411C2162216800784860B0
:10134000E08C401E0004000CE084E3D12068C168FA
:1013500021F08001C1602068C16841F04001C16096
:10136000D8E7206A0088C0F308004860206A801C23
:101370002062E5E74006CDD55006CBD5CA682046A9
:1013800022F04002CA6084F8413000F044F9C1E71D
:101390004719000870B5040004D094F841000025F6
:1013A00010B106E0012070BD84F84050204600F0E6
:1013B00023F8242084F841002068C16821F40051FA
:1013C000C160204600F050FB2068016921F4904183
:1013D00001612068416921F02A0141612068C168EA
:1013E00041F40051C1606564202084F8410084F814
:1013F00042006563002070BD70B586B00024009483
:101400000194029403942B4E03682B49022003227B
:101410002A4DB34221D18B6943F480438B618B69A0
:1014200003F4804304938B6943F004038B6189695F
:10143000039201F0040104910102CDE90010694614
:101440002846FFF753FA2815CDE9000469462846D7
:101450000294FFF74BFA06B070BD194EB342FAD1B1
:10146000CB6943F40033CB61CB6903F400330493BD
:101470008B6943F004038B618969039201F00401D5
:1014800004910421CDE9001069462846FFF72EFAA1
:101490000820CDE90004694628460294FFF726FAA1
:1014A000002211462620FFF78BFB2620FFF77AFB50
:1014B000D1E7000000380140001002400008014060
:1014C000004400402DE9F84F044690F842009A4647
:1014D00016460D46202802D00220BDE8F88FB5B18F
:1014E000AEB100206064222184F842102063FFF72F
:1014F000FBFAA6858146E685A0684FF48058202730
:10150000404501D1206920B12E46002529E0012067
:10151000E3E7002625E04B46002220212046CDF8B7
:1015200000A000F0FDFA18B184F842700320D4E75F
:1015300026B1A06840451AD038B108E0206840685C
:10154000C0F3080025F8020B08E0206978B1206894
:10155000406800F07F0000BF06F8010BE08D401EE0
:10156000E085E08D0028D6D184F84270B5E7206888
:101570004068F1E770472DE9F843044690F84100D0
:10158000984616460D46202802D00220BDE8F88372
:1015900085B17EB100206064212084F84100FFF70E
:1015A000A3FAA6848146E684A0682027B0F5805F70
:1015B00002D003E00120E9E7206910B12E460025A2
:1015C0000EE000260CE08021204600F0A9FAA8B920
:1015D000C6B116F8010B21684860E08C401EE0841B
:1015E000E08C4B464FF00002CDF800800028EAD195
:1015F0004FF04001204600F093FA40B184F841706A
:101600000320C3E735F8020BC0F30800E3E784F8D2
:1016100041700020BAE77047FEE7000070B586B061
:10162000002418480094019402940394816941F0C5
:1016300020018161816901F020010491816941F0FB
:1016400004018161816901F004010491816941F023
:10165000100181618069012200F010000A4E5503DB
:10166000049029463046FFF739FA01200095CDE96C
:1016700001040220039069463046FFF737F906B0AF
:1016800070BD000000100240001001400C4810B571
:101690000A4901604FF4E1314160002181600C2270
:1016A000C160C0E904128161C161FFF773FE0028C7
:1016B00003D0BDE81040FFF795B810BD00380140D9
:1016C000400000200C4810B50A4901604FF4165143
:1016D0004160002181600C22C160C0E90412816177
:1016E000C161FFF757FE002803D0BDE81040FFF7A7
:1016F00079B810BD0044004088000020FEE7FEE7F6
:10170000704700002DE9FC5F044615295CD31321C6
:10171000FFF751F8B4F81310884201D02BA04FE026
:1017200034F8030F40BA00B2FEF75CFD2F4E31468D
:10173000FEF71AFD0090608840BA00B2FEF752FD35
:101740003146FEF711FD0546A08890FA90FAE08830
:1017500040BAFEF750FD3146FEF706FD834620896C
:1017600090FA90F9608990FA90F8A08946BAE089D9
:1017700047BA1FA000F016FA2846FEF741FD0446BE
:101780000D460098FEF73CFD02460B4623A0CDE92E
:10179000004500F007FA5846FEF732FD02460B46B8
:1017A00027A0CDF800A000F0FDF933464246494697
:1017B0002DA000F0F7F9394639A000F0F3F93DA06B
:1017C000BDE8FC5F00F0EEB9BDE8FC9F5B4352430F
:1017D000204572726F725D204461746120636F7284
:1017E0007275707465642E0D0A00000000002041BF
:1017F0000D0A3E3E3E3E20536F696C2053656E736A
:101800006F7220446174612028536C6176652030CA
:101810003229203C3C3C3C0D0A00000048756D69B3
:10182000646974793A20252E3166202525207C2094
:1018300054656D703A20252E316620430D0A000054
:1018400050482056616C75653A20252E316620205F
:1018500020207C2045433A20202025642075732FCA
:10186000636D0D0A000000004E6974726F67656E4B
:101870003A202564206D672F6B67207C2050686FAD
:10188000733A202564206D672F6B67207C20506F92
:101890007461733A202564206D672F6B670D0A0011
:1018A00053616C696E6974792F5444533A202564EE
:1018B0000D0A00003C3C3C3C3C3C3C3C3C3C3C3C41
:1018C0003C3C3C3C3C3C3C3C3C3C3C3C3C3C3C3C58
:1018D0003C3C3C3C3C3C3C3C3C3C0D0A0000000099
:1018E0007047FFF707B930B58FB028216846FEF77B
:1018F00030FC14210AA8FEF72CFC01210804CDE9D4
:1019000000100024029402250491CDE907504FF401
:10191000E01009906846FFF761FA08B172B6FEE779
:101920000F20CDE90A054FF48060CDE90C4002217B
:101930000AA80E94FFF776F9002801D072B6FEE7E8
:101940000FB030BD704710B5406A0021C185C18419
:10195000FFF7E9FB10BD01680C3151E8002F22F4BC
:10196000907241E80023002BF5D10168143151E851
:10197000002F22F0010241E80023002BF5D1016B7A
:10198000012909D101680C3151E8002F22F0100221
:1019900041E80023002BF5D1202180F842100021DE
:1019A0000163704708B590F84210222901D0022047
:1019B00008BD82684FF480539A4201D1016921B178
:1019C000816A9A421BD04AB10AE00268816A526871
:1019D000C2F308020A80816A891C08E0026972B1B8
:1019E0000268526802F07F020A70816A491C8162B3
:1019F000C18D491E0904090CC18503D01BE0026892
:101A00005268F1E70168CA6822F02002CA600168E2
:101A1000CA6822F48072CA6001684A6922F0010231
:101A20004A61202180F8421000214163026B012AA3
:101A300003D0FFF79FFD002008BD016301680C3152
:101A400051E8002F22F0100241E80023002BF5D1CD
:101A500001680A68D20602D50A6849680091818D3A
:101A6000FFF760FBE7E7000070B504460068016916
:101A7000E26821F44051114301612169A0680843E3
:101A8000616908432168CA6841F20C639A430243C2
:101A9000CA6020684169A26921F440711143416123
:101AA0001E492068884202D1FFF762F901E0FFF782
:101AB0004FF900EBC00101EB001260686421800067
:101AC000B2FBF0F3B3FBF1F36FF018067343B2FB14
:101AD000F0F5B2FBF0F605EB8305322303EB0515B9
:101AE000B5FBF1F5B6FBF1F605F0F00505EB0615D3
:101AF000B2FBF0F6B2FBF0F0B0FBF1F06FF01802C1
:101B0000504306EB800003EB0010B0FBF1F02168BE
:101B100000F00F002844886070BD000000380140CC
:101B20002DE9F843984617460D460446089E24E0E2
:101B3000701C22D0FEF7D8FFA0EB0800B0421AD8E4
:101B4000CEB12068C168490717D5802D15D0402D2A
:101B500013D00168C94309070FD401680025406804
:101B600000902046FFF7F7FE0820606484F840509C
:101B70000120BDE8F8830320FBE72068006835EA10
:101B8000000004D00020B842D2D00020F1E70120AC
:101B9000F9E700000148FFF7C7BA000088000020FD
:101BA000FEE700000FB4054B10B503A9044A0298E4
:101BB00000F0EAF810BC5DF814FB0000B92400083E
:101BC000180000200907090E002804DB00F1E020BE
:101BD00080F80014704700F00F0000F1E02080F85A
:101BE000141D704702E008C8121F08C1002AFAD16C
:101BF00070477047002001E001C1121F002AFBD18D
:101C0000704700002DE9FF5F82B00021DDE904305C
:101C1000020DDDF840B0034318D044F61050A2F294
:101C2000FF3242431514119801281FD0A5EB0B0079
:101C3000401C5FEA000A4FF000064E4FDFF8389173
:101C4000B046504615D5CAF1000413E0119801249E
:101C50004AA3012801D16FEA0B010298119AC0E949
:101C60000031C0E9024206B0BDE8F09FCBF10000B0
:101C7000DFE704460021404A491842EB0450CDE911
:101C8000001012E0E00707D032463B464046494686
:101C9000FEF7EEFB8046894632463B461046194623
:101CA000FEF7E6FB06460F466410002CEAD1DDE99C
:101CB0000401DDE90023BAF1000F06DAFEF7D8FBD4
:101CC00042464B46FEF7D4FB05E0FEF743FC424696
:101CD0004B46FEF73FFC04460E460022284BFEF71B
:101CE000C1FC03D84FF0FF30014607E00022254B2E
:101CF00020463146FEF715FBFEF79BFC102409E059
:101D0000002C0ADB0A220023FEF7A3FA039B3032E1
:101D10001A55641E50EA0102F2D1641C039AC4F100
:101D200011031444119A012A03D0012208430DD152
:101D30000AE0084304D000204FF0110B119072E725
:101D4000A3EB0B056D1E0DE05B4504DD4FF00002BB
:101D500005F1010504E003DA4FF00002A5F10105E9
:101D6000002AECD002981199C0E90231C0E900457F
:101D700079E70000000014400000F03F3000000050
:101D80000000F0430000E03F2DE9FF4F95B09B4677
:101D90008946064600250FE2252877D100242746EC
:101DA000F84A0121059400E0044316F8013F203B66
:101DB00001FA03F01042F7D130782A2811D06FF0E1
:101DC0002F033078A0F13002092A16D8059A44F082
:101DD000020402EB820203EB42021044761C0590DF
:101DE000EFE759F8042B0592002A03DA504244F435
:101DF0000054059044F00204761C30782E2816D149
:101E000016F8010F44F004042A280DD06FF02F02B9
:101E10003078A0F13003092B09D807EB870302EBD8
:101E20004303C718761CF3E759F8047B761C307817
:101E30006C280FD006DC4C2817D068280DD06A28F3
:101E400014D104E0742810D07A280FD10DE044F4A6
:101E500000140AE044F4801401E044F44014727861
:101E6000824202D104F58014761C761C30786628F4
:101E70000BD013DC582877D009DC002875D0452812
:101E8000F6D04628F4D047281AD19DE118E06328FF
:101E900035D0642879D0652812D195E1702873D0A7
:101EA00008DC6728F1D069286FD06E280DD06F2824
:101EB00006D1B5E073282CD0752875D0782874D059
:101EC0005A46179990476D1C75E1C4F302500228D9
:101ED00009D003280DD0D9F8001004280DD00D60CA
:101EE00009F1040967E1D9F80010EA17C1E90052C5
:101EF000F6E7D9F800100D80F2E70D70F0E719F859
:101F0000041B8DF8001000208DF80100EA46012026
:101F100003E059F804AB4FF0FF3061074FF00001C8
:101F200002D40DE008F101018846B9420FDA80457C
:101F3000F8DB1AF808100029F4D108E008F10101D3
:101F400088468142FADB1AF808100029F6D1059874
:101F50005B46A0EB080721463846179A00F094FA32
:101F6000284400EB080507E04DE029E10DE01AF8F0
:101F7000010B5A4617999047B8F10108F7D25B4612
:101F800021463846179A13E142E00A220092C4F330
:101F900002524FF0000A022A08D059F804CB032A53
:101FA0004FEAEC710AD00DE029E02AE009F10701BF
:101FB00021F00702F2E802C1914609E00FFA8CFC19
:101FC0004FEAEC71042A03D14FFA8CFC4FEAEC7112
:101FD000002907DA0A460021DCF1000C61EB02015E
:101FE0002D2202E0220504D52B228DF804200122A7
:101FF00003E0E20701D02022F7E7904659E00A21EA
:1020000002E010220DE010214FF0000A00910BE0D9
:1020100010224FF0000A44F004040827009203E065
:1020200008224FF0000A0092C4F30252022A05D09F
:1020300059F804CB0021032A08D009E009F107016F
:1020400021F00702F2E802C1914605E01FFA8CFC7C
:10205000042A01D10CF0FF0C4FF00008220728D50C
:10206000702806D0009B83F0100353EA0A0305D0C2
:102070000EE040228DF80420012208E05CEA010213
:1020800006D030228DF804208DF8050002229046FB
:10209000009B83F0080353EA0A030AD15CEA0102B9
:1020A00001D1620705D530228DF804204FF00108D8
:1020B0007F1E582804D034A003900EA802900DE093
:1020C00036A0F9E753466046009AFEF7C2F8844608
:1020D0000398825C0298401E029002705CEA010044
:1020E000F0D1029806A9081A00F1200A600702D56B
:1020F00024F4803400E00127574502DDA7EB0A00F5
:1021000000E0002000EB0A01009005984144401ACD
:102110000590E00306D45B462146179A059800F027
:10212000B3F90544002706E001A85A46C05D179997
:1021300090476D1C7F1C4745F6DBE0030CD55B46E2
:102140002146179A059800F09FF9054404E03020D5
:102150005A46179990476D1C0099481E0090002917
:10216000F5DC08E0029802995A460078491C029171
:10217000179990476D1CBAF10001AAF1010AF1DC30
:1021800065E100000928010030313233343536373B
:1021900038396162636465660000000030313233B3
:1021A0003435363738394142434445460000000053
:1021B00000F058F90544761C307800287FF4ECAD27
:1021C00019B02846BDE8F08F620700D4062709F150
:1021D000070222F0070CFCE80223E14603F0004866
:1021E0005FEA080C02D00FF2702C0DE05FEA045C8D
:1021F00002D50FF2682C07E05FEAC47C02D00FF230
:10220000602C01E0AFF2700C4FF0FF3823F0004378
:10221000CDF850C065280CD006DC452809D04628EA
:102220001DD047283DD13DE0662818D067287ED1D3
:1022300038E00021112F01DB112000E0781CCDE9EE
:10224000000106A90EA8FFF7DDFCDDE90F010E9ADB
:1022500003910021009207F1010A04914DE04FF033
:1022600000400097CDE9011006A90EA8FFF7CAFCAF
:10227000DDE90F0203920E9B11990022DDF80CA0FC
:102280000093049211B9791C00EB010AB7EB0A0024
:1022900004D4C0F1FF3007F1010A0490AAEB070053
:1022A000019044E0012F00DA01270021112F01DD08
:1022B000112000E03846CDE9000106A90EA8FFF77D
:1022C000A1FCDDE90F010E9A039100210491009217
:1022D000BA4621070CD40399514500DA8A46BAF16F
:1022E000010F05DD009AAAF10101515C302908D0E7
:1022F000B84202DA10F1040F06DA0121CDE901102B
:1023000015E0AAF10101E9E7002805DC0499014480
:102310000491AAEB000102E0411C514500DD8A4610
:102320000499401A401C01904FF000400290200791
:1023300004D40198504501DBCDF8048000208DF8CD
:102340004F0002980DF14F07B0F1004F25D02B2020
:102350000E9002984FF0020800280CDA40420290DA
:102360002D200E9007E00A210298FDF75CFF303126
:10237000029007F8011DB8F10001A8F10108F2DC94
:1023800002980028EFD1791E0E980870307800F07E
:10239000200040F0450007F8020D12A8C01B00F114
:1023A00007081498007800B1012000EB0A01019899
:1023B00001EBE07105984144401A401E0590E0038E
:1023C00006D45B462146179A059800F05DF805444F
:1023D0001498007818B15A46179990476D1CE0037D
:1023E00024D55B462146179A059800F04DF8054420
:1023F0001CE00498002807DBDDE90301884203DDC7
:102400000098405C179901E0179930205A46904790
:10241000049805F10105401C04900198401E0190AC
:1024200004D12E205A46179990476D1CBAF100012D
:10243000AAF1010ADDDC05E017F8010B5A461799ED
:1024400090476D1CB8F10001A8F10108F4DC5B466F
:102450002146179A0598ABE62D0000002B000000DE
:10246000200000002DE9F041044600251E461746D5
:10247000880404D405E039462020B0476D1C641E52
:10248000F9D52846BDE8F0812DE9F0410446002544
:102490001E469046C80301D5302700E02027880457
:1024A00004D505E041463846B0476D1C641EF9D599
:1024B0002846BDE8F081000013B54FF6FF730122F6
:1024C00069460248FFF757F800981CBD40000020FD
:1024D000FEF718FBFFF707FAFFF7A0F8FFF7D6F8AB
:1024E000FFF7F0F815A0FFF75DFB4FF47A741E4E6E
:1024F0004FF400556700642308221C491C48FFF76D
:102500003AF823211B48FDF724FE234615221949DA
:102510001748FEF7D7FF01000AD017A0FFF742FBCC
:1025200029463046FEF7D2FA3846FEF7CDF9E2E703
:1025300015211048FFF7E6F8F2E700000D0A2D2DEF
:102540002D20536F696C204D6F6E69746F7220532C
:10255000797374656D20496E697469616C697A6517
:1025600064202D2D2D0D0A000010014000000020D8
:10257000880000201C000020436F6D6D756E69633C
:102580006174696F6E204572726F723A2025640D16
:102590000A000000010202030405060708090A0BED
:1025A0000C0D0E0F101000000000000000000102D2
:1025B00003040607080900000000010203040000EC
:1025C000E0250008000000201C000000E41B0008BB
:1025D000FC2500081C000020B4040000F41B0008C7
:1025E000020300000008443F01000000100000004A
:0C25F0000000000000127A000000000053
:04000005080000ED02
:00000001FF
