:020000040800F2
:10000000280B00209D010008591D0008651D0008EF
:10001000691D00086D1D0008711D0008000000002A
:10002000000000000000000000000000751D000836
:10003000791D0008000000007D1D0008811D0008DA
:10004000B7010008B7010008B7010008B7010008B0
:10005000B7010008B7010008B7010008B7010008A0
:10006000B7010008B7010008B7010008B701000890
:10007000B7010008B7010008B7010008B701000880
:10008000891D0008991D0008B7010008B701000884
:10009000B7010008B7010008B7010008B701000860
:1000A000B7010008A91D0008B7010008B701000842
:1000B000B91D0008B7010008B7010008B701000822
:1000C000B7010008B7010008B7010008B701000830
:1000D000B70100089D1E0008C91D0008B7010008EF
:1000E000B7010008B7010008B7010008B701000810
:1000F000B7010008B7010008B7010008B701000800
:10010000B7010008B7010008B7010008B7010008EF
:10011000B7010008B7010008B7010008B7010008DF
:100120006D1E00087D1E00088D1E0008B701000826
:10013000B7010008B7010008B7010008B7010008BF
:10014000B7010008B7010008B7010008B7010008AF
:10015000B7010008B7010008B7010008B70100089F
:10016000B7010008B7010008B7010008B70100088F
:10017000B7010008B7010008B7010008000000003F
:10018000B7010008B7010008DFF80CD016F0ECFA50
:1001900000480047E5010008280B0020064880477A
:1001A00006480047FEE7FEE7FEE7FEE7FEE7FEE75C
:1001B000FEE7FEE7FEE7FEE7491F000889010008A9
:1001C00080B582B0019040F23450C2F2000001A923
:1001D00001224FF0FF3313F03FFB019802B080BDC6
:1001E000704700BF2DE9F041E2B056A840900020D2
:1001F0004690619043F63002C4F20202116841F069
:100200000101116043F64402C4F20202116841F098
:1002100010011160BFF34F8F40F2000EC4F2020EC6
:10022000CDF804E1DEF80010022464F39341CEF827
:1002300000102423C4F20203429319684FF0070C04
:100240006CF3071119600822C4F20202116841F42C
:1002500040211160DEF8001064F31551CEF8001053
:1002600019686CF30B211960116841F44011116099
:1002700041F20804C4F2010440F282614991216014
:1002800041F20C02C4F20102479242F20C01489181
:10029000116041F21001C4F201014491086041F281
:1002A0001401C4F2010145910860302000F068FD9E
:1002B0000AF008FB312000F063FD322000F060FD01
:1002C00000F08CFD419A429910680A2363F395402F
:1002D00010600868772262F30B100860332000F08A
:1002E0004FFD01F03DF8342000F04AFD469940F200
:1002F0003450C2F20000439041F20002C4F2010205
:1003000002604FF4165242608160C16001610C22AC
:1003100042618161C161202280F8412080F8422041
:10032000416401F0E3FBDDF810C1459B469A479913
:100330004898DDF824E10A60C4F800E0CCF8002019
:100340001A600860352000F01BFD47F2BA70C0F655
:10035000010016F093FC47F68A10C0F6010016F073
:100360008DFC47F63B10C0F6010016F087FC47F6FF
:100370005F10C0F6010016F081FC47F61010C0F6C1
:10038000010016F07BFC47F2BC70C0F601005190F2
:1003900016F074FC03F072FE47F63F00C0F6010051
:1003A00016F06CFC01F082FB47F2FD70C0F6010014
:1003B00016F064FC01F040F82821C4F201014A91D2
:1003C0000320086002F020F94A980068013000EE2E
:1003D000100AB8EE400A9FEDF11A20EE011A9FEDC7
:1003E000F00A80EE010A10EE100A15F0BBFB41EC9A
:1003F000100B53EC102B47F29060C0F6010016F082
:100400003DFC01F0EBF801F027F901F0D5FE47F2D1
:10041000C460C0F6010016F031FC00F0FFFD00F0F2
:1004200053FE01F02BFE47F29170C0F6010016F06A
:1004300025FC02F05DFA47F61300C0F6010016F045
:100440001DFC02F0EDFD47F62900C0F6010016F094
:1004500015FC40F2EC50C2F20000B0EE040A8DED43
:100460004B0AF6EE000ACDED4C0A9FEDCE1A8DED4B
:100470004D1A03F02BFF9DED4B0ADDED4C0A9DED6F
:100480004D1A40F24060C2F2000003F01FFF47F235
:100490003370C0F6010016F0F1FB40F2B800C2F272
:1004A000000004F00DFB47F20370C0F6010016F0E7
:1004B000E5FB40F2A810C2F200009FEDBB0A8DEDF3
:1004C0004E0ADFEDBA0ACDED4F0A9FEDB91A8DED58
:1004D000501A05F047FA9DED4E0ADDED4F0A9DEDED
:1004E000501A40F2C010C2F2000005F03BFA47F289
:1004F0005D60C0F6010016F0C1FB40F21810C2F2B8
:10050000000005F041FB47F26370C0F6010016F0F1
:10051000B5FB00F079FF47F2E770C0F6010016F076
:10052000ADFB519816F0AAFB47F24060C0F60100FF
:1005300016F0A4FBFFE70AF061FA609002F0F6F90A
:1005400002F08EFE609840F2D451C2F200010968B8
:10055000401A0A28C0F27882FFE7609840F2D4512E
:10056000C2F20001086040F2EC50C2F20000806B61
:1005700040F24061C2F20001896B884207DDFFE76B
:1005800040F2EC50C2F20000806B3F9006E040F277
:100590004060C2F20000806B3F90FFE73F985F90A1
:1005A0005F9803F05BFE0146409849695E9190EDCB
:1005B000080A01F055FE0146409840F2E462C2F29A
:1005C0000002116090ED080A01F040FF40F2E8617E
:1005D000C2F20001086001F0EFFF024640F2F46150
:1005E000C2F2000108681044086001F0EDFF024605
:1005F00040F2F861C2F2000108681044086040F25D
:10060000FC61C2F2000108680130086040F2B800E5
:10061000C2F2000005F0E2F8002800F0CF80FFE70A
:10062000409840F2E461C2F2000191ED000AB8EE98
:10063000C00A40F2E861C2F2000191ED001AB8EE82
:10064000C11A30EE010AB6EE001A20EE010A80ED62
:10065000070A90ED070A40F2B800C2F200003D9090
:1006600004F0D2FB3D99B1F93E00B1F9401040F2DF
:10067000E73201F0F1FF40F2EC52C2F2000292EDDB
:10068000060A9FED4B1A20EE010A82ED060A40F29F
:100690004061C2F2000191ED060A20EE010A81EDEF
:1006A000060A00203E90D063C86310640864106599
:1006B000086540F2A810C2F2000005F049FA40F2C5
:1006C000C010C2F2000005F043FA40F21810C2F266
:1006D000000005F0A7FA3D993E98B1F93E2000EEE2
:1006E000102AB8EEC00A40F2E052C2F2000282EDD7
:1006F000000AB1F9401000EE101AB8EEC00A40F23C
:10070000E451C2F2000181ED000A40F2A411C2F2EC
:100710000001086040F2A011C2F200010860609878
:1007200040F2C451C2F200010968401AB0F5FA7FE4
:1007300032DBFFE7609840F2C451C2F2000108606A
:1007400040F2B800C2F200003B90007805F078F863
:1007500001463B983C91806815F004FA41EC100B7F
:100760008DED380B5D9815F0FDF99DED380B0246C7
:100770003B980B463C9943EC112BB0F93E20684660
:10078000826080ED001B53EC102B47F6E500C0F6AD
:10079000010016F073FAFFE74DE100BF00007A4454
:1007A0000024F44BCDCC4C3E00000000CDCC4C3DA1
:1007B0006666663F9A9949419A99593F40F2EC60C2
:1007C000C2F2000000685C9040F2F060C2F20000EB
:1007D00000685B9040F2E460C2F20000329090ED5D
:1007E000000AB8EEC00A40F2E860C2F2000033909E
:1007F00090ED001AF8EEC10A40F2A010C2F200001B
:10080000349090ED001A40F2A410C2F2000036902D
:10081000D0ED001A40F2E050C2F20000359090EDA9
:10082000002A40F2E450C2F200003790D0ED002AD6
:1008300040F21810C2F200005CA95BAA05F00AFAA7
:100840003298409991ED060A90ED001AF8EEC10A2F
:1008500040F2EC50C2F2000003F07CFD3398359A70
:10086000409982ED000A91ED050A90ED001AF8EE2C
:10087000C10A40F24060C2F2000003F06BFD329901
:100880003598379A82ED000A91ED000AB8EEC00A59
:10089000D0ED000A40F2A810C2F2000005F0CEF838
:1008A0003399349A379882ED000A91ED000AB8EE38
:1008B000C00AD0ED000A40F2C010C2F2000005F0FC
:1008C000BDF8DDF8D0C0359B369A3799409882ED57
:1008D000000A9CED001A93ED000A30EE010A83ED48
:1008E000000A92ED001A91ED000A30EE010A81ED46
:1008F000000A40F21411C2F2000109685A9190ED09
:10090000040AB2EE001AB4EE410AF1EE10FA04DA6B
:10091000FFE74FF082405A90FFE7409890ED040ABD
:10092000B2EE0E1AB4EE410AF1EE10FA05DDFFE761
:100930000020C4F270105A90FFE7409890ED041A1E
:100940001FED640A80EE010A80ED030A90ED030AB0
:100950001FED671AB4EE410AF1EE10FA06DAFFE76E
:1009600049F69A10C3F659705990FFE7409890EDF8
:10097000030AB7EE041AB4EE410AF1EE10FA05DDEF
:10098000FFE70020C3F6A0705990FFE7409890ED74
:10099000031A40F2E051C2F2000191ED000A20EE8C
:1009A000010A81ED000A90ED031A40F2E450C2F210
:1009B000000090ED000A20EE010A80ED000A40F2EE
:1009C000EC50C2F20000806B40F24061C2F20001C4
:1009D000896B884207DDFFE740F2EC50C2F200006D
:1009E000806B319006E040F24060C2F20000806B04
:1009F0003190FFE731985890589803F02FFC008A07
:100A0000ADF85E0140F2E050C2F2000090ED000A45
:100A1000BDEEC00A10EE100A40F2E451C2F200012D
:100A200091ED000ABDEEC00A10EE101ABDF85E216D
:100A300001F012FEFFE701F02FFB40F21410C2F2AA
:100A4000000080ED000AFFE7609840F2DC51C2F23E
:100A500000010968401A642868DBFFE7409840F20B
:100A6000DC52C2F200021168643111604FF643613A
:100A7000C4F21011569140F2E461C2F2000191ED0E
:100A8000000AB8EEC00A90ED001A20EE010ABDEE91
:100A9000C00A10EE101AADF8561140F2E861C2F229
:100AA000000191ED000AB8EEC00A90ED001A20EEA8
:100AB000010ABDEEC00A10EE100AADF8540101F0B3
:100AC0008BFD549001F08EFD539040F2F460C2F221
:100AD00000000023036040F2F860C2F200000360EF
:100AE00040F2FC60C2F20000036040F21410C2F257
:100AF000000090ED000A9FEDA11A20EE010ABDEE64
:100B0000C00A10EE100AADF84A01BDF95601BDF950
:100B10005411BDF94A21DDF850C1539CEE46CEF880
:100B20000440CEF800C002F06DF9FFE7609840F293
:100B3000CC51C2F200010968401AB0F5FA7F0BDB14
:100B4000FFE740F2CC51C2F20001086800F5FA70EC
:100B5000086003F0BBFAFFE7609840F2D851C2F298
:100B600000010968401A41F288318842C0F2EC80E5
:100B7000FFE740F2D851C2F20001086841F2883222
:100B80001044086040F2EC60C2F2000090ED000AF0
:100B9000B5EE400AF1EE10FA40F0D580FFE740F2E2
:100BA000F060C2F2000090ED000AB5EE400AF1EEEE
:100BB00010FA40F0C880FFE740F2B800C2F200002F
:100BC00004F00CFE002840F0BE80FFE760982F90F4
:100BD00040F2EC50C2F20000C16A1891816B40F201
:100BE0007400C2F2000050F821002B9040F2E46043
:100BF000C2F2000000682C9040F2E860C2F20000EF
:100C000000682E9040F2E050C2F20000006814F03C
:100C1000A9FF41EC100B8DED280B40F2E450C2F21D
:100C20000000006814F09EFF41EC100B8DED260BC8
:100C300040F2A010C2F20000006814F093FF41ECF3
:100C4000100B8DED240B40F2A410C2F200000068DE
:100C500014F088FF0246189819920A46199942EC36
:100C6000101B8DED220B14F07DFF41EC100B8DED70
:100C7000200B40F24060C2F20000C06A14F072FF24
:100C800041EC100B8DED1E0B01F0B2FC2D9001F02C
:100C9000B5FC044640F21810C2F200001A90006938
:100CA00014F060FF02461A981B920A461B9942EC08
:100CB000101B8DED1C0B458E868EC78E40F21410D6
:100CC000C2F20000006814F04DFF9DED1C6B9DED1D
:100CD0001E5B9DED204B9DED223B9DED242B9DED5C
:100CE000261B9DED280B2B9A2C9BDDF8B4E0844647
:100CF0002E9888462F9948EC17CBEC46CDF8C0C00B
:100D00008CED167BCCF85070CCF84C60CCF8485089
:100D10008CED106BCCF83C40CCF838E08CED0C5BE3
:100D20008CED0A4B8CED083B8CED062B8CED041BF7
:100D30008CED020BCCF8000047F65500C0F6010020
:100D400015F09CFFFFE7FFE7609840F2D051C2F238
:100D500000010968401A64280EDBFFE740F2D05119
:100D6000C2F2000108686430086040F25040C2F2EC
:100D7000000009F07DFFFFE7FFF7DDBB0000C84280
:100D800082B08DF80700FFE741F20000C4F20100D5
:100D900000680006002802D4FFE700BFF4E79DF8D2
:100DA000070041F20401C4F2010108600020009034
:100DB000FFE7009840F63F51C0F20301884206D891
:100DC000FFE700BFFFE7009801300090F1E702B0B5
:100DD000704700BF72B6FFE700BFFDE780B596B071
:100DE000002015901490139012901190FFE70020AE
:100DF000109043F63000C4F20200016841F0100187
:100E00000160006800F0100010901098FFE7FFE705
:100E100000200F9043F63000C4F20200016841F058
:100E200004010160006800F004000F900F98FFE7D4
:100E3000FFE700200E9043F63000C4F20200016884
:100E400041F020010160006800F020000E900E9833
:100E5000FFE7FFE700200D9043F63000C4F20200E8
:100E6000016841F080010160006800F080000D9091
:100E70000D98FFE7FFE700200C9043F63000C4F226
:100E80000200016841F001010160006800F001000A
:100E90000C900C98FFE7FFE700200B9043F6300022
:100EA000C4F20200016841F002010160006800F034
:100EB00002000B900B98FFE7FFE700200A9043F633
:100EC0003000C4F20200016841F040010160006896
:100ED00000F040000A900A98FFE7FFE70020099021
:100EE00043F63000C4F20200016841F008010160DD
:100EF000006800F0080009900998FFE741F200003F
:100F0000C4F2020001904FF4C04100910022069209
:100F100008F0EEFA069A41F60000C4F202000790CB
:100F20004FF4E071049108F0E3FA0198069949F250
:100F3000FF521192032203921292139111A9089168
:100F400007F0D0FF039A069808994FF64F73119354
:100F50001292139040F60000C4F2020007F0C2FFA4
:100F6000039A069808994FF6FF7302931193129211
:100F7000139041F20040C4F2020007F0B3FF039A5D
:100F80000698089949F613131193129213900020B2
:100F9000C4F2020007F0A6FF039A069808994FF6DC
:100FA000F67311931292139040F20040C4F20200C3
:100FB00007F098FF039B069A079808994FF63F6C35
:100FC000CDF844C01293139207F08CFF009B019858
:100FD000069A089911930123059312931392149280
:100FE00007F080FF029B039A0698089911931292CA
:100FF000139040F60040C4F2020007F073FFDDF8E2
:1010000010C0059B069A07980899CDF844C0129322
:101010001392149207F066FF16B080BD80B58AB0B7
:101020000022019209920892079206920592049278
:10103000039240F2E010C2F20000029042F200017E
:10104000C4F2010101604FF48031416082600121EE
:101050000161017680F82020C2620123C0F600738E
:101060008362C260C16180F83010416105F020F9EF
:1010700018B1FFE7FFF7AEFEFFE7062007904FF439
:10108000004008900020099040F2E010C2F20000F9
:1010900007A907F059F818B1FFE7FFF79BFEFFE734
:1010A00007200390012004900020059040F2E010FA
:1010B000C2F2000003A906F0C9F818B1FFE7FFF774
:1010C00089FEFFE70AB080BD80B586B0002200929D
:1010D000059204920392029240F22820C2F200008C
:1010E000019042F20011C4F2010101604FF480311D
:1010F0004160826001210161017680F82020C26098
:10110000C16180F83020416105F0D2F818B1FFE7E5
:10111000FFF760FEFFE70E20029001200390002001
:10112000049040F22820C2F2000002A906F08EF8D6
:1011300018B1FFE7FFF74EFEFFE706B080BD00BF26
:1011400080B590B00F9000200E900D900C900B90F9
:101150000A900F98006842F20001C4F2010188422F
:1011600040F08080FFE7FFE70020099043F644004D
:10117000C4F20200016841F480710160006800F46B
:10118000807009900998FFE7FFE70020089043F678
:101190003000C4F20200016841F001010160006802
:1011A00000F0010008900898FFE7FFE70020079093
:1011B00043F63000C4F20200016841F00201016010
:1011C000006800F0020007900798FFE780200A906F
:1011D000032001900B90002003900C900020C4F29B
:1011E00002000AA9029107F07DFE019A0299039874
:1011F00001230A930B920C9040F20040C4F20200CB
:1012000007F070FE039940F27020C2F200000490D3
:1012100046F21042C4F20202026041608160C16085
:101220004FF4806202614FF4805242614FF4804279
:1012300082614FF48072C2614FF480320262416277
:1012400008F0D0F918B1FFE7FFF7C4FDFFE7FFE7AB
:101250000F9840F27021C2F2000181630F988863F9
:10126000FFE739E00F98006842F20011C4F2010173
:10127000884230D1FFE7FFE70020069043F64400A4
:10128000C4F20200016841F400710160006800F4DA
:10129000007006900698FFE7FFE70020059043F6F0
:1012A0003000C4F20200016841F0040101600068EE
:1012B00000F0040005900598FFE730200A90032015
:1012C0000B9000200C9040F60000C4F202000AA926
:1012D00007F008FEFFE7FFE710B080BD80B582B0E1
:1012E00001900198006842F20001C4F201018842B5
:1012F0001AD1FFE743F64401C4F20201086820F462
:10130000807008600020C4F20200802107F0C6FF50
:1013100040F20040C4F20200012107F0BFFF019833
:10132000806B08F0BBFA19E00198006842F20011E6
:10133000C4F20101884210D1FFE743F64401C4F230
:101340000201086820F40070086040F60000C4F252
:101350000200302107F0A2FFFFE7FFE702B080BDE7
:1013600080B588B0FFE70020079043F63000C4F254
:101370000200016841F480010160006800F480000F
:1013800007900798FFE7FFE70020069043F630003C
:10139000C4F20200016841F400110160006800F429
:1013A000001006900698FFE710200090002204929B
:1013B000114608F0BFFF009809F036F8049A112092
:1013C0000190114608F0B6FF019809F02DF8049A33
:1013D00038200290032108F0ADFF029809F024F8AC
:1013E000049A39200390114608F0A4FF039809F0ED
:1013F0001BF8049A3A200590114608F09BFF0598C7
:1014000009F012F808B080BD80B540F25040C2F239
:10141000000043F20001C4F20001016004214160B8
:1014200040F2F311816009F0DBFB18B1FFE7FFF731
:10143000D1FCFFE780BD000080B598B0002101918C
:101440001791169115911491139112911191109178
:101450000F910E910D910C910B910A9109910891A8
:101460000791069105910491039140F25C40C2F20C
:10147000000002900022C4F20102026010224260C9
:10148000816040F2E732C260016141618021816187
:1014900009F0F8FB18B1FFE7FFF79CFCFFE74FF4FA
:1014A0008050149040F25C40C2F2000014A90FF08A
:1014B000C9F918B1FFE7FFF78DFCFFE740F25C4088
:1014C000C2F200000AF050FF18B1FFE7FFF782FCFC
:1014D000FFE700201290139040F25C40C2F200003F
:1014E00012A911F029FE18B1FFE7FFF773FCFFE71F
:1014F00060200B9000220C920D920E920F9210928F
:10150000119240F25C40C2F200000BA90EF01CFBED
:1015100018B1FFE7FFF75EFCFFE740F25C40C2F264
:1015200000000BA904220EF00FFB18B1FFE7FFF734
:1015300051FCFFE70020039004900590069007906F
:101540004FF4005108910A9040F25C40C2F2000052
:1015500003A911F083FE18B1FFE7FFF73BFCFFE79B
:1015600040F25C40C2F2000000F002F818B080BD0A
:1015700080B588B0079000200690059004900390F5
:101580000290079800680021C4F20101884223D12B
:10159000FFE7FFE70020019043F63000C4F20200AD
:1015A000016841F010010160006800F01000019036
:1015B0000198FFE74FF42060029002200390002082
:1015C000049005900120069041F20000C4F2020050
:1015D00002A907F087FCFFE708B080BD80B58EB098
:1015E00005A80190242114F03BFA019900220292EF
:1015F0000492039240F2A440C2F200004FF08043F4
:101600000360426082604FF6FF73C3600261802313
:10161000836103230593069201230793089209929D
:101620000A920B930C920D920CF052FF18B1FFE747
:10163000FFF7D0FBFFE700200390049040F2A440A6
:10164000C2F2000003A911F077FD18B1FFE7FFF720
:10165000C1FBFFE70EB080BD80B58EB005A801903C
:10166000242114F0FDF901990022029204920392C0
:1016700040F2EC40C2F2000040F20043C4F200032A
:101680000360426082604FF6FF73C3600261802393
:10169000836103230593069201230793089209921D
:1016A0000A920B930C920D920CF012FF18B1FFE707
:1016B000FFF790FBFFE700200390049040F2EC401E
:1016C000C2F2000003A911F037FD18B1FFE7FFF7E0
:1016D00081FBFFE70EB080BD80B586B00590059810
:1016E00000680021C4F20101884240F08580FFE7D4
:1016F000FFE70020049043F64400C4F202000168B2
:1017000041F001010160006800F0010004900498BC
:10171000FFE740F2D020C2F20000039046F22841D9
:10172000C4F2020101604FF04061416040218160DC
:101730000021C1604FF4806202614FF40062426197
:101740004FF4005282614FF48072C2614FF4403214
:1017500002620422426201228262C162016307F0D6
:1017600041FF18B1FFE7FFF735FBFFE7FFE70598FB
:1017700040F2D021C2F20001416205988863FFE780
:1017800040F23030C2F20000029046F24041C4F212
:10179000020101604FF04061416040218160002101
:1017A000C1604FF4806202614FF4006242614FF405
:1017B000005282614FF48072C2614FF44032026283
:1017C000416207F00FFF18B1FFE7FFF703FBFFE7E8
:1017D000FFE7059840F23031C2F2000181620598BE
:1017E0008863FFE7192001900421002208F0A2FD80
:1017F000019808F019FEFFE706B080BD80B594B0EF
:10180000139000201290119010900F900E9013984A
:101810000068B0F1804F62D1FFE7FFE700200D9034
:1018200043F64000C4F20200016841F0010101608A
:10183000006800F001000D900D98FFE7FFE7002021
:101840000C9043F63000C4F20200016841F001013F
:101850000160006800F001000C900C98FFE7FFE7C2
:1018600000200B9043F63000C4F20200016841F002
:1018700002010160006800F002000B900B98FFE786
:1018800020200E90022003900F90002006901090D0
:1018900011900120049012900020C4F202000EA9C1
:1018A000059107F01FFB039B04980599069A4FF0DA
:1018B000080CCDF838C00F9310921192129040F29C
:1018C0000040C4F2020007F00DFB069A1C200790AE
:1018D000052108F02FFD079808F0A6FD5DE013989C
:1018E000006840F20041C4F20001884254D1FFE791
:1018F000FFE700200A9043F64000C4F202000168AE
:1019000041F002010160006800F002000A900A98AC
:10191000FFE7FFE70020099043F63000C4F2020021
:10192000016841F001010160006800F001000990C8
:101930000998FFE7FFE70020089043F63000C4F263
:101940000200016841F004010160006800F0040039
:1019500008900898FFE740200E90022001900F9019
:10196000002100911091119112900020C4F2020008
:101970000EA9029107F0B6FA009A01980299802305
:101980000E930F9010921192129040F60000C4F244
:10199000020007F0A7FAFFE7FFE714B080BD00BF21
:1019A00080B582B00190019800680021C4F2010165
:1019B000884214D1FFE743F64401C4F202010868EB
:1019C00020F0010008600198406A07F067FF019865
:1019D000806A07F063FF192008F048FDFFE702B0B6
:1019E00080BD00BF80B582B0019001980068B0F161
:1019F000804F19D1FFE743F64001C4F202010868A5
:101A000020F0010008600020C4F20200202107F04D
:101A100045FC40F20040C4F20200082107F03EFC01
:101A20001C2008F023FD1FE00198006840F20041EF
:101A3000C4F20001884216D1FFE743F64001C4F228
:101A40000201086820F0020008600020C4F20200D1
:101A5000402107F023FC40F60000C4F20200802180
:101A600007F01CFCFFE7FFE702B080BD80B582B045
:101A700040F23450C2F20000019041F20001C4F281
:101A8000010101604FF4E131416000218160C160DA
:101A900001610C2242618161C16111F0A3FC18B1A6
:101AA000FFE7FFF797F9FFE702B080BD80B582B08E
:101AB00040F27C50C2F20000019044F20041C4F2B6
:101AC000000101604FF4E131416000218160C1609B
:101AD00001610C2242618161C16111F083FC18B186
:101AE000FFE7FFF777F9FFE702B080BD80B590B060
:101AF0000F9000200E900D900C900B900A900F9874
:101B0000006841F20001C4F2010188423FD1FFE7C1
:101B1000FFE70020099043F64400C4F20200016888
:101B200041F010010160006800F010000990099870
:101B3000FFE7FFE70020089043F63000C4F2020000
:101B4000016841F001010160006800F001000890A7
:101B50000898FFE74FF4C0600A9002200B90002025
:101B600004900C9003200D90072003900E9000200D
:101B7000C4F202000AA907F0B5F90399049A2520D6
:101B8000059008F0D7FB059808F04EFC9FE00F98F1
:101B9000006844F20041C4F20001884240F096809F
:101BA000FFE7FFE70020079043F64000C4F2020081
:101BB000016841F400310160006800F400300790D2
:101BC0000798FFE7FFE70020069043F63000C4F2D5
:101BD0000200016841F001010160006800F00100AD
:101BE00006900698FFE70C200A9002200B90012037
:101BF0000C9003200D9007200E900020C4F20200EC
:101C00000AA907F06FF940F29030C2F2000002908A
:101C100046F28801C4F2020101604FF000614160A8
:101C200000218160C1604FF4806202614161816185
:101C30004FF48072C2614FF440320262416207F099
:101C4000D1FC18B1FFE7FFF7C5F8FFE7FFE70F98F2
:101C500040F29031C2F20001C1630F988863FFE740
:101C600040F2F030C2F20000019046F2A001C4F24E
:101C7000020101604FF0006141604021816000215C
:101C8000C1604FF48062026141618161C1614FF4C2
:101C900040320262416207F0A5FC18B1FFE7FFF78E
:101CA00099F8FFE7FFE70F9840F2F031C2F2000128
:101CB00081630F988863FFE72620009006210022A9
:101CC00008F038FB009808F0AFFBFFE7FFE710B023
:101CD00080BD00BF80B582B001900198006841F2DC
:101CE0000001C4F20101884210D1FFE743F644012C
:101CF000C4F20201086820F0100008600020C4F25D
:101D000002004FF4C06107F0C9FA23E001980068AF
:101D100044F20041C4F2000188421AD1FFE743F6C1
:101D20004001C4F20201086820F40030086000207D
:101D3000C4F202000C2107F0B1FA0198C06B07F061
:101D4000ADFD0198806B07F0A9FD262008F08EFB01
:101D5000FFE7FFE702B080BD80B507F0ADF8FFE711
:101D6000FEE700BFFFE7FEE7FFE7FEE7FFE7FEE76E
:101D7000FFE7FEE7704700BF704700BF704700BF36
:101D800080B508F02DFE80BD80B540F29030C2F2E3
:101D9000000008F045F880BD80B540F2F030C2F296
:101DA000000008F03DF880BD80B540F25C40C2F212
:101DB00000000DF0D3F980BD80B540F2A440C2F21E
:101DC00000000DF0CBF980BD80B582B040F27C50B0
:101DD000C2F2000000680068C00600283ED5FFE798
:101DE00040F27C50C2F20000C06B00684068ADF861
:101DF0000600FFE70020009040F27C50C2F2000095
:101E00000168096800910068406800900098FFE749
:101E100040F27C50C2F20000C06B40B1FFE740F2DC
:101E20007C50C2F20000C06B07F064FEFFE740F296
:101E30007C51C2F20001202081F84200BDF806006A
:101E4000C0F1400040F2E261C2F20001088040F2BD
:101E5000E061C2F2000101200870FFE740F27C500F
:101E6000C2F2000013F07AF802B080BD80B540F2F3
:101E70007020C2F2000007F0D3FF80BD80B540F2B1
:101E8000D020C2F2000007F0CBFF80BD80B540F249
:101E90003030C2F2000007F0C3FF80BD80B582B0D1
:101EA00040F23450C2F2000000680068800600284A
:101EB00007D5FFE740F23450C2F2000013F04EF8AD
:101EC000FFE740F23450C2F20000006800680007EB
:101ED000002810D5FFE7FFE70020019040F23450C2
:101EE000C2F2000001680968019100684068019031
:101EF0000198FFE7FFE702B080BD000082B0FFE776
:101F00000020019043F64400C4F20200016841F44D
:101F100080410160006800F4804001900198FFE773
:101F2000FFE70020009043F64000C4F20200016881
:101F300041F080510160006800F0805000900098EE
:101F4000FFE702B0704700004EF68851CEF2000164
:101F5000086840F470000860704700BF86B043F620
:101F60000800C4F20200006800F00C00059005981B
:101F7000009040B1FFE7009804280ED0FFE70098DA
:101F8000082814D059E040F20801C2F2000142F2E0
:101F90000040C0F2F400086059E040F20801C2F2CB
:101FA000000147F64000C0F27D1008604FE043F6A4
:101FB0000400C4F202000168C1F38051029100687C
:101FC00000F03F000190029888B1FFE7019947F6C1
:101FD0004000C0F27D10B0FBF1F043F60401C4F202
:101FE00002010968C1F388114843049010E0019987
:101FF00042F20040C0F2F400B0FBF1F043F60401FD
:10200000C4F202010968C1F3881148430490FFE754
:1020100043F60400C4F20200006800F440310220DC
:1020200000EBD130039004980399B0FBF1F040F23B
:102030000801C2F20001086009E040F20801C2F2A2
:10204000000142F20040C0F2F4000860FFE743F6EE
:102050000800C4F202000068C0B2010947F2206023
:10206000C0F60100405C0590059A40F20801C2F2FA
:1020700000010868D040086006B0704780B540F2A3
:10208000E010C2F2000040F29001C2F200010A2208
:1020900004F0CCFE80BD00BF84B00020039002900D
:1020A000FFE7029809280FDCFFE7029940F2900051
:1020B000C2F2000030F82110039808440390FFE7B3
:1020C000029801300290ECE79DED030AB8EE400A59
:1020D000B2EE041A80EE010A8DED010A9DED010AAF
:1020E0009FED211A20EE010A9FED201A20EE010A31
:1020F000B1EE081A20EE010A8DED000A9DED000AEE
:10210000B2EE001AB4EE410AF1EE10FA05DAFFE77A
:102110000020C4F240100090FFE79DED000AB2EEEF
:102120000E1AB4EE410AF1EE10FA05DDFFE70020C9
:10213000C4F240100090FFE740F20C00C2F2000031
:1021400090ED000A9DED001A9FED092A21EE021A7A
:102150009FED082A20EE020A30EE010A80ED000A07
:1021600090ED000A04B070470000803933335340CB
:10217000CDCCCC3D6666663F40F2D811C2F200017C
:102180000020086040F2DC11C2F20001086040F259
:102190009C61C2F20001088040F29E61C2F200011F
:1021A000088040F2E851C2F20001088040F2EA5192
:1021B000C2F200010880704780B58EB00020089000
:1021C0000D900C900B900A900990022103910A91B6
:1021D000012001900B900C91202109910D9000207D
:1021E000C4F20200029009A9049106F07BFE019856
:1021F0000499082209920D9040F20040C4F20200B6
:1022000006F070FE0298039A0499402309930D92F8
:1022100006F068FE03980499802209920D9040F61A
:102220000000C4F2020006F05DFE40F2A440C2F2DB
:10223000000006903C2105910CF02AFA059940F225
:10224000EC40C2F2000007900CF022FA069A0799BF
:10225000089812685062096848620EB080BD00BFDD
:1022600080B586B08DED050A40F2A440C2F20000B0
:102270000068406AADF81200BDF8120040F2C85183
:10228000C2F200010A88801AADF81000BDF81200F1
:10229000088040F21000C2F20000007848B1FFE769
:1022A00040F21001C2F2000100200870ADF81000E9
:1022B000FFE7BDF810004042ADF80E00BDF90E205A
:1022C00040F25411C2F20001086810440860BDF8E1
:1022D0000E0040F29C61C2F2000108809DED050AEB
:1022E0009FED391AB4EE410AF1EE10FA06DAFFE773
:1022F0004CF6CD40C3F64C500590FFE79DED050A26
:102300009FED321AB4EE410AF1EE10FA06DDFFE756
:1023100043F23330C3F673700590FFE7BDF90E004A
:1023200000EE100AB8EEC00A40F2D810C2F2000067
:1023300090ED001A30EE410A8DED020A90ED000A90
:1023400000F048F88DED010A059800909DED020A15
:102350009DED011AB4EE410AF1EE10FA0CDCFFE734
:102360009DED020A9DED011AB1EE411AB4EE410A4B
:10237000F1EE10FA10DAFFE79DED050A9FED141A51
:1023800020EE010A8DED000A40F2E851C2F2000190
:10239000088801300880FFE79DED000A9DED022AC4
:1023A00040F2D810C2F2000090ED001A20EE020AAE
:1023B00030EE010A80ED000A90ED000ABDEEC00A81
:1023C00010EE100A06B080BDCDCC4C3D3333733FC8
:1023D0009A99193E84B08DED030A9DED030AB5EE7E
:1023E000400AF1EE10FA05DBFFE79DED030A8DEDE3
:1023F000000A06E09DED030AB1EE400A8DED000AE9
:10240000FFE79DED000A8DED020A9DED020A9FEDAA
:102410000E1A20EE010AB1EE001A30EE010A8DED1F
:10242000010A9DED010AB3EE091AB4EE410AF1EE7C
:1024300010FA05DDFFE70020C4F2C8100190FFE7A5
:102440009DED010A04B070479A99993E80B586B017
:102450008DED050A40F2EC40C2F200000068406ACF
:10246000ADF81200BDF8120040F2CA51C2F20001EC
:102470000A88801AADF81000BDF81200088040F2FA
:102480001100C2F20000007848B1FFE740F21101EC
:10249000C2F2000100200870ADF81000FFE7BDF99E
:1024A000102040F25811C2F2000108681044086080
:1024B000BDF8100040F29E61C2F2000108809DED5F
:1024C000050A9FED3A1AB4EE410AF1EE10FA06DA67
:1024D000FFE74CF6CD40C3F64C500590FFE79DED6D
:1024E000050A9FED331AB4EE410AF1EE10FA06DD4B
:1024F000FFE743F23330C3F673700590FFE7BDF991
:10250000100000EE100AB8EEC00A40F2DC10C2F271
:10251000000090ED001A30EE410A8DED030A90EDB7
:10252000000AFFF757FF8DED020A059801909DED17
:10253000030A9DED021AB4EE410AF1EE10FA0CDC2A
:10254000FFE79DED030A9DED021AB1EE411AB4EECC
:10255000410AF1EE10FA10DAFFE79DED050A9FED52
:10256000151A20EE010A8DED010A40F2EA51C2F27D
:102570000001088801300880FFE79DED010A9DED0C
:10258000032A40F2DC10C2F2000090ED001A20EEA7
:10259000020A30EE010A80ED000A90ED000ABDEE5D
:1025A000C00A10EE100A06B080BD00BFCDCC4C3D75
:1025B0003333733F9A99193E40F29C60C2F2000097
:1025C000B0F90000704700BF40F29E60C2F2000008
:1025D000B0F90000704700BF40F25410C2F2000092
:1025E0000068704740F25810C2F20000006870475F
:1025F00040F2E850C2F200000088704740F2EA5012
:10260000C2F200000088704780B584B040F25C40A0
:10261000C2F2000002900268516C41F40041516422
:1026200040F29862C2F2000201920021012303935A
:102630000AF088FA0199039B02988A1C04210AF087
:1026400081FA039A41F60000C4F202004FF480714F
:1026500006F04EFF04B080BD80B586B0ADF8160020
:10266000ADF81410ADF81220BDF81200092804DCF2
:10267000FFE70A20ADF81200FFE7BDF81200B0F541
:102680007A7F05DBFFE740F2E730ADF81200FFE7A5
:10269000BDF8160040F29461C2F200010988401AA8
:1026A000ADF81000BDF91000BDF9121088420BDD25
:1026B000FFE740F29460C2F200000088BDF81210FB
:1026C0000844ADF81600FFE7BDF91000BDF912107F
:1026D000494288420BDAFFE740F29460C2F2000000
:1026E0000088BDF81210401AADF81600FFE7BDF8DB
:1026F000140040F29661C2F200010988401AADF858
:102700001000BDF91000BDF9121088420BDDFFE783
:1027100040F29660C2F200000088BDF81210084432
:10272000ADF81400FFE7BDF91000BDF912104942E1
:1027300088420BDAFFE740F29660C2F200000088A0
:10274000BDF81210401AADF81400FFE7BDF81600EE
:1027500040F29461C2F200010880BDF8140040F21A
:102760009661C2F200010880BDF91600002811D45C
:10277000FFE741F20000C4F2020003904FF4005161
:10278000012206F0B5FE03984FF48041002206F0C6
:10279000AFFE15E041F20000C4F2020002904FF4D7
:1027A0000051002206F0A4FE02984FF4804101225D
:1027B00006F09EFEBDF816004042ADF81600FFE799
:1027C000BDF9140000280FD4FFE741F60000C4F261
:1027D000020001904021012206F08AFE019880212A
:1027E000002206F085FE13E041F60000C4F202006C
:1027F00000904021002206F07BFE009880210122FB
:1028000006F076FEBDF814004042ADF81400FFE774
:10281000BDF91600B0F57A7F05DBFFE740F2E7303F
:10282000ADF81600FFE7BDF91400B0F57A7F05DBBF
:10283000FFE740F2E730ADF81400FFE7BDF81600FF
:1028400040F29861C2F200010880BDF8140048808F
:1028500006B080BD83B00290ADF806104FF6FF7051
:10286000ADF804000020ADF80200FFE7BDF802005B
:10287000BDF80610884236DAFFE70298BDF802106C
:10288000415CBDF8040080EA0120ADF8040000209E
:102890008DF80100FFE79DF8010007281CDCFFE729
:1028A000BDF804000004002809D5FFE7BDF80410B6
:1028B00041F2210080EA4100ADF8040005E0BDF8D6
:1028C00004004000ADF80400FFE7FFE79DF80100B9
:1028D00001308DF80100DEE7FFE7BDF802000130AE
:1028E000ADF80200C2E7BDF8040003B0704700BFB6
:1028F00080B582B040F29030C2F200000021C16188
:1029000006F070FE40F27C50C2F20000019040F2EE
:10291000A061C2F20001402211F09AFE0198016804
:10292000C86840F01000C86002B080BD80B590B0AB
:1029300040F2E060C2F20000007808B9FFE71EE252
:1029400040F2E061C2F2000100200870ADF83E00E4
:10295000FFE7BDF83E00063040F2E261C2F200013E
:102960000988884200F3A481FFE7BDF83E1040F2D9
:10297000A060C2F20000405CAA280BD1FFE7BDF8BE
:102980003E0040F2A061C2F20001084440785528A0
:102990001DD0FFE7BDF83E00013040F2E261C2F217
:1029A00000010A8881B240F2A060C2F2000000F08B
:1029B000F1F9ADF83C00BDF93C00B0F1FF3F01DC9E
:1029C000FFE775E1BDF83C00ADF83E00FFE7BDF85C
:1029D0003E00063040F2E261C2F2000109888842FE
:1029E00001DDFFE764E1BDF83E0040F2A061C2F204
:1029F0000001084480788DF83B00BDF83E00084493
:102A0000C0788DF83A009DF83A000630ADF83800ED
:102A1000BDF83E00BDF83810084440F2E261C2F251
:102A200000010988884201DDFFE741E1BDF83E0071
:102A300040F2A061C2F200010291084402309DF808
:102A40003A100231FFF706FF0299ADF83600BDF8E3
:102A50003E00BDF838201044084410F8021C10F85D
:102A6000010C40EA0120ADF83400BDF83600BDF895
:102A70003410884206D0FFE7BDF83E000130ADF8C3
:102A80003E0066E79DF83B00812841D1FFE79DF8B5
:102A90003A0004283CD1FFE7BDF83E0040F2A061B7
:102AA000C2F2000142181079527940EA0220ADF8D2
:102AB0003200BDF83E0001448879C97940EA01201E
:102AC000ADF830004FF62E70C3F6E1500B90BDF913
:102AD000300000EE100AB8EEC00A9DED0B1A20EE91
:102AE000010A40F2EC60C2F2000080ED000ABDF97C
:102AF000320000EE100AB8EEC00A9DED0B1A20EE6F
:102B0000010A40F2F060C2F2000080ED000AC7E066
:102B10009DF83B00822840F0C280FFE79DF83A0014
:102B20000528C0F2BC80FFE7BDF83E0040F2A0617E
:102B3000C2F2000142181079527940EA0220ADF841
:102B40002A00BDF83E00084480798DF82900BDF8C0
:102B50003E000844C0798DF82800BDF82A0080B9ED
:102B6000FFE740F2B800C2F2000002F037FE38B1D1
:102B7000FFE740F2B800C2F2000002F0DFFEFFE71C
:102B80008CE040F2B800C2F2000002F027FE0028FC
:102B900040F08380FFE7BDF82A0000EE100AB8EE8F
:102BA000400A9FED781A20EE010A8DED090A9DF882
:102BB000290000EE100AB8EE400A9FED731A80EE6D
:102BC000010A8DED080A9DED080A9FED701AB4EE1A
:102BD000410AF1EE10FA04DAFFE74FF07E50089058
:102BE000FFE79DED080AB0EE001AB4EE410AF1EEDF
:102BF00010FA04DDFFE74FF080400890FFE79DF9F1
:102C00002800B0F1FF3F2DDCFFE79DED090AB0EE93
:102C1000001AB4EE410AF1EE10FA03DAFFE70020E1
:102C200007901EE09DED090AB2EE0E1AB4EE410ABD
:102C3000F1EE10FA03DAFFE70120079010E09DEDB6
:102C4000090A9FED531AB4EE410AF1EE10FA03DAC5
:102C5000FFE70220079002E003200790FFE7FFE76D
:102C6000FFE703E09DF928000790FFE740F2EC61E1
:102C7000C2F200010020086040F2F061C2F20001DF
:102C800008609DED090A0799DDED080A40F2B800D9
:102C9000C2F2000001F02CFFFFE7FFE7FFE7FFE7CC
:102CA000BDF83810BDF83E000844ADF83E0050E6CF
:102CB00040F2A060C2F20000402112F0D1FEFFE716
:102CC0000020069040F27C50C2F2000001680968C2
:102CD00006910068406806900698FFE7FFE700202D
:102CE000059040F27C50C2F200000168096805912D
:102CF0000068406805900598FFE7FFE70020049012
:102D000040F27C50C2F2000001680968049100683A
:102D1000406804900498FFE7FFE70020039040F22A
:102D20007C50C2F2000001680968039100684068A5
:102D300003900398FFE740F27C50C2F2000090F845
:102D40004200202808D0FFE740F27C51C2F2000187
:102D5000202081F84200FFE740F27C50C2F20000E0
:102D6000019040F2A061C2F20001402211F070FC1B
:102D700001980168C86840F01000C860FFE710B013
:102D800080BD00BF2EFFE13D0000C8429A99993EE8
:102D90000000704284B00290ADF80610ADF8042037
:102DA000BDF80600ADF80200FFE7BDF802000130F3
:102DB000BDF8041088421BDAFFE70298BDF8021044
:102DC000405CAA280DD1FFE70299BDF80200084433
:102DD0004078552805D1FFE7BDF80200ADF80E0098
:102DE0000BE0FFE7BDF802000130ADF80200DCE7C0
:102DF0004FF6FF70ADF80E00FFE7BDF90E0004B00E
:102E0000704700BF80B586B0DDF824C0DDF820C073
:102E1000ADF81600ADF81410ADF812208DF8113091
:102E200040F22070C2F20000007808B1FFE765E0D0
:102E300040F20071C2F200010191AA2008705520F1
:102E400048700322084600F8022F00901320C87033
:102E5000BDF8160008719DF817004871BDF8140000
:102E600088719DF81500C871BDF8120008729DF8B0
:102E7000130048729DF8110088720898C87208986B
:102E8000000A0873BDF8220048739DF82300887378
:102E90000998C8730998000A0874BDF82600487498
:102EA0009DF82700887407F0A9FD019A0146009853
:102EB00003910399D1740399090A1175BDF80E1095
:102EC00051759DF80F1091751521FFF7C3FC0199FD
:102ED000ADF80A009DF80B00C875BDF80A00087629
:102EE00040F22072C2F200020120107040F27C50C9
:102EF000C2F20000192210F0EDFEFFE706B080BD1F
:102F000081B00090009840F27C51C2F200018842EA
:102F100007D1FFE740F22071C2F2000100200870E3
:102F2000FFE701B07047000080B582B001900198C2
:102F3000006841F20001C4F20101884201D0FFE7BC
:102F40006CE040F29E10C2F2000000788DF80300A1
:102F50009DF803000D2805D0FFE79DF803000A281F
:102F60001CD1FFE740F25C10C2F20000007801289B
:102F700013DBFFE740F25C11C2F200010B7840F274
:102F80005D12C2F200020020D05440F29D13C2F242
:102F9000000301221A700870FFE733E09DF8030078
:102FA000082805D0FFE79DF803007F2811D1FFE72F
:102FB00040F25C10C2F200000078012808DBFFE755
:102FC00040F25C11C2F20001087801380870FFE796
:102FD00017E040F25C10C2F2000000783E280FDCDF
:102FE000FFE79DF8030040F25C13C2F200031A7879
:102FF000511C197040F25D11C2F200018854FFE7C4
:10300000FFE7FFE740F23450C2F2000040F29E11A9
:10301000C2F20001012210F0FFFDFFE702B080BD07
:1030200080B540F23450C2F2000040F29E11C2F26C
:103030000001012210F0F0FD48F2FF50C0F601003F
:1030400013F01CFE00F004F800F09CF880BD00BFF7
:1030500080B58CB007A806A905F004FF05F050FD67
:10306000049005F035FE039005F038FE029005F05F
:1030700047FE019043F60000C4F20200006880039E
:10308000002803D5FFE7012018B908E0012030B976
:10309000FFE748F28B50C0F60100059015E043F6BB
:1030A0000800C4F2020000684007002806D5FFE7C8
:1030B00048F2FB50C0F60100059005E048F2A2502E
:1030C000C0F601000590FFE7FFE747F6E270C0F6A3
:1030D000010013F0D3FD47F6E620C0F6010013F01F
:1030E000CDFD48F22310C0F6010013F0C7FD47F6EE
:1030F0005B30C0F6010013F0C1FD059948F2E330E2
:10310000C0F6010013F0BAFD04984DF68361C4F2D5
:103110001B310091A0FB0110810C48F23E50C0F61B
:10312000010013F0ABFD00990398A0FB0110810C86
:1031300048F2FF40C0F6010013F0A0FD009902988C
:10314000A0FB0110810C48F21450C0F6010013F0EE
:1031500095FD00990198A0FB0110810C48F22950BF
:10316000C0F6010013F08AFD47F60350C0F60100D7
:1031700013F084FD48F25000C0F6010013F07EFD0C
:103180000CB080BD80B548F21500C0F6010013F008
:1031900075FD47F6BA70C0F6010013F06FFD47F6F3
:1031A0001920C0F6010013F069FD47F64D20C0F666
:1031B000010013F063FD48F23240C0F6010013F045
:1031C0005DFD48F2D640C0F6010013F057FD47F60A
:1031D000A770C0F6010013F051FD47F68120C0F63C
:1031E000010013F04BFD48F23930C0F6010013F036
:1031F00045FD47F6CD70C0F6010013F03FFD48F2E3
:103200009B40C0F6010013F039FD48F28B30C0F648
:10321000010013F033FD47F65C70C0F6010013F0B7
:103220002DFD47F6F860C0F6010013F027FD47F6C4
:103230002B70C0F6010013F021FD47F6D770C0F6E1
:10324000010013F01BFD48F2BC30C0F6010013F082
:1032500015FD48F26C00C0F6010013F00FFD80BDB3
:1032600080B598B040F29D10C2F20000007808B915
:10327000FFE7D2E140F25D11C2F2000108A8009020
:103280003F2212F0F8FB009800218DF85F1040F209
:103290009D12C2F2000211700790FFE707980078B4
:1032A000202804D1FFE7079801300790F6E7079937
:1032B00048F22B40C0F6010013F0E0FC079847F6F7
:1032C000C011C0F60101042212F0E8FB50B1FFE783
:1032D000079848F24561C0F60101042212F0DEFBB6
:1032E00030BBFFE740F2EC61C2F200010020086051
:1032F00040F2F061C2F20001086040F2EC50C2F20C
:10330000000001F0C3FB40F24060C2F2000001F097
:10331000BDFBFEF731FF40F21810C2F2000002F0D0
:1033200081FC47F68050C0F6010013F0A7FC74E161
:10333000079848F27151C0F60101032212F0AEFB6A
:1033400050B1FFE7079848F28151C0F6010103220E
:1033500012F0A4FBA8BBFFE7002006900590079899
:10336000033048F22261C0F6010106AA05AB12F053
:10337000A5FB02281DD1FFE79DED060AB8EEC00AA5
:1033800040F2EC60C2F2000080ED000A9DED050AFB
:10339000B8EEC00A40F2F060C2F2000080ED000A10
:1033A0000699059A48F21320C0F6010013F066FC56
:1033B00006E048F29000C0F6010013F05FFCFFE762
:1033C0002AE1079848F2F651C0F60101042212F0F2
:1033D00065FB50B1FFE7079848F22861C0F601018C
:1033E000042212F05BFB28B9FFE70798043000F0D5
:1033F00017F910E1079848F27551C0F6010105224E
:1034000012F04CFB50B1FFE7079848F28551C0F627
:103410000101052212F042FBE8B9FFE70020049009
:1034200003900798053048F22261C0F6010104AA12
:1034300003AB12F043FB022805D1FFE70498039980
:1034400000F040FA06E048F2BF00C0F6010013F0B9
:1034500015FCFFE7DEE0079848F26B51C0F601016A
:10346000052212F01BFB50B1FFE7079848F27B5191
:10347000C0F60101052212F011FB28B9FFE70798F9
:10348000053000F087FAC4E0079800784C2805D092
:10349000FFE7079800786C2828D1FFE7002002900A
:1034A0000798013048F22561C0F6010102AA12F026
:1034B00005FB012812D1FFE79DED020AB8EEC00A14
:1034C00040F2EC60C2F2000080ED000A029948F27E
:1034D000A310C0F6010013F0D1FB06E047F6B720B9
:1034E000C0F6010013F0CAFBFFE791E007980078EF
:1034F000522805D0FFE707980078722828D1FFE707
:10350000002001900798013048F22561C0F60101C2
:1035100001AA12F0D3FA012812D1FFE79DED010AAA
:10352000B8EEC00A40F2F060C2F2000080ED000A7E
:10353000019948F2BD10C0F6010013F09FFB06E0B0
:1035400047F6E910C0F6010013F098FBFFE75EE0D4
:10355000079848F21161C0F60101062212F09EFAA6
:1035600050B1FFE7079848F24A61C0F60101062210
:1035700012F094FA18B9FFE700F0C8FA46E007988D
:1035800048F20761C0F60101042212F087FA50B137
:10359000FFE7079848F23B61C0F60101042212F0F0
:1035A0007DFA18B9FFE7FFF753FD2EE0079848F2C0
:1035B0000C61C0F60101042212F070FAA0B1FFE71D
:1035C000079848F24061C0F60101042212F066FA41
:1035D00050B1FFE7079848F2F051C0F6010101220F
:1035E00012F05CFA18B9FFE7FFF7CCFD0CE0079882
:1035F00012F04DFA38B1FFE747F68260C0F60100DD
:1036000013F03CFBFFE7FFE7FFE7FFE7FFE7FFE71C
:10361000FFE7FFE7FFE7FFE7FFE718B080BD00BF68
:1036200080B58AB00990FFE709980078202804D176
:10363000FFE7099801300990F6E7099847F6C011AD
:10364000C0F60101042212F029FA50B1FFE70998EF
:1036500048F24561C0F60101042212F01FFAE8B9F0
:10366000FFE740F2B800C2F2000002F0B7F868B11C
:10367000FFE740F2B800C2F2000002F05FF947F63F
:103680003E60C0F6010013F0F9FA06E047F65C6010
:10369000C0F6010013F0F2FAFFE70CE140F2B800C7
:1036A000C2F2000002F09AF878B1FFE740F2B800E9
:1036B000C2F20000007802F0C3F8014647F6B1609C
:1036C000C0F6010013F0DAFAF5E0002008904FF0A0
:1036D0007E500790099848F22D61C0F6010108AAB2
:1036E00007AB12F0EBF906900698012804DBFFE720
:1036F000089800281FDCFFE748F26D10C0F60100B3
:1037000013F0BCFA47F6D330C0F6010013F0B6FA56
:1037100047F67040C0F6010013F0B0FA47F63340A8
:10372000C0F6010013F0AAFA48F25E30C0F60100BC
:1037300013F0A4FABFE09DED080AB8EEC00A9FEDB1
:103740005F1A20EE010A8DED050A9DED050AB0EE27
:10375000001AB4EE410AF1EE10FA03DAFFE7002096
:1037600004901EE09DED050AB2EE0E1AB4EE410A79
:10377000F1EE10FA03DAFFE70120049010E09DED6E
:10378000050A9FED4F1AB4EE410AF1EE10FA03DA82
:10379000FFE70220049002E003200490FFE7FFE728
:1037A000FFE740F2EC61C2F200010020086040F245
:1037B000F061C2F20001086040F2EC50C2F2000079
:1037C00001F064F940F24060C2F2000001F05EF9DD
:1037D000FEF7D2FC40F21810C2F2000002F022FA0A
:1037E00047F61D60C0F6010013F048FA08980290F1
:1037F000059812F0B7F90A46029942EC100B53EC07
:10380000102B48F26E40C0F6010013F037FA04980E
:10381000039030B9FFE747F6C010C0F601000190F1
:103820001AE00498012806D1FFE748F21860C0F6B4
:10383000010000900DE0049A48F2F251C0F6010137
:1038400047F6BB10C0F60100022A08BF08460090E8
:10385000FFE700980190FFE70399019A47F6675048
:10386000C0F6010013F00AFA079812F07BF941EC58
:10387000100B53EC102B48F2A820C0F6010013F0F7
:10388000FDF947F6AD50C0F6010013F0F7F99DEDD4
:10389000050A0499DDED070A40F2B800C2F2000003
:1038A00001F026F938B9FFE747F6EF50C0F60100FE
:1038B00013F0E4F9FFE70AB080BD00BF2EFFE13D41
:1038C0000000704210B58AB0099008910998ADF8CF
:1038D00014000898ADF81200AA208DF816005520A3
:1038E0008DF817000DF116000390023081218DF83C
:1038F000181004218DF81910BDF814108DF81A1045
:103900009DF815108DF81B10BDF812108DF81C10C5
:103910009DF813108DF81D100621FEF79BFF014640
:103920000398ADF810109DF811108DF81E10BDF819
:1039300010108DF81F100A2100F08EFB47F67F70E3
:10394000C0F6010013F09AF99DF81A109DF81B209B
:103950009DF81C309DF81D009DF81EE09DF81F404D
:10396000EC46CCF80840CCF804E0CCF8000048F273
:103970003810C0F6010013F081F9BDF91410BDF93B
:10398000122048F22F20C0F6010013F077F90AB098
:1039900010BD00BF80B5AAB029900020ADF822006C
:1039A0008DF82000ADF81E00FFE729980078202848
:1039B00004D1FFE7299801302990F6E7299806906D
:1039C000FFE7069801780020029041B1FFE7BDF8BB
:1039D00022100020802938BF01200290FFE70298C2
:1039E000C007002840D0FFE7FFE7069800782028AE
:1039F00004D1FFE7069801300690F6E706980078B4
:103A000008B9FFE730E00698411C069100788DF870
:103A10001E000698007808B9FFE725E00698411CCB
:103A2000069100788DF81F000DF11E00019005A988
:103A3000102212F05FF80199049005980231884233
:103A400009D0FFE748F20C40C0F601000DF11E015D
:103A500013F014F957E00498BDF82220511CADF87A
:103A6000221009A98854ACE7BDF8220038B9FFE755
:103A700048F2F000C0F6010013F000F943E0BDF891
:103A8000221009A800F0E8FABDF8221048F2D3503D
:103A9000C0F6010013F0F2F800200390FFE703994D
:103AA000BDF8222000209142009007DAFFE7039939
:103AB00000202029B8BF01200090FFE70098C00730
:103AC00070B1FFE7039909A8415C48F21C60C0F699
:103AD000010013F0D3F8FFE7039801300390DEE70D
:103AE000BDF82200212807DBFFE748F2CE50C0F6E0
:103AF000010013F0C3F8FFE748F25050C0F6010090
:103B000013F0BCF8FFE72AB080BD00BF80B5CCB091
:103B100047F6FE70C0F6010013F0B0F840F2EC601A
:103B2000C2F20000006812F01DF841EC100B8DEDA0
:103B3000460B40F2F060C2F20000006812F012F88A
:103B40009DED460B41EC110B684680ED001B53ECDC
:103B5000102B48F28C20C0F6010013F08FF840F2D1
:103B6000E460C2F200004990016840F2E860C2F2ED
:103B70000000026848F25350C0F6010013F07EF8CE
:103B80004998006830BBFFE740F2E860C2F20000ED
:103B90000068F8B9FFE740F2EC60C2F2000090ED77
:103BA000000AB5EE400AF1EE10FA0CD1FFE740F240
:103BB000F060C2F2000090ED000AB5EE400AF1EEAE
:103BC00010FA07D0FFE747F6C510C0F6010013F062
:103BD00055F806E048F25050C0F6010013F04EF8D8
:103BE000FFE740F2E050C2F20000006811F0BAFFB7
:103BF00041EC100B8DED2A0B40F2E450C2F20000B4
:103C0000006811F0AFFF9DED2A0B41EC110B6846E7
:103C100080ED001B53EC102B47F60D30C0F6010071
:103C200013F02CF840F2A010C2F20000006811F06E
:103C300099FF41EC100B8DED2C0B40F2A410C2F259
:103C40000000006811F08EFF9DED2C0B41EC110B74
:103C5000684680ED001B53EC102B47F67C30C0F615
:103C6000010013F00BF840F2EC50C2F2000031906A
:103C7000C06A11F077FF41EC100B8DED2E0B40F276
:103C80004060C2F200003290C06A11F06BFF9DEDFF
:103C90002E0B41EC110B684680ED001B53EC102BF2
:103CA00047F6AB30C0F6010012F0E8FF3198806CA7
:103CB00011F058FF0246329833920A46339942EC8B
:103CC000101B8DED340B806C11F04CFF9DED340B0F
:103CD00041EC110B684680ED001B53EC102B47F6AE
:103CE0003430C0F6010012F0C9FFFEF781FC3790B6
:103CF000FEF784FC3799024647F63450C0F60100BF
:103D000012F0BCFF40F21811C2F2000141910869A3
:103D10008A6A3892C96A3A9111F024FF02463898AB
:103D200039920A46399942EC101B8DED3E0B11F089
:103D300019FF02463A983B920A463B9942EC101B07
:103D40008DED3C0B11F00EFF9DED3C1B9DED3E0BF0
:103D50000246419842920A46429942EC121B418E19
:103D6000828EC38E684683614261016180ED022BC1
:103D700080ED001B53EC102B48F2D810C0F6010068
:103D800012F07CFF40F21410C2F2000090ED000A25
:103D90008DED430A10EE100A11F0E4FE9DED430A8A
:103DA00041EC110B8DED441BB2EE001AB4EE410A4A
:103DB000F1EE10FA09DDFFE740F21410C2F2000044
:103DC00090ED000A8DED290A04E09FEDA20A8DED29
:103DD000290AFFE79DED291A9FED9E0A80EE010A50
:103DE00010EE100A11F0BEFE9DED440B41EC110BDC
:103DF000684680ED001B53EC102B47F6AF40C0F631
:103E0000010012F03BFF06F0F9FD014648F25A406E
:103E1000C0F6010012F032FF40F23450C2F200004E
:103E2000416847F60E40C0F6010012F027FF40F24D
:103E30007C50C2F20000416847F6D740C0F601004E
:103E400012F01CFF40F2B800C2F2000001F0C6FC04
:103E500018B3FFE740F2B800C2F2000026900078E5
:103E600001F0EEFC269928908868096B279111F0E3
:103E700079FE024627980B46289943EC102B00EB5D
:103E8000D07040106A46106053EC102B48F24B2063
:103E9000C0F6010012F0F2FE69E040F2B800C2F292
:103EA00000000078062835D1FFE740F2B801C2F2E1
:103EB0000001C86C0A6D1E92496D209111F052FEEE
:103EC00002461E981F920A461F9942EC101B8DED68
:103ED000240B11F047FE0246209821920A462199B0
:103EE00042EC101B8DED220B11F03CFE9DED221BD0
:103EF0009DED240B41EC120B684680ED022B80ED0A
:103F0000001B53EC102B48F20D30C0F6010012F0EC
:103F1000B5FE2BE040F2B800C2F20000007807289E
:103F20001CD1FFE740F2B800C2F20000806D38B14A
:103F3000FFE740F2B800C2F20000806D1D9005E07E
:103F400048F23360C0F601001D90FFE71D9948F26A
:103F5000F330C0F6010012F091FE06E048F279203D
:103F6000C0F6010012F08AFEFFE7FFE7FFE700203E
:103F70004B90FFE74B98032864DCFFE74B9800F079
:103F80006DF94A904B981C904A99119108684A68BB
:103F90000B928A680D92C9680F9111F0E3FD0246F9
:103FA0000B980C920A460C9942EC101B8DED1A0BE3
:103FB00011F0D8FD02460D980E920A460E9942EC79
:103FC000101B8DED180B11F0CDFD02460F981092CD
:103FD0000A46109942EC101B8DED160B11F0C2FD34
:103FE0000246119812920A46129942EC101B8DED6E
:103FF000140B018A1391406911F0B4FD139A9DEDE1
:10400000143B9DED162B9DED181B9DED1A0B0B46D9
:104010001C9943EC140B684680ED084B826180EDDF
:10402000043B80ED022B80ED001B53EC102B48F27B
:10403000CA20C0F6010012F021FEFFE74B980130C4
:104040004B9097E748F23900C0F6010012F016FED7
:104050004CB080BD9A99494180B582B00190ADF8CD
:1040600002100199BDF8022040F27C50C2F200001B
:1040700064230FF0F1FB02B080BD000043F6300175
:10408000C4F20201086840F001000860BFF34F8FDE
:104090000021C4F202010868012262F311400860A5
:1040A0000421C4F20201086820F48070086008212D
:1040B000C4F20201086820F4403008600C21C4F208
:1040C0000201086820F44030086070471421C4F2EF
:1040D0000201086880F480700860704781B043F680
:1040E0003001C4F20201086840F001000860BFF32B
:1040F0004F8F0021C4F202010868012262F31140CF
:1041000008600421C4F20201086820F4807008608D
:104110000821C4F20201086820F4403008600C2134
:10412000C4F20201086820F440300860FFE718215B
:10413000C4F202014FF48070086000200090FFE795
:10414000009848F27F41C0F21E01884206D8FFE77E
:1041500000BFFFE7009801300090F1E71821C4F29A
:1041600002014FF08070086000200090FFE7009887
:1041700048F27F41C0F21E01884206D8FFE700BF27
:10418000FFE7009801300090F1E7D0E781B043F6F7
:104190003001C4F20201086840F00100086043F6F3
:1041A0004401C4F20201086840F010000860BFF347
:1041B0004F8F0021C4F202010868022262F393408B
:1041C00008602421C4F202010868072262F3071084
:1041D00008600821C4F20201086840F44020086029
:1041E00041F20801C4F2010140F28260086041F22C
:1041F0000C01C4F2010142F20800086041F2100112
:10420000C4F201010020086041F21401C4F201016E
:104210000860FFE7FFE741F20000C4F20100006818
:104220000006002802D4FFE700BFF4E741F20401D2
:10423000C4F201015520086000200090FFE70098BB
:1042400048F27F41C0F21E01884206D8FFE700BF56
:10425000FFE7009801300090F1E7DBE781B00090C4
:104260000098B0F1FF3F03DCFFE700200090FFE77C
:104270000098042803DBFFE703200090FFE7009885
:1042800000EB400140F21400C2F2000000EBC1005C
:1042900001B0704782B000900098002804D4FFE776
:1042A0000098042803DBFFE7002001900AE0009853
:1042B00000EB400140F21400C2F2000000EBC1002C
:1042C0000190FFE7019802B0704700BF84B00390EF
:1042D0008DED020ACDED010A8DED001A02980399C9
:1042E00008600198039948600098039988600399D1
:1042F0000020C860039908610399486103998861A7
:104300000399C861039A0021C4F2C821116203997C
:104310004862039988620399C862039A4DF20A7150
:10432000C3F6A33111630399486303998863039922
:10433000C8630399086403994864039A4CF28F2177
:10434000C3F6F55191640399C8640399086504B0F4
:10435000704700BF80B598B017908DED160ACDED6F
:10436000150A9DED160A179890ED0F1AB0EE082A5F
:1043700031EE021AB4EE410AF1EE10FA0ADDFFE75F
:10438000179890ED0F0AB0EE081A30EE010A80ED92
:104390000F0A1DE09DED160A179890ED0F1AB8EE62
:1043A000082A31EE021AB4EE410AF1EE10FA0ADAE6
:1043B000FFE7179890ED0F0AB8EE081A30EE010AE1
:1043C00080ED0F0A03E016981799C863FFE7FFE72F
:1043D0009DED160AB5EE400AF1EE10FA09DDFFE791
:1043E000179890ED030AB5EE400AF1EE10FA11DBD2
:1043F000FFE79DED160AB5EE400AF1EE10FA0FDA6E
:10440000FFE7179890ED030AB5EE400AF1EE10FAB7
:1044100006DDFFE71799002088611799C863FFE759
:104420009DED160AB6EE001AB4EE410AF1EE10FA4E
:1044300017DAFFE79DED160ABEEE001AB4EE410A48
:10444000F1EE10FA0DDDFFE7179890ED060A9FEDEB
:10445000E21A20EE010A80ED060A17990020C863CF
:10446000FFE716981799C86015981799086117986B
:1044700090ED0F0AB5EE400AF1EE10FA06DBFFE709
:10448000179890ED0F0A8DED030A07E0179890ED4D
:104490000F0AB1EE400A8DED030AFFE79DED030A16
:1044A0008DED140A9DED140A1798406C00F086FA01
:1044B000179988631799886B48641798806B00EB8D
:1044C000400140F21400C2F2000000EBC100139062
:1044D0001398006817990860139840681799486006
:1044E00013988068179988601398C06817990862B4
:1044F000179890ED0F0A9DED151A30EE410A80EDE8
:10450000050A179890ED050AB5EE400AF1EE10FA8B
:1045100006DBFFE7179890ED050A8DED020A07E02C
:10452000179890ED050AB1EE400A8DED020AFFE7FB
:104530009DED020A8DED120A179890ED000A90ED9C
:10454000051A20EE010A8DED110A9DED120A179849
:1045500090ED081AB4EE410AF1EE10FA0ADAFFE71C
:10456000179890ED051A90ED060A30EE010A80EDDD
:10457000060AFFE7179890ED010A90ED061A20EE63
:10458000010A8DED100A9DED100A9FED941AB4EE0C
:10459000410AF1EE10FA06DDFFE74CF20000C4F22A
:1045A00079401090FFE79DED100A9FED8D1AB4EE53
:1045B000410AF1EE10FA06DAFFE74CF20000CCF205
:1045C00079401090FFE7179890ED020A90ED091AD4
:1045D0009DED152A31EE421A20EE010A8DED0F0AEB
:1045E00000200E90179890ED0F0AB6EE001AB4EE68
:1045F000410AF1EE10FA04DDFFE71798C06A0E9049
:1046000013E0179890ED0F0ABEEE001AB4EE410ABF
:10461000F1EE10FA08DAFFE7179890ED0B0AB1EE09
:10462000400A8DED0E0AFFE7FFE700200D90179876
:1046300090ED120A9FEDDE1AB4EE410AF1EE10FA87
:1046400013DDFFE7179890ED0F0A90ED101A30EE8A
:10465000410A8DED0C0A179890ED120A9DED0C1A87
:1046600020EE010A8DED0D0AFFE700200B90179850
:1046700090ED100AB5EE400AF1EE10FA06DBFFE706
:10468000179890ED100A8DED010A07E0179890ED4C
:10469000100AB1EE400A8DED010AFFE79DED010A17
:1046A0008DED0A0A9DED0A0AB6EE001AB4EE410A33
:1046B000F1EE10FA29DAFFE79DED140AB6EE001AC2
:1046C000B4EE410AF1EE10FA1FDBFFE7179890ED08
:1046D0000B0AB1EE041AB4EE410AF1EE10FA0ADD4B
:1046E000FFE7179890ED0B0A9FEDB21A20EE010A32
:1046F00080ED130A05E017990020C4F2F010C86499
:10470000FFE7179914200865FFE71798006D012847
:104710002DDBFFE7179890ED140AB8EEC00AB3EE50
:10472000041A80EE010A8DED090A179890ED0F2A00
:10473000B7EE001ABFEE000AB5EE402AF1EE10FA0D
:10474000A8BFB0EE410A8DED080A9DED080A179842
:1047500090ED131A20EE010A9DED091A20EE010AD0
:104760008DED0B0A1799086D01380865FFE70020E9
:10477000C4F2A00007909DED140AB3EE0E1AB4EE39
:10478000410AF1EE10FA09DDFFE79DED140A9FEDF5
:104790008A1A20EE010A8DED070A13E09DED140A36
:1047A000B2EE041AB4EE410AF1EE10FA09DDFFE7A9
:1047B0009DED140AB5EE001A20EE010A8DED070AF0
:1047C000FFE7FFE79DED120A9DED071AB4EE410ADF
:1047D000F1EE10FA62DA05E06666663F00C07944E1
:1047E00000C079C4179890ED0F0AB6EE001AB4EE27
:1047F000410AF1EE10FA0BDCFFE7179890ED0F0A73
:10480000BEEE001AB4EE410AF1EE10FA46DAFFE706
:104810001799486B013048631798406B1E283CDBA2
:10482000FFE79DED100A9DED0E1A30EE010A8DEDA9
:10483000060A179890ED0F0AB5EE400AF1EE10FA4D
:1048400005DDFFE79DED060A8DED000A06E09DED12
:10485000060AB1EE400A8DED000AFFE79DED000A61
:104860008DED050A9DED050AB5EE400AF1EE10FA50
:1048700003DAFFE700200590FFE7179890ED0B1A89
:1048800090ED0C0A9DED052A32EE412A20EE020A37
:1048900030EE010A80ED0B0AFFE703E017990020D4
:1048A0004863FFE79DED110A9DED101A30EE010AF5
:1048B0009DED0F1A30EE010A9DED0E1A30EE010A41
:1048C0009DED0D1A30EE010A9DED0B1A30EE010A36
:1048D0008DED040A9DED040A9FED331AB4EE410AF2
:1048E000F1EE10FA06DDFFE74CF20000C4F2794069
:1048F0000490FFE79DED040A9FED2C1AB4EE410AE7
:10490000F1EE10FA06DAFFE74CF20000CCF2794043
:104910000490FFE79DED040A9FED231AB4EE410ACF
:10492000F1EE10FA09DBFFE7179890ED050AB5EEF6
:10493000400AF1EE10FA13DCFFE79DED040A9FED4B
:104940001B1AB4EE410AF1EE10FA1FDCFFE71798CC
:1049500090ED050AB5EE400AF1EE10FA16DAFFE71F
:104960009DED120A179890ED081AB4EE410AF1EE87
:1049700010FA0ADAFFE7179890ED051A90ED060A8B
:1049800030EE410A80ED060AFFE7FFE71598179918
:1049900048621799C86B08640498179988629DED5E
:1049A000040A18B080BD00BF00C0794400C079C4BB
:1049B0006F12833A9A99193F9A99193E86B08DEDF4
:1049C000040A03904FF0804002900020C4F270105F
:1049D00001900020C4F2702000900398032809D1B0
:1049E000FFE79DED000A9FED281A20EE010A8DEDEC
:1049F000000A1BE00398022809D1FFE79DED010A98
:104A00009FED211A20EE010A8DED010A0DE00398B9
:104A1000012809D1FFE79DED020A9FED1B1A20EE48
:104A2000010A8DED020AFFE7FFE7FFE79DED040AAB
:104A30009DED021AB4EE410AF1EE10FA03DAFFE737
:104A4000002005901CE09DED040A9DED011AB4EED6
:104A5000410AF1EE10FA03DAFFE7012005900FE0BA
:104A60009DED040A9DED001AB4EE410AF1EE10FA34
:104A700003DAFFE70220059002E003200590FFE73C
:104A8000059806B0704700BF3333333F81B00090C4
:104A90000099002048610099886100994862009956
:104AA0008862009948630099C86300990864009976
:104AB0008863009948640099086501B07047000058
:104AC00082B0019000200090FFE700985B2809D891
:104AD000FFE70199009A00208854FFE70098013011
:104AE0000090F2E701990020087002B0704700BF03
:104AF00080B598B016908DED150A1491CDED130A7E
:104B00001698007868B1FFE716980078062808D054
:104B1000FFE716980078072803D0FFE700201790DA
:104B2000EDE01498B0F1FF3F03DCFFE700201490A4
:104B3000FFE71498042803DBFFE703201490FFE746
:104B40009DED130A9FED6F1AB4EE410AF1EE10FAD3
:104B500006DAFFE749F69A10C3F699601390FFE76B
:104B60009DED130AB0EE001AB4EE410AF1EE10FA10
:104B700004DDFFE74FF080401390FFE79DED150A3D
:104B8000B5EE400AF1EE10FA05DBFFE79DED150AE0
:104B90008DED110A06E09DED150AB1EE400A8DED8E
:104BA000110AFFE79DED110A8DED120A9DED120A23
:104BB000B6EE001AB4EE410AF1EE10FA04DAFFE79D
:104BC0004FF07C501290FFE7129816998860149865
:104BD000169948611398169988619DED120A1498E8
:104BE00000F098F8169988819DED120A00F0DEF821
:104BF000169880ED040A169900200790C86116994E
:104C0000086216994862169981F828001699C862B8
:104C10001699086316994863169988639DED150ADD
:104C20004FF0FF31B5EE400AF1EE10FAA8BF0121B6
:104C3000169A82F83C101699C8871699A1F8400078
:104C400016998864169948641699486516990865F6
:104C50001699C864169988651699012010900870F5
:104C600005F0CCFE169948609DED120A8DED080AFC
:104C700010EE100A10F076FF9DED080A41EC110BC2
:104C80008DED0C1B9FED201A20EE010A9FED1F1ADF
:104C900080EE010A9FED1E1A80EE010A10EE100A46
:104CA00010F060FF41EC100B8DED0A0B14980F9083
:104CB000169880890990139810F054FF099A9DED79
:104CC0000A1B9DED0C0B0B460F9943EC120B68462B
:104CD00080ED042BC260816080ED001B53EC102B33
:104CE00048F6FF00C0F6010011F0C8FF48F26870F6
:104CF000C0F6010011F0C2FF10981790FFE7179857
:104D000018B080BD9A99993E0050C347006C2C465C
:104D100000007A4484B003A900910146009880ED18
:104D2000000A029190ED000AB1EE041AB4EE410AB5
:104D3000F1EE10FA04DAFFE77820ADF8060024E07F
:104D4000009890ED000AB2EE0E1AB4EE410AF1EEB0
:104D500010FA04DAFFE7B420ADF8060014E000987A
:104D600090ED000A9FED101AB4EE410AF1EE10FA30
:104D700004DAFFE7FA20ADF8060004E04FF4AF7064
:104D8000ADF80600FFE7FFE7FFE7BDF80600B0F566
:104D9000FA7F05DDFFE74FF4FA70ADF80600FFE794
:104DA000BDF8060004B070470000704282B08DED7F
:104DB000010A9DED010A9FED131A20EE010A8DED07
:104DC000000A9DED000AB7EE081AB4EE410AF1EEB2
:104DD00010FA04DAFFE74FF07F500090FFE79DEDF7
:104DE000000AB3EE041AB4EE410AF1EE10FA05DD42
:104DF000FFE70020C4F2A0100090FFE79DED000A3D
:104E000002B07047CDCCCC3D80B5A0B01E908DEDEA
:104E10001D0A1E98007850B1FFE71E9800780628FA
:104E200005D0FFE71E980078072804D1FFE700208F
:104E30001F9000F097BC05F0E1FD1C901C981E9996
:104E40004968401A1B901B984CF6CD41CCF6CC41DA
:104E5000A0FB0110C0081A909DED1D0A1E9890ED50
:104E6000021A30EE410A8DED190A9DED190A1E98BD
:104E700090ED041AB4EE410AF1EE10FA03DDFFE7FB
:104E800001200D9010E09DED190A1E9890ED041A76
:104E9000B1EE411A0020B4EE410AF1EE10FAB8BFAB
:104EA0004FF0FF300D90FFE70D988DF863001E98CE
:104EB0000078013801460C91042800F24D840C99C9
:104EC000DFE811F005004A047000860179021E989F
:104ED00090ED021A90ED070AB8EE082A31EE021A98
:104EE000B4EE410AF1EE10FA0ADAFFE71E9890EDEF
:104EF000070AB0EE081A30EE010A80ED070A03E057
:104F00001E998868C861FFE71E99888991F93C104D
:104F10004843ADF86000BDF860001E99C887BDF831
:104F200060001E99A1F840009DED1D0A1E9890EDAD
:104F3000021AB4EE410AF1EE10FA1ADBFFE71E99ED
:104F4000032008701C981E9948601D981E990862DD
:104F50001D981E9948621E99002081F828001E990C
:104F6000086348F2E960C0F60100022111F086FEF4
:104F700017E01A98B0F5967F12D9FFE71E9907201F
:104F800008701E9948F60420C0F6010088651E9836
:104F9000816D48F6B510C0F6010011F06FFEFFE715
:104FA000FFE7DAE39DED1D0A1E9890ED021A90EDE1
:104FB000042A31EE021AB4EE410AF1EE10FA0CDDC9
:104FC000FFE71E998889404291F93C205043C887E9
:104FD0001E99C88FA1F840001AE09DED1D0A1E9889
:104FE00090ED021A90ED042A31EE421AB4EE410A15
:104FF000F1EE10FA0BDAFFE71E99888991F93C204F
:105000005043C8871E99C88FA1F84000FFE7FFE70B
:105010009DED190AB5EE400AF1EE10FA0FDDFFE73B
:105020009DED1D0A1E9890ED081AB4EE410AF1EEAE
:1050300010FA04DDFFE71D981E990862FFE79DED59
:10504000190AB5EE400AF1EE10FA0FDAFFE79DED0E
:105050001D0A1E9890ED091AB4EE410AF1EE10FAFD
:1050600004DAFFE71D981E994862FFE79DF9630087
:10507000002873D0FFE79DF963001E9991F928106D
:1050800088426BD0FFE71E9890F92800002865D071
:10509000FFE71E99086B013008631E98006B052816
:1050A0004FDBFFE71E9890F83000C00700283ED184
:1050B000FFE71C981E99C96A401A4CF6CD41CCF600
:1050C000CC41A0FB0110C0081790179818B9FFE752
:1050D00001201790FFE71E9890ED080A90ED091A3D
:1050E00030EE410A8DED160A9DED160AB6EE001A55
:1050F000B4EE410AF1EE10FA04DAFFE74FF07C500B
:105100001690FFE79DED170AB8EE401A1E9890ED35
:105110000D0A30EE010A80ED0D0A9DED161A1E985B
:1051200090ED0E0A30EE010A80ED0E0AFFE71D98A1
:105130001E9908621D981E9948621C981E99C862A3
:10514000FFE71E98006B102807DBFFE71E9905207C
:1051500008701C981E994860FFE7FFE79DF8630000
:105160001E9981F828001E98006B042813DBFFE7C6
:105170001E98007803280ED1FFE71E9904200870BE
:105180001C981E99486048F22E70C0F60100062156
:1051900011F074FDFFE71A98B0F5FA7F17D9FFE711
:1051A0001E98006B032812DCFFE71E990720087089
:1051B0001E9948F62B20C0F6010088651E98816D67
:1051C00048F6B510C0F6010011F058FDFFE7C4E243
:1051D0009DED1D0A1E9890ED021A90ED042A31EE05
:1051E000021AB4EE410AF1EE10FA0CDDFFE71E9947
:1051F0008889404291F93C205043C8871E99C88F46
:10520000A1F840001AE09DED1D0A1E9890ED021ACB
:1052100090ED042A31EE421AB4EE410AF1EE10FA92
:105220000BDAFFE71E99888991F93C205043C88723
:105230001E99C88FA1F84000FFE7FFE79DED190A0E
:10524000B5EE400AF1EE10FA0FDDFFE79DED1D0A05
:105250001E9890ED081AB4EE410AF1EE10FA04DD42
:10526000FFE71D981E990862FFE79DED190AB5EE4C
:10527000400AF1EE10FA0FDAFFE79DED1D0A1E98C5
:1052800090ED091AB4EE410AF1EE10FA04DAFFE7E4
:105290001D981E994862FFE79DF9630000286DD0B4
:1052A000FFE79DF963001E9991F92810884265D0A7
:1052B000FFE71E9890F9280000285FD0FFE71E99AD
:1052C000086B013008631E9890F83000C007002872
:1052D0003ED1FFE71C981E99C96A401A4CF6CD4191
:1052E000CCF6CC41A0FB0110C0081590159818B958
:1052F000FFE701201590FFE71E9890ED080A90ED5A
:10530000091A30EE410A8DED140A9DED140AB6EE2D
:10531000001AB4EE410AF1EE10FA04DAFFE74FF09A
:105320007C501490FFE79DED150AB8EE401A1E98C8
:1053300090ED0D0A30EE010A80ED0D0A9DED141A74
:105340001E9890ED0E0A30EE010A80ED0E0AFFE77E
:105350001D981E9908621D981E9948621C981E99F6
:10536000C8621E98006B102807DBFFE71E99052016
:1053700008701C981E994860FFE7FFE79DF86300DE
:105380001E9981F828001A98B0F5487F12D9FFE7D6
:105390001E99072008701E9948F65820C0F6010093
:1053A00088651E98816D48F6B510C0F6010011F0B1
:1053B00065FCFFE7D1E1062013901E9890ED0D0AE1
:1053C0009DED131AB8EEC11A80EE010A8DED120A96
:1053D0001E9890ED0E0A9DED131AB8EEC11A80EEDC
:1053E000010A8DED110A9DED120AB7EE001AB4EE16
:1053F000410AF1EE10FA04DAFFE74FF07E50129006
:10540000FFE79DED110AB7EE001AB4EE410AF1EE86
:1054100010FA04DAFFE74FF07E501190FFE79DEDA0
:10542000110AB6EE001A20EE010A8DED100A1E9840
:10543000818900EE101AB8EE400AB1EE001A20EE93
:10544000010A9DED101A9FEDC92A21EE021A80EE85
:10545000010A80ED110A12981E9988641E9890ED39
:10546000120AB1EE081AB4EE410AF1EE10FA17DA98
:10547000FFE71E98806C10F075FB41EC100B69463D
:105480003C20086053EC102B48F29C70C0F60100E1
:1054900011F0F4FB1E990020C4F2C0008864FFE7FD
:1054A0001E9880690F909DED0F0A9FEDB11A20EEB6
:1054B000010A1E9890ED111A20EE010A80ED130AE0
:1054C0009DED0F0A9FEDAB1A20EE010A1E9890ED9C
:1054D000112A90ED121A20EE020A80EE010A80EDE8
:1054E000140A9DED0F0A9FEDA41A20EE010A1E98E2
:1054F00090ED112A90ED121A20EE020A20EE010A18
:1055000080ED150A1E9890ED130ADFED9C0AB2EEAD
:10551000001A00F03BF91E9880ED130A1E9890EDDA
:10552000140ADFED970ACDED0B0AB0EE001A00F079
:105530002DF9DDED0B0A1E9880ED140A1E9890EDF2
:10554000150AB7EE081A00F021F91E9880ED150A29
:105550001E984069FEF79EFE0E900E98002846D0D9
:10556000FFE71E98C06C0E9908601E98006D0E999A
:1055700048601E98406D0E9988601E9890ED020A52
:105580009FED801A20EE010A0E9880ED030A1E9806
:10559000808940080E9908821E98406928B9FFE763
:1055A0009FED790A8DED0A0A1BE01E9840690128DB
:1055B00005D1FFE79FED710A8DED090A0CE01E98F9
:1055C00040699FED701AB6EE000A022808BFB0EEDF
:1055D000410A8DED090AFFE79DED090A8DED0A0AE2
:1055E000FFE79DED0A0A0E9880ED050AFFE748F6F1
:1055F0006800C0F6010011F041FB1E98818948F651
:105600009500C0F6010011F039FB119810F0AAFACC
:1056100041EC100B8DED020B109810F0A3FA9DEDEC
:10562000020B41EC110B684680ED001B53EC102B74
:1056300048F28160C0F6010011F020FB1E9890ED49
:10564000120A8DED050A10EE100A10F08BFA9DED8E
:10565000050A41EC110B8DED061BB2EE041A20EE8B
:10566000010A10EE100A10F07DFA9DED060B41ECD8
:10567000110B684680ED001B53EC102B48F2BA600A
:10568000C0F6010011F0FAFA1E98406C10F06AFAA8
:1056900041EC100B53EC102B48F6B600C0F601009D
:1056A00011F0ECFA1E98C06C10F05CFA41EC100B93
:1056B00053EC102B48F69610C0F6010011F0DEFAFC
:1056C0001E98006D10F04EFA41EC100B53EC102BAD
:1056D00048F67710C0F6010011F0D0FA1E98406D20
:1056E00010F040FA41EC100B53EC102B48F6581018
:1056F000C0F6010011F0C2FA1E9890ED020A9FED6B
:10570000211A20EE010A10EE100A10F02BFA41ECDB
:10571000100B53EC102B48F6DF00C0F6010011F01F
:10572000ADFA1E98416948F63200C0F6010011F04A
:10573000A5FA48F25160C0F6010011F09FFA1E99D7
:10574000062008701C981E9948601E990020C88782
:105750001E99A1F8400000E0FFE71E9800F03EF817
:105760001F90FFE71F9820B080BD00BFDB0F4940AE
:105770009A99193F9A99993F9A99993D9A99993E80
:105780000AD7A33CCDCCCC3ECDCC4C3E84B08DEDE5
:10579000020ACDED010A8DED001A9DED020A9DED84
:1057A000011AB4EE410AF1EE10FA03DAFFE70198AC
:1057B00003900FE09DED020A9DED001AB4EE410A40
:1057C000F1EE10FA03DDFFE70098039002E0029883
:1057D0000390FFE79DED030A04B0704782B001908B
:1057E000019801780020009071B1FFE701980178DD
:1057F00000200629009007D0FFE7019800780738BD
:1058000018BF01200090FFE7009800F0010002B0EF
:10581000704700BF82B001900198017801200629ED
:10582000009008D0FFE7019800780738B0FA80F0C0
:1058300040090090FFE7009800F0010002B07047B7
:1058400083B08DF807009DF80700014600910728F6
:1058500036D80099DFE801F0040A10161C22282E21
:1058600048F6CC10C0F6010002902FE048F6E61092
:10587000C0F60100029029E048F6F810C0F60100D9
:10588000029023E048F6F210C0F6010002901DE0FD
:1058900048F6D610C0F60100029017E048F6DE1078
:1058A000C0F60100029011E048F6D110C0F60100E8
:1058B00002900BE048F6EC10C0F60100029005E003
:1058C00048F2F050C0F601000290FFE7029803B0E2
:1058D000704700BF84B0DDF814C0DDF810C003903D
:1058E000029101920093029828B1FFE70398C06CDF
:1058F00002990860FFE7019828B1FFE70398006D5F
:1059000001990860FFE7009828B1FFE70398406D10
:1059100000990860FFE7049828B1FFE70398406CFE
:1059200004990860FFE7059828B1FFE70398806CA9
:1059300005990860FFE704B0704700BF80B582B0EA
:10594000019048F61400C0F6010011F097F9019992
:10595000002008700199C8870199A1F8400002B0A1
:1059600080BD000087B006908DED050ACDED040ADC
:105970008DED031A0699002048610861C8608860AF
:10598000486008609DED050A9FED281AB4EE410AB3
:10599000F1EE10FA05DDFFE79DED050A8DED020A37
:1059A00004E09FED230A8DED020AFFE79DED020A58
:1059B000069880ED000A9DED040A9FED1C1AB4EED6
:1059C000410AF1EE10FA05DDFFE79DED040A8DEDC9
:1059D000010A04E09FED170A8DED010AFFE79DED36
:1059E000010A069880ED010A9DED030A9FED0F1A4A
:1059F000B4EE410AF1EE10FA05DDFFE79DED030A72
:105A00008DED000A04E09FED0C0A8DED000AFFE722
:105A10009DED000A069880ED020A06990020C860F4
:105A2000069908610699486107B070476F12833A7A
:105A30000AD7A33DCDCC4C3D6666663F87B0069045
:105A40008DED050ACDED040A9DED050A069890ED51
:105A5000041A30EE410A8DED030A069890ED000A13
:105A600090ED051A20EE010A8DED020A9DED030A64
:105A70009DED021A30EE410A8DED010A06989DED6A
:105A8000012A90ED010A90ED031A32EE412A20EE30
:105A9000020A30EE010A80ED030A069890ED030A2F
:105AA0009FED271AB4EE410AF1EE10FA06DDFFE78A
:105AB00006990020C4F2FA30C860FFE7069890ED1E
:105AC000030A9FED201AB4EE410AF1EE10FA06DA4D
:105AD000FFE706990020CCF2FA30C860FFE705988E
