:020000040800F2
:10000000800D002065020008657800083B7200083A
:100010002D770008FD360008358900080000000033
:10002000000000000000000000000000F57F000854
:10003000354E000800000000017D0008F77F000831
:100040007F0200087F0200087F0200087F0200088C
:100050007F0200087F0200087F0200087F0200087C
:100060007F0200087F0200087F0200087F0200086C
:100070007F0200087F0200087F0200087F0200085C
:10008000154C0008214C00087F0200087F02000880
:100090007F0200087F0200087F0200087F0200083C
:1000A0007F0200080D8000087F0200087F02000820
:1000B000198000087F0200087F0200087F02000804
:1000C0007F0200087F0200087F0200087F0200080C
:1000D0007F020008B1880008D98800087F02000864
:1000E0007F0200087F0200087F0200087F020008EC
:1000F0007F0200087F0200087F0200087F020008DC
:100100007F0200087F0200087F0200087F020008CB
:100110007F0200087F0200087F0200087F020008BB
:100120002D4C0008394C0008454C00087F0200089F
:100130007F0200087F0200087F0200087F0200089B
:100140007F0200087F0200087F0200087F0200088B
:100150007F0200087F0200087F0200087F0200087B
:100160007F0200087F0200087F0200087F0200086B
:100170007F0200087F0200087F02000800000000E4
:100180007F0200087F02000800F002F800F05BF830
:100190000AA090E8000C82448344AAF10107DA45E2
:1001A00001D100F050F8AFF2090EBAE80F0013F0D9
:1001B000010F18BFFB1A43F001031847589F0000B6
:1001C000789F0000103A24BF78C878C1FAD8520747
:1001D00024BF30C830C144BF04680C6070470000C1
:1001E0000023002400250026103A28BF78C1FBD840
:1001F000520728BF30C148BF0B607047662909F01D
:100200004B85642900F02281752900F01F8178292F
:1002100000F05881732900F0A986002070471FB5AF
:1002200009F02DFD01F0CCF904000020002109F0B7
:1002300097FA401C60600020002109F0A7FAE060F6
:100240001FBD10B510BD01F095FC1146FFF7E7FF8B
:1002500008F054FD01F0E8FE03B4FFF7F2FF03BC21
:1002600008F0B0FC0948804709480047FEE7FEE770
:10027000FEE7FEE7FEE7FEE7FEE7FEE7FEE7FEE756
:1002800004480549054A064B70470000FD7F0008F9
:100290008901000880070020800D002080090020CF
:1002A00080090020704753EA020C00F069802DE9B4
:1002B000F04B4FF00006002B1FBFB3FA83F503FA93
:1002C00005F424FA05F65E4012BF1643B2FA82F531
:1002D00002FA05F4C5F120051EBF22FA05FC44EA26
:1002E0000C04203556EA044C4FEA144418BF641C31
:1002F0004FF000084FF00009904271EB030C39D326
:10030000002919BFB1FA81F701FA07F6B0FA80F7B0
:1003100000FA07F6C7F120071EBF20FA07FC46EADD
:100320000C062037B6FBF4FCA7EB0507103F07F0DF
:100330001F0BCBF120060CFA0BFB2CFA06F644BF80
:10034000B3460026202FA4BF5E464FF0000B5BEAA9
:10035000060C08BF4FF0010B19EB0B09ABFB027C3D
:1003600048EB0608C01B06FB02CC0BFB03CC71EB71
:100370000C01C1E70B46024641464846BDE8F08BFA
:1003800013B54FF000004FF00001AFF30080BDE85F
:100390001C4070470FB4044910B503AA029800F03E
:1003A000E9FD10BC5DF814FB5000002070B5044658
:1003B00085690068C10601D5302600E02026C00707
:1003C00007D070BDD4E9012130469047206A401C17
:1003D00020626D1EF6D570BD70B504468569007843
:1003E000C00707D170BDD4E9012120209047206AC1
:1003F000401C20626D1EF6D570BD70B50C460546DA
:10040000012A05D02878800600D5EA69002302E099
:10041000012305E05B1C934202D2E05C0028F9D185
:10042000A869E618C01AA861286A184428622846F4
:10043000FFF7BCFF04E0D5E9012114F8010B904758
:10044000B442F8D32846FFF7C7FF70BD2DE9F0414D
:100450000646002410687529314616A510D0AFF362
:100460000080002802DA404213A507E031688A07BD
:1004700001D512A502E0490704D511A5012401E028
:10048000AFF3008000210A2206F1240709E0B0FB47
:10049000F2FCB0FBF2F302FB1C003030785418463B
:1004A000491C0028F3D123462A463046BDE8F041D6
:1004B00000F0E2BA000000002D0000002B00000058
:1004C0002000000070B504460D4621461068AFF3C9
:1004D00000802188090502D50F4A7A4402E00E4ABD
:1004E0007A440E32002104F1240305E000F00F06E7
:1004F0000009965D5E54491C0028F7D1207800233E
:10050000000704D5702D02D009B102231132204614
:10051000BDE8704000F0B0BACA9800002DE9F05F65
:10052000894604464FF0000ADFF874B1FB44C0F876
:1005300020A02046E1688847002874D0252806D0EE
:10054000D4E901219047206A401C2062F1E700268F
:100550005F462046E16888472028054607DB312DA5
:1005600005D2781910F8200C08B10643F1E7B0075E
:1005700001D526F00406C4F81CA00027C4F818A072
:100580002A2D09D0284608F016FB38B304EB87085B
:10059000303DC8F8185019E059F8041B204604EB08
:1005A00087029161E1688847012F054618D1E0690B
:1005B000002820DA26F020061DE0D8F8180000EB0D
:1005C000800005EB40003038C8F818002046E1688C
:1005D0008847054608F0EFFA0028EED1012F0AD02F
:1005E0002E2D08D12046E16888477F1C0546022F42
:1005F00046F02006C4DBA069002803DA404246F03A
:100600000106A061F00701D026F010066C2D0BD07A
:10061000682D09D04C2D39D06A2D35D0742D35D0A8
:100620007A2D33D016E038E0E1682F46204688471F
:10063000B842054609D16C2F26D04FF48060E1689E
:10064000064320468847054604E06C2F1AD04FF435
:10065000807006430DB3A5F14100192802D820355A
:1006600046F400664A462946204626604E46FFF775
:10067000C5FD80B101280BD0F61D26F0070000F162
:10068000080956E74020E4E78020D8E70020D6E7B5
:1006900006F104094DE7284652E7206ABDE8F09FBD
:1006A000A09800000FB400B58DB010A9099000917A
:1006B0000B904FF0FF300A9000200C9006487844D1
:1006C0000690064878446A4607900F9909A800F0FA
:1006D000F3FE0DB05DF814FB170E00002F0E0000A6
:1006E0002DE9FF5F1D464FF0FF3B91464FF000089C
:1006F0005F46D5E90146A96901987F1C8847296AA8
:10070000824688470028F6D1BAF1FF3F0CD0002E70
:1007100024F4C06419DD600614D5BAF12B0F09D09A
:10072000BAF12D0F0ED103E0584604B0BDE8F09F9A
:1007300044F48064A96901987F1C8847761E82462C
:10074000002E02DDBAF1300F03D0B9F1000F26D030
:1007500032E0A969761E01987F1C44F40074884732
:10076000002E824605DDBAF1780F06D0BAF1580F97
:1007700003D0B9F1000F10D01EE0B9F1000F02D084
:10078000B9F1100F18D1A969761E01987F1C24F4C5
:10079000007488478246102002E0082000E00A200A
:1007A000814609E0A96908FB0908761E01987F1CAB
:1007B00044F4007488478246002E05DD49465046C1
:1007C00000F0EAFB0028EDDAE96901988847A00506
:1007D00002D46FF00100A8E7E00725D1600613D529
:1007E000600502D5C8F1000000E0404629680A1DF6
:1007F0002A600968220501D5087015E0220701D595
:10080000088011E008600FE02868011D2960006879
:10081000210502D580F8008006E0210702D5A0F866
:10082000008001E0C0F8008038467EE72DE9F047FF
:1008300091460F4680460446002614F8015B2DB110
:1008400000F00EF90068405DC007F6D12B2D02D0F4
:100850002D2D18D0641E4A463946204600F05CFE15
:1008600027B13968A14201D1C7F800804FF00204D6
:1008700071050BD54042002803DD00F0F9F8046053
:10088000A007BDE8F08746F48066E4E70028F8DAC0
:1008900000F0EEF804606FF00040F2E710B5431C82
:1008A00002E010F8011B71B18107FAD14FF001325B
:1008B00002C88C1A8C4314EAC211F9D0C01A0A0675
:1008C00003D0C01E10BDC01A10BD0A0401D0801E86
:1008D00010BD0902FCD0401E10BD40EA010370B5F6
:1008E0009B072ED14FF00136042A2AD308C810C91D
:1008F0009D1B9D43121F15EAC61517D0D8B2E1B251
:10090000401A50EA056110D198B2A1B2401A50EADB
:1009100005410AD123F07F4024F07F41401A50EA7C
:10092000052102D1180EA0EB146070BDA342DBD0EC
:1009300018BA21BA884201D9012070BD4FF0FF30AA
:1009400070BD0AB9002070BD10F8013B11F8014BD1
:1009500063B1A3420AD1521E08D010F8013B11F82E
:10096000014B1BB1A34201D1521EEDD1181B70BD2A
:100970004FF000020429C0F0128010F0030C00F0C8
:100980001B80CCF1040CBCF1020F18BF00F8012B46
:10099000A8BF20F8022BA1EB0C0100F00DB85FEA14
:1009A000C17C24BF00F8012B00F8012B48BF00F8E0
:1009B000012B70474FF0000200B51346944696464F
:1009C000203922BFA0E80C50A0E80C50B1F1200162
:1009D000BFF4F7AF090728BFA0E80C5048BF0CC010
:1009E0005DF804EB890028BF40F8042B08BF70476E
:1009F00048BF20F8022B11F0804F18BF00F8012BE0
:100A0000704710B5044610F0030F08BF11F0030F34
:100A100040F015804FF0013E121FC0F20E8051F8D9
:100A2000043BA3EB0E0C2CEA030C1CEACE1C08BF03
:100A300040F8043BF0D0A1F1040102F10402521E7F
:100A400008DB11F8013B002B00F8013BF7D1114600
:100A5000FFF78EFF204610BD704770477047704704
:100A600010B500F0ADFD001D10BD00BFF58C0000FD
:100A7000004870471C0700202DE9F0470D469946B5
:100A80009246044600F124080168880604D5E0690E
:100A900021F01001216000E00120A84201DD471B88
:100AA00000E00027A1697A1902EB0900081AA06189
:100AB0002078C00602D42046FFF778FC002608E024
:100AC000D4E901211AF806009047206A401C761CE0
:100AD00020624E45F4DB2078C0060AD52046FFF799
:100AE00065FC06E0D4E9012130209047206A401CD3
:100AF0002062381EA7F10107F4DC07E0D4E90121E8
:100B000018F805009047206A401C2062281EA5F1B5
:100B10000105F3DC2046FFF75FFC2078000602D5D4
:100B20000220BDE8F0870120FBE770472DE9FF4F69
:100B30000C461E464FF0FF378BB0D2E90001DDF8BE
:100B400060800A908A46C1F30A5505B93D460021E6
:100B500008464FF00000BAF1000F00F4400005DA3B
:100B600000EB80004FF4400101EA50004FEA905939
:100B7000B9F1010F00DDB9460A9850EA4A000ED0DB
:100B800044F61050A5F2FF3545432F14B8F1000F7D
:100B90001ED07542291E1EDDC9F100021CE0B8F10D
:100BA000010F4FF0000001D0302103E0F24305E0D7
:100BB0002154401CB042FBDB30460022002121546E
:100BC0000B99C1F80880C1E900200FB0BDE8F08F93
:100BD000BD1B6D1CDEE74A4600DA694206A800F03C
:100BE00053FF06AB93E8070003AB83E807005046CA
:100BF0000A9901F076FA8DE80700A0F500501F3839
:100C000000900398002D0ADD42F21F014A46084475
:100C1000002303A90390684601F022FD09E0A0F536
:100C200000504A461F38002303A90390684601F08C
:100C300041FD8DE807000004000C03D04FF0FF30A9
:100C4000410800E01046B8F1000F03D000220092E6
:100C500015461EE0751E05D400F0B6FC3032625514
:100C60006D1EF9D5B3460122084302D000227F1C35
:100C700004E02078302801D100227F1E002A099745
:100C800084D01DE0112D07DA00F09EFC3032625551
:100C90006D1C50EA0102F5D1084302D00098C8B19A
:100CA0000EE00021681E05E0235C625C6354225460
:100CB000401E491C8142F7DBAB46A81B401E099031
:100CC000002004F80B000B98099AC0F80880C0E9CE
:100CD000002B7AE711264FF0000857E72DE9F04F77
:100CE00088460446D21D22F0070191B0D1E90001E7
:100CF000CDE90A0107F01FFE02460B98C00F01D094
:100D00002D2007E02068810701D52B2002E020215B
:100D100001EAC000032A099001D0072A05DB034637
:100D20004146204600F0B6FC0BE12078800601D554
:100D3000E06900E00620B8F1650F814606D0B8F101
:100D4000660F18D0B8F1670F70D131E00020B9F10B
:100D5000110F009001DB112301E009F101030AAA40
:100D600001A90CA8FFF7E2FEDDE90C70002609F1ED
:100D70000105834647E001204B4600904FF00047B5
:100D80000AAA01A90CA8FFF7D1FEDDE90DB00C9964
:100D90005D46002610B909F101000D18B9EB0500F8
:100DA00003D4C0F1FF3609F10105A5EB09002BE0E2
:100DB000B9F1010F01DA4FF001090020B9F1110F6B
:100DC0000090484601DD112300E003460AAA01A96C
:100DD0000CA8FFF7ABFEDDE90C704D4600268346FC
:100DE000207800070AD4AB4500DA5D4601A8012D42
:100DF00004DD411911F8011C302907D04F4502DAF2
:100E000017F1040F04DA012082460FE06D1EEEE7B1
:100E1000002F02DCED1B3E4403E0781CA84200DDFD
:100E20007D1CB81B00F1010A4FF000472078000735
:100E300003D4AA4501DB4FF0FF3A0021B7F1004F80
:100E40000DF143088DF8431024D002202B23002FEE
:100E500001DA7F422D230A21021EA0F1010000DCED
:100E60005FB197FBF1FC97FBF1F201FB1C7C17468D
:100E70000CF1300C08F801CDEEE7A8F10100037089
:100E80002188090501D5452100E06521A0F101086F
:100E900000F8011C09980FA9A1EB0807FF1D00B17C
:100EA0000120411901EBEA70A1693844081A401E7B
:100EB000A0612078C00602D42046FFF777FA09988F
:100EC00028B1D4E901219047206A401C2062207893
:100ED000C00622D52046FFF769FA1EE0002E04DB8B
:100EE000B34502DD01A8805D00E03020D4E9012196
:100EF0009047206A401C2062761CAAF101005FEA3C
:100F0000000A0AD100F05CFBC0680168405CD4E9CB
:100F100001219047206A401C2062281EA5F101058E
:100F2000DCDC07E0D4E9012118F8010B9047206AC6
:100F3000401C2062381EA7F10107F3DC2046FFF7B2
:100F40004BFA032011B041E610B5436913B1AFF37A
:100F5000008001E0FFF751FA012010BD127800F186
:100F600024010A7000224A700122EDE711684FF057
:100F7000FF32E9E7074B70B50D467B4400F077FB85
:100F80000446284600F0F2FD10B14FF0FF3070BD6E
:100F9000204670BDD77C00003A2800D2303820F0BF
:100FA0002002412A01D3A2F13700884201D34FF039
:100FB000FF3070472DE9FF4F06468BB00878FF28B9
:100FC00006D0491C2D2805D000244FF0000908E068
:100FD00000200CE00124F8E709EB8903491C00EB31
:100FE00043090878FF28F7D114B1C9F10000814600
:100FF000107800252C46AA4629462D2801D02B28FA
:1010000004D1521C2D2813D0002082468B46107824
:10101000FF280FD04FF0000C0A21521CA5FB0178CD
:1010200004FB018105FB0C11C5194BEB0104EEE734
:101030000120EAE7002108464FF00000BAF1000F56
:1010400002D000EB80004008C0F38157012F01DD82
:101050004FF0FF370E9955EA040009EB01080BD059
:101060004FF0020918F5FA7F16DA4FEACA70002F1E
:10107000706008DD012007E04FEACA70C6E900B0E1
:101080000FB0BDE8F08F00203060FFF7F1FCC0F832
:1010900000901821084616E0B8F5FA7F18DD002FF9
:1010A00002DAF748784401E0F6487844D0E90010C5
:1010B000C6E9001040EACA707060FFF7D9FCC0F8BA
:1010C0000090142108460FB0BDE8F04F08F0E1BDD4
:1010D000002108464FF00000B8F10001099002DA43
:1010E000C7F1000200E03A4601DAC8F1000106A8A3
:1010F00000F0CAFC06AB93E8070003AB83E80700E7
:1011000044F23E005BEA04010090584604D144F2E8
:101110001E012C465D460091210C0904014306D1B5
:101120000099240444EA15442D041039009104F078
:101130007F41014306D10099240244EA15642D023F
:101140000839009104F07041014306D1009924014F
:1011500044EA15742D01091F009104F04041014338
:1011600006D10099A40044EA9574AD00891E00914F
:1011700004F00041084304D100986D196441401EF9
:1011800000904FF001033A466846B8F1000FCDE9F0
:10119000014503A902DD01F0A2FA01E001F075FAB0
:1011A000BAF1000F04460D4601D084F0004400213E
:1011B00008464FF00000099940F2FF77484010F0D0
:1011C0000C0F07D124F00040284303D0C4F30A5089
:1011D000B84212D1FFF74CFCC0F80090C4F30A509B
:1011E000B8420AD1A8487844D0E90010C6E90010F6
:1011F00004F000410843706042E7C6E900543FE74D
:101200002DE9FF4F1F464FF0000A4FF0FF384546CB
:1012100091B0D7E90146CDF83CA000F0D1F9C06803
:101220000168405C1090B96912986D1C8847396A52
:10123000814688470028F6D1B9F1FF3F0AD0002E39
:1012400024F4D06411DDB9F12B0F08D0B9F12D0FC2
:101250000BD102E0404615B013E744F48064B9694D
:1012600012986D1C8847761E8146600504A901D539
:101270002D2000E02B20002E01F1010B0DF1300894
:101280008DF810003FDDB9F1690F08D0B9F1490FB1
:1012900005D0B9F16E0F02D0B9F14E0F1CD13B460B
:1012A00001A8009580E85002DDE912126FF00200FB
:1012B00008F058FDC11CCED10EE0B96912986D1C22
:1012C000884781461398761E44F4007405600F9891
:1012D000401C002E0F9016DDB9F1300FEDD0B9F1A2
:1012E000780F02D0B9F1580F0DD10F9801280AD10B
:1012F0003B46CDE90054DDE91212001F029608F0CA
:101300002FFDC11CA7D1109989453ED144F080041E
:1013100006E01399681CAAF1010A44F400740860FD
:10132000B9696D1C1298761E884730288146F0D026
:101330002BE01099894505D1200603D4761E44F090
:10134000800418E0484607F036FC08B3761E0DF11D
:1013500023018B4544F4007408D2A9F130000BF846
:10136000010B200607D5AAF1010003E0200602D4F4
:101370000AF101008246A00502D51399681C086095
:10138000B96912986D1C88478146002ED1DC53E064
:10139000002E51DDB9F1650F02D0B9F1450F4BD1E7
:1013A000A00549D5B9696D1C1298761E24F44074C5
:1013B0008847002E81460CDD2B2804D0B9F12D0F73
:1013C00007D144F48074B96912986D1C8847761E61
:1013D0008146E00501D52D2100E02B2108F8011BF5
:1013E000CDF8008021E0761E0DF13901884544F4E6
:1013F00000740CD2A9F1300010F0FF0088F8000052
:1014000002D10099884509D908F1010806E0E005F4
:1014100001D51E4801E042F20F708246B969129868
:101420006D1C8847814613980560002E04DD4846F0
:1014300007F0C1FB0028D6D1F96912988847FF2030
:1014400053468BF8000088F8000000200A900B90AB
:1014500004AA0CA90AA8FFF7ADFDA00502D46FF0FD
:101460000100F8E614F0240F12D0E0071CD1386810
:10147000DDE90A12031D3B600068C0E9001213E0B9
:1014800094900000869000004A8F0000F1D8FFFF82
:101490000AA9684607F07CFBE00705D13868009A86
:1014A000011D3960006802602846D4E602681144D4
:1014B0001378016018467047D1600549794451613D
:1014C00004497944116200211161114600F022B9EA
:1014D000EDFFFFFF8D010000426842B1016811F885
:1014E000013B23B1521EC0E900121846704701218A
:1014F000C160881E704742685AB1C368016843B929
:1015000083688B4205D0491E521CC0E9001200209E
:1015100070474FF0FF3070472DE9F05F8246154667
:101520008B4600270AF10104B9460078302801D023
:101530009DB113E014F8010B0127782803D0582837
:1015400001D045B10AE00DB1102D07D1002714F8E4
:10155000010B102502E0082500E00A250026B04610
:101560000EE005FB080005FB06F101271FFA80F8D5
:1015700001EB1046B6F5803F00D3B94614F8010BD5
:101580002946FFF709FD0028EBDABBF1000F05D073
:101590000FB1641E00E05446CBF80040B9F1000FD3
:1015A00006D0FFF765FA02210160C81EBDE8F09F72
:1015B00048EA0640FAE70000004870471C07002090
:1015C000004870473C07002030B5B0F10A024FEAEE
:1015D000900E71F100034EEA817EB0EB0E0061EBDC
:1015E00091014FEA101E4EEA017E10EB0E0041EB16
:1015F00011114FEA102E4EEA016E10EB0E0041EB76
:1016000011214FEA104E4EEA014E10EB0E0041EB55
:101610001141401841F100014FEAD00040EA417009
:101620004FEAD10110EB80054FEA810444EA90743F
:1016300044EB01046D1944EB0404521BA3414FF029
:10164000000348BF0A3200D530BD401C41F1000103
:1016500030BD10B50446FFF703FA0068005D00F0E6
:10166000010010BD01694A1C02610878704700B58D
:101670008FB0CDE901310021059105497944CDE9CB
:10168000031011466846FEF749FF0FB000BD000089
:10169000E5FFFFFF2DE9F0411F46044603260168E0
:1016A000072A01F4006004DB08B116A505E016A5C1
:1016B00003E008B115A500E015A521F01000206099
:1016C000A069C01EA0610FB1401EA0612046FEF7B8
:1016D0006DFE4FB1D4E9012138469047206A401C85
:1016E0002062C01C206206E0206AFAE7D4E90121EA
:1016F00015F8010B9047761EF8D22046FEF76CFED7
:10170000BDE8F0814E414E006E616E00494E4600CC
:10171000696E66002DE9F34F4FF0000A0C465646FD
:101720008DB001200C9001F10C000B9062690B98B8
:1017300001219047051E2DD0252D2CD0216A8847E8
:10174000C0B162690B9801219047216A884700283F
:10175000F7D16269411E0B98904700E0761CA169A1
:101760000D988847216A88470028F7D1E1690D98CC
:101770008847DBE7A1690D988847A842074601D151
:10178000761CD3E7E1690D9888477F1C02D1BAF136
:10179000000F6FD06BE162690B9800273D46394618
:1017A00090472A2804D162690B98012190470125AE
:1017B000DFF8D08262690B9801219047A0F13001D7
:1017C0000A290AD24745E5DC07EB870100EB410710
:1017D000303FDFD445F01005ECE7E90601D46FF0A7
:1017E00000476C280AD04C2814D0682815D06A28E5
:1017F0000DD074281CD07A281AD01DE062690B988D
:10180000012190476C2802D045F0040514E045F012
:1018100002050DE045F020050AE062690B98012100
:101820009047682802D045F0080505E045F40065BA
:1018300062690B9801219047C4E9015765283DD0A2
:1018400019DC58287AD00CDC452837D004DC252850
:1018500026D041289ED131E046282FD0472899D163
:101860002CE05B2877D0612828D063287CD06428BE
:1018700023D15AE0F6E06F2848D008DC66281DD056
:1018800067281BD0692821D06E2816D127E0702840
:1018900045D0732868D0752847D078280DD14DE001
:1018A000A1690D988847252805463FF469AFE1698D
:1018B0000D9888476D1C3FF46AAFD8E00D99234618
:1018C0006A466FF0010008F049FAC5E045F04000B3
:1018D00023464FF000026060A80736D43EE0E807D8
:1018E0007FF447AF2068011D21600068290501D5FC
:1018F00006701BE7290701D5068017E7A90703D55E
:10190000F117C0E9006111E706600FE745F04000FC
:1019100023464FF008026060A80716D41EE040F688
:101920000E0125EA0100606016E045F04000234604
:101930004FF00A026060A80707D40FE045F04000AE
:101940006060A80708D5234610220D996FF00100AA
:10195000AFF3008080E007E0102223460D996FF07E
:101960000100FEF7BDFE77E04FF0000963284F4607
:10197000C8464B46CB4602D05B2806D038E0E80686
:1019800001D40120A060012732E06269D4F80CB0D4
:101990000B98012190475E2807D14FF00109494675
:1019A0006269D4F80CB00B989047216939B90021CD
:1019B0000A4603AB43F82120491C0829FADBD8B3B7
:1019C000216949B308F1010862690B980121904728
:1019D0005D28F4D1B9F1000F09D0002003A951F816
:1019E0002020D24341F82020401C0828F7DB03AB1D
:1019F0002069002820794FEA40701ED05B462246BD
:101A0000CDF80080CDE901970D9900286FF0010015
:101A100020DAAFF300801FE0C11703AA00EBD16109
:101A20004B1121F01F0102EB8302411A13680120C0
:101A3000884003431360C7E719E00D992246002848
:101A40006FF00100009702DAAFF3008004E0AFF31B
:101A5000008001E0AFF3008000280ADA401C06D1C4
:101A60000C9820B14FF0FF300FB0BDE8F08F50461A
:101A7000FAE7E90701D10AF1010A064400200C90B7
:101A800054E60000CCCCCC0C2DE9F047814616463C
:101A90008AB0354878440DC88DE80D003248784446
:101AA000801C03AC0DC884E80D0041F69B3008444F
:101AB000372190FBF1F290FBF1F5A5F1800501FBD8
:101AC00012041B3C02D56442012000E00020DFF834
:101AD00098A080460027FA44AAF1BE0A0EE0E0076B
:101AE0000AD03246684607EB470101230AEB810121
:101AF00000F0E0FD8DE8070064107F1C002CEED1A3
:101B0000194F7F44AE3F19E0E80715D007EB0410EA
:101B10000DF1180A90E80E008AE80E00C068F04245
:101B200001D1981908903246012306A903A800F0B4
:101B3000C1FD03AB83E807006D10641C002DE3D1E9
:101B40004FF0010332466946B8F1000F03A802D0F6
:101B500000F086FD01E000F0ADFDC9E90001C9F823
:101B600008200AB0BDE8F087C8830000007B00F0C1
:101B7000800070477546FFF71FFDAE4605006946B9
:101B8000534620F00700854618B020B5FEF778FBD5
:101B9000BDE820404FF000064FF000074FF000086E
:101BA0004FF0000B21F00701AC46ACE8C009ACE8EF
:101BB000C009ACE8C009ACE8C0098D46704710B553
:101BC000FEF756FF006810BD10B50446FEF750FF43
:101BD000046010BD2DE9FF4F1F464FF03C0987B050
:101BE0004FF00042DDE9141001F10108DDF858A0C2
:101BF00002EA4050039000200590834605460446C3
:101C00000490B969461E08988847AAF1010A029013
:101C1000BAF1000F3BDD02982E2815D01021FFF7F6
:101C2000BBF900282EDB4FF0010B0599014317D0BB
:101C3000B9F1000F0BDB4A46C11700F03FFA05432C
:101C40000C43A9F1040905E0012004900BE008B160
:101C500045F0010501200590049820B9361D02E0E9
:101C6000049800B1361FB969089808F1010888473F
:101C7000BBF1000FAAF1010A0290C9D00999C1F87D
:101C80000080C5E70298702808D0502806D0F9696E
:101C900008988847BBF1000F14D04FE00020029055
:101CA0000120BBF1000F049009D0B969089808F130
:101CB00001088847AAF10109B9F1000F07DCF969A9
:101CC000089888476FF001000BB0BDE8F08F2B2813
:101CD00004D02D280CD14FF0FF300490B96908983A
:101CE00008F101088847A9F10109B9F1000FE6DD03
:101CF000411CE4D00A21FFF74FF90028DFDB0299ED
:101D000008F1010801EB810100EB41000290B96983
:101D1000089888470A21FFF73FF9099AA9F10109B4
:101D2000B9F1000FC2F8008001DD0028E7DAF96997
:101D3000089888470499029800FB016655EA040058
:101D400004D004F04041090002D006E0039898E076
:101D5000A40044EA9574AD00B61E04F000410800EA
:101D600002D16D196441761E159810F0240F03D02E
:101D70004FF00B095C4803E04FF028096FF07D003D
:101D80008246564507DAAAEB06018944B9F1410FAC
:101D900001DD4FF0410901200021A9F1010200F00D
:101DA0008DF9024628400B462140084301D001210D
:101DB00000E00021501E029143F1FF3128402140F4
:101DC000084301D0012000E000200299834651EA37
:101DD0000B014FD0002108464FF00000039900F49A
:101DE000400039B100EB80004FF4400100EBD070AF
:101DF00001EA60008015012802DD4FF0FF3000E0AD
:101E000013D0401C36D0029860B3BBF1000F0CD148
:101E10004A460120002100F051F9284021400843A2
:101E200001D0012000E00020E0B101204A4600215D
:101E300000F044F9034640190A4661412D1A8C41CD
:101E400011D3B9F1400F09DD159810F0240F02D01D
:101E5000AAF1340603E0AAF1170600E0761C00257B
:101E60004FF0004406E05B1E42F1FF3220EA03051A
:101E700021EA0204CAF10100B04206DA1B490398C4
:101E800008430190002000900EE0039AC4F3D32190
:101E9000E80A0A43164940EA44500A433146CDE96C
:101EA0000002684606F07DFE159810F0240F0BD056
:101EB0001598C00715D13868DDE90012031D3B6095
:101EC0000068C0E900120CE002A8694606F060FE56
:101ED0001598C00705D13868029A011D396000685D
:101EE00002604046F0E6000002FCFFFF0000F07FC9
:101EF0000000F03F2DE9FF4F92461D4685B04FF0A0
:101F00000041DDE9124BDDE914727F1E01EA4B50FE
:101F1000414940F0FF4940EA0108002122F0200039
:101F20004928049102D04E2828D04CE03BA001263D
:101F300007C88DE80700A9690698641C88477F1EBA
:101F4000014606D41DF8060018B121F02001814297
:101F50000BD0E96906988847032E34D0082E32D07A
:101F60006FF0010009B0BDE8F08F761C032E01D0A0
:101F7000082EE0D1601CCAF80000DCE7A9690698C9
:101F8000641C88477F1E2AD420F02000412826D1D7
:101F9000A9690698641C88477F1E20D420F0200081
:101FA0004E281CD1A9690698641C88477F1E48F4F6
:101FB000002849F48009CAF8004001D4282806D036
:101FC000E969069888475FEACB7012D022E0A969D8
:101FD0000698641C88477F1E01D4002803DAE9694B
:101FE00006988847BCE72928F1D1641CCAF800404C
:101FF000E9E71BF0240F07D028680499031D2B6024
:102000000068C0E9001805E02868021D2A60006821
:10201000C0F800902046A5E70000F07F494E4649F1
:102020004E4954590000000010B50446AFF300803B
:102030002046BDE81040FEF70FB900004FF0013C0C
:1020400050F8042B51F8043B9A4221D1A2EB0C0327
:10205000934313EACC1317D150F8042B51F8043BE7
:102060009A4215D1A2EB0C03934313EACC130BD184
:1020700050F8042B51F8043B9A4209D1A2EB0C030F
:10208000934313EACC13DBD04FF00000704700BF3E
:10209000D01A01BAB1FA81F101F0180122FA01F067
:1020A000CB40C1F12001DBB2C0B2C01A2CFA01F35F
:1020B000D11A914311EAC311E6D17047B2F120035E
:1020C0000AD5C2F1200301FA02F120FA03F300FA63
:1020D00002F041EA0301704700FA03F14FF00000FB
:1020E00070475FEA400C08BF91F0000F4FEA8C2365
:1020F0004FEAC12243EA51514FEA1C5018BF00F584
:10210000F0404FEA300018BF41F000415FEA6C5CDC
:1021100000F02980BCF1FF3F08BF40F080407047CD
:10212000130C06BF12044FF0100C4FF0000C130EEE
:1021300004BF12020CF1080C130F04BF12010CF1C2
:10214000040C930F04BF92000CF1020CD30F04BFD8
:1021500052000CF1010C11464FF00002A0F11F00DB
:10216000A0EB0C00704711F0004F08BF704731F032
:1021700000413FF4D5AF0B0C06BF09044FF0100C23
:102180004FF0000C0B0E04BF09020CF1080C0B0FF2
:1021900004BF09010CF1040C8B0F04BF89000CF182
:1021A000020CCB0F04BF49000CF1010CCCF1200351
:1021B000A0EB0C0022FA03F302FA0CF241EA03014D
:1021C00000F10100704720F07F4C80EA030023F00B
:1021D0007F47ACEB070303F57C5300F0004003F1AD
:1021E000FF032DE980494FEA154B09B44FEA144328
:1021F00025EA0B4E24EA03480FF2042606EB1327C8
:1022000049083E785FEA320203FB0667C7F500071C
:1022100007FB06F64FEA54374FEAD64606F10206A8
:1022200007FB066CCCF1005C4FEA1C472CEA074C1C
:1022300007FB06F40CFB06F504EB15464FEA961671
:1022400034BF00204FF000404FEAD13706FB07FCB7
:102250004FEA1C4C0CFB0BF7D21B03FB0CF761EB9A
:1022600007010CFB0EF7B0EB074072EB17420CFBBB
:1022700008F734BFA2EB0742B2EB074261EB17410C
:102280004FEA0C444FEA910706FB07FC4FEA1C4C4F
:102290000CFB0BF7B0EBC74072EB573203FB0CF7AC
:1022A00034BFA2EBC742B2EBC74261EB57310CFB24
:1022B0000EF7B0EBC70072EB57720CFB08F734BF98
:1022C000A2EBC702B2EBC70261EB5771039F4FEA63
:1022D000816141EA921104EBCC044FEAD1374FEA15
:1022E000826206FB07FC42EA90124FEA80604FEAE6
:1022F0001C4C0CFB0BF7D21B03FB0CF761EB07012B
:102300000CFB0EF7B0EB074072EB17420CFB08F723
:1023100034BFA2EB0742B2EB074261EB17414FEA31
:102320008C554FEA910704EB9C2406FB07FC4FEA0F
:102330001C4C0CFB0BF7B0EBC74072EB573203FBA6
:102340000CF734BFA2EBC742B2EBC74261EB573187
:102350000CFB0EF7B0EBC70072EB57720CFB08F7E3
:1023600034BFA2EBC702B2EBC70261EB577115EBAA
:102370004C254FEA816141EA92114FEA82624FEAAD
:10238000D13742EA901206FB07FC44F100044FEA01
:1023900080604FEA1C4C0CFB0BF7D21B03FB0CF7C5
:1023A00061EB07010CFB0EF7B0EB074072EB174235
:1023B0000CFB08F734BFA2EB0742B2EB074261EB1C
:1023C000174115EB1C154FEA813141EA92414FEA62
:1023D000823242EA90424FEA80304FEA0C7644F172
:1023E000000448EA03434EEA0B484FF0000EB2EBFC
:1023F000080C71EB030724BF624639464EEB0E0E04
:102400004FF0000B0018524149414BEB0B0BB2EB64
:10241000080C71EB03077BF1000B24BF62463946C1
:102420004EEB0E0E4FF0000B0018524149414BEBA2
:102430000B0BB2EB080C71EB03077BF1000B24BF15
:10244000624639464EEB0E0E51EA020718BF46F0BF
:10245000010616EB0E7655F1000254F1000103D58A
:10246000BDE88901BDE80088BDE88901BDE80048F4
:10247000B619524141EB0101A3F10103704780807D
:102480007F7E7D7C7B7A79787776767574737271CE
:1024900071706F6E6E6D6C6C6B6A6A696868676686
:1024A00066656464636362616160605F5F5E5E5D18
:1024B0005D5C5C5B5B5A5A5959585857575656558C
:1024C00055555454535352525251515050504F4FEE
:1024D0004F4E4E4D4D4D4C4C4C4B4B4B4A4A4A493E
:1024E0004949484848474747474646464545454481
:1024F0004444444343434342424242414141000039
:1025000046EA0646A3F570534FEA164646EA425697
:102510004FEAD22242EA415210B54FEAD121A3F14B
:10252000010300F02FF820F0004000F1020C00F051
:10253000004701EB00501146BCF5006F40EA070070
:1025400000D210BDBAF1000F0AD01CB503B44FF091
:1025500004004FF004014FF000000FBCBDE8104034
:102560004FF00001BBF1010FB9BF04484FF0FF313C
:102570000348002140EA070010BD00BFFFFFEF7FC6
:102580000000F07F002B9C4630D477002BD01CB588
:102590004FEA370703B44FF010004FF01001BAF1C3
:1025A000000F06D0BCF1000FDCBF40F0080040F087
:1025B00008014FF000000FBCBDE810400BF1010B0B
:1025C000BBF1010F08BF5FEA170722BF12F101023A
:1025D00011F101014FF0004143F1000300F0004010
:1025E00043EA00007047F9D35708D0E746EA0646A9
:1025F00013F1400F4FEA16461FDD13F1200FDFBF26
:1026000016430A46002120335B42BED0C3F12007A7
:1026100046EA064602FA07F74FEA164646EA070672
:10262000C3F1200722FA03F201FA07F721FA03F1B6
:102630004FF0000342EA0702A7E746EA020646EA2D
:1026400006464FEA164646EA0106BCBF46EA06467B
:10265000360C4FF000034FF000024FF0000194E7FA
:102660002DE9804C9A46934670B491E8380007C82B
:1026700031EA400C48BF34EA430C03D5FFF7A3FD11
:10268000FFF780FFF0BCBDE8008C2DE9804C9A4636
:10269000934670B491E8380007C831EA400C48BF4F
:1026A00034EA430C03D5FFF78EFDFFF729FFF0BC9A
:1026B000BDE8008C2DE9804C9A46934670B491E8B1
:1026C000380007C810F0804F08BF13F0804F03D1C7
:1026D00000F01AF8FFF756FFF0BCBDE8008C2DE9BA
:1026E000804C9A46934670B491E8380007C810F0C1
:1026F000804F08BF13F0804F03D100F005F8FFF7BB
:10270000FFFEF0BCBDE8008C20F07F4780EA0300AC
:1027100023F07F4C07EB0C03A3F57C5300F0004043
:10272000A3F1FE0392F0000F00F0B38095F0000FCC
:1027300000F077802DE901494FEA11404FEA144635
:1027400021EA004800FB06FC24EA064708FB06F6DF
:1027500007FB08F800FB07F718EB06484CEB164C94
:102760004FEA124B18EB07484FEA15464CEB17405F
:1027700022EA0B4E0BFB06FC25EA06470EFB06F68B
:1027800007FB0EFE0BFB07F71EEB064E4CEB164C41
:102790004FF000061EEB074E4CEB174B18EB0B08E7
:1027A00040F1000018EB0E0B58EB000840F1000060
:1027B0008F1A4FF000013CBFC943661B14BFB5EB35
:1027C000040C00213CBFC943F61B4FEA17444EEAF4
:1027D0008E0E27EA04454FEA1C4704FB07622CEAE9
:1027E000074C05FB07F70CFB05F604FB0CFC16EB8E
:1027F000074642EB174216EB0C4642EB1C421BEB22
:10280000060658EB0202414146EA9E0601D5BDE8A4
:102810000189B619524141EB0101A3F10103BDE861
:1028200001894FEA14454FEA114724EA054621EA97
:10283000074C05FB07F406FB07F70CFB06F105FB4D
:102840000CFC11EB074144EB17444FEA124711EB24
:102850000C4144EB1C4422EA074C05FB07F206FB43
:1028600007F70CFB06F605FB0CFC16EB074642EBE4
:10287000174216EB0C4642EB1C456A1854F1000156
:1028800048BF7047B619524141EB0101A3F1010362
:10289000704795F0000F37D04FEA11424FEA1447C6
:1028A00021EA024624EA074C02FB07F106FB07F780
:1028B0000CFB06F402FB0CFC14EB074441EB174144
:1028C0004FEA154714EB0C4441EB1C4125EA074C39
:1028D00002FB07F506FB07F70CFB06F602FB0CFCF8
:1028E00016EB074645EB174516EB0C4645EB1C422D
:1028F000121951F1000148BF7047B619524141EB1E
:102900000101A3F1010370474FEA14454FEA114753
:1029100024EA054621EA074C05FB07F106FB07F709
:102920000CFB06F24FF0000605FB0CFC12EB074215
:1029300041EB174112EB0C4251EB1C4148BF704771
:10294000921841EB0101A3F10103704710B5014654
:10295000806B026C12F0500F05D0026CD20626D5A7
:1029600002F0FAFE10BD016C41F4007101640168CF
:102970008A6812F0405F17D1027EAAB9CA6A12F4BF
:10298000700F02D08A6852050ED44A6822F02002E5
:102990004A60016C21F480710164016CC90403D4A4
:1029A000016C41F00101016402F0D4FE10BD806BA6
:1029B000C26CBDE810400846104710B5806B40213E
:1029C0000164416C41F00401416402F0C5FE10BD98
:1029D00010B5806B02F0BFFE10BD0000464910B577
:1029E0004A6822F440324A604A6843681A434A609F
:1029F00001684A6822F480724A6001684A68036983
:102A000042EA03224A6001684A6822F040724A6042
:102A100001684A6883681A434A6001688A6822F438
:102A200000628A6001688A68C3681A438A60816AA2
:102A30006FF07062D14201688A6822F070628A6029
:102A400001688A680CD0836A1A438A6001688A68C0
:102A500022F040528A6001688A68C36A1A4301E022
:102A600022F040528A6001688A6822F002028A607D
:102A700001688A68037E42EA43028A6090F8201067
:102A8000002901684A680FD042F400624A60016878
:102A90004A6822F460424A6001684A68174C436AF7
:102AA00004EB43331A4301E022F400624A600168F8
:102AB000CA6A22F47002CA620168CA6A838B104C27
:102AC00004EB03531A43CA6201688A6822F4007255
:102AD0008A6001688A6890F8303042EA43228A604E
:102AE00001688A6822F480628A6001688A684069A5
:102AF00042EA8020886010BD0023014000E0FFFF13
:102B00000000F0FF10B5044604A0FDF743FC0020D0
:102B10002070E087A4F8400010BD00005B415554D0
:102B20004F54554E455D2041626F7274656420625A
:102B30007920757365722E0D0A00000000210A4687
:102B40004254491C5C29FBD302707047007828B1BD
:102B5000062803D0072801D00120704700207047C5
:102B60002DE9F0432DED028B0446007887B0F0EE9E
:102B7000608A0D4648B1062807D0072805D00020F6
:102B800007B0BDEC028BBDE8F083002D01DA002513
:102B900002E0032D00DD032518EE900A5849884213
:102BA00002DADFED588A06E018EE900AB0F1804FA5
:102BB00001DDF0EE008AB5EEC00AF1EE10FA02DB9C
:102BC000B0EE408A01E0B1EE408A18EE100AB0F192
:102BD0007C5F01DAB6EE008A18EE100A84ED028AF4
:102BE00049496561C4ED068A884201DA782013E01C
:102BF000F0EE480A10EE900A4449884201DAB42007
:102C00000AE0F0EE480A10EE900A4149884201DAE3
:102C1000FA2001E04FF4AF70DFED3E0AA0813E499B
:102C200068EE200A10EE900AB0F17F5F02DAF7EE4C
:102C3000080A05E010EE900A884201DDF3EE040A6E
:102C4000C4ED040ADFED350A0020C4ED070AC4ED27
:102C5000080AC4ED090A84F82800B5EEC00AE0624B
:102C60002063F1EE10FAC4ED0D0AC4ED0E0A01DB8B
:102C7000012101E04FF0FF3184F83C10E087A4F817
:102C80004000C4ED120AC4ED110AC4ED150AC4EDEA
:102C9000140AC4ED130AA0650120207003F07CF92A
:102CA000606018EE900A06F079FF9FED1D0A9FED17
:102CB0001D1A064628EE000A0F46C0EE010A9FEDD7
:102CC0001A1A80EE810A10EE100A06F067FF80469D
:102CD000894618EE100A06F061FF41EC100BCDE9B1
:102CE0000467A08953EC102BCDE902500F48CDE9C1
:102CF0000089FDF74FFB0EA0FDF74CFB01203FE7DD
:102D00009A99993E9A99993E0000A040000070411E
:102D100000007042CDCCCC3D0000A041000000007E
:102D20000050C347006C2C4600007A44B8A000084D
:102D30005B4155544F54554E455D20416363656C6E
:102D4000207068617365202D2064726976696E67F2
:102D500020746F77617264207461726765742E2EBF
:102D60002E0D0A00082815D2DFE800F00406080A34
:102D70000C0E101208A0704709A070470AA07047F7
:102D80000CA070470DA070470EA070470FA07047B1
:102D900010A0704711A0704749444C450000000046
:102DA000414343454C000000574149545F5354454B
:102DB0004144590052454C41590000004D45415392
:102DC00055524500434F4D5055544500444F4E45D4
:102DD000000000004552524F520000003F0000002A
:102DE0002DE9F0432DED068B044683B0B0EE408A0A
:102DF0000078C8B1062817D0072815D003F0CCF802
:102E0000616894ED021A0746401A78EE411A94ED73
:102E1000040A4FF00A08B0FBF8F5B4EEE10AF1EE4F
:102E200010FA07D2012010E003B00020BDEC068BA1
:102E3000BDE8F083F1EE400AF4EEE10AF1EE10FA9B
:102E400002DD4FF0FF3000E00020217807264FF030
:102E5000000901290BD005234FF07C5CF6EE002A17
:102E600003293AD004297DD0052935D139E1F0EE86
:102E7000080A94ED070A71EE601AB4EEE10AF1EE69
:102E800010FA04D230EE200A84ED070A01E084ED46
:102E9000071AA08994F93C1010FB01F0B4EEC81A8F
:102EA000E087F1EE10FAA4F840000DD8032020705E
:102EB000676084ED088A84ED098A84F828900221ED
:102EC000EA48C4F8309005E0B5F5967F04D926703D
:102ED000E7A103E1FDF75EFAD5E271EE000AF4EE38
:102EE000C80AF1EE10FA05D2A18994F93C204942B2
:102EF00051430BE031EE400AB4EEC80AF1EE10FA8D
:102F000007DDA18994F93C2011FB02F1E187A4F8C7
:102F10004010F5EEC01AF1EE10FA08DD94ED080A43
:102F2000B4EEC80AF1EE10FA01D284ED088AF5EE8B
:102F3000C01AF1EE10FA08D294ED090AB4EEC80AEC
:102F4000F1EE10FA01DD84ED098AC0B394F928107E
:102F5000814234D099B3216B491C216304292ADDB5
:102F6000CA0700E043E021D1E26ABA1AB2FBF8F2E4
:102F700002B9012294ED080AD4ED090A30EE602A64
:102F800012EE108AE04501DAB0EE622A00EE102A55
:102F9000D4ED0D0AB8EE400A30EE800A84ED0D0A39
:102FA00094ED0E0A30EE020A84ED0E0A84ED088AD2
:102FB00084ED098AE762102901DB2370676084F8D9
:102FC0002800206B042809DB2078032806D1042080
:102FD00020700621B0A06760FDF7DCF9B5F5FA7F37
:102FE0007AD9206B042877DA2670BAA176E071EEE0
:102FF000000AF4EEC80AF1EE10FA05D2A18994F99C
:103000003C20494251430BE031EE400AB4EEC80A7D
:10301000F1EE10FA07DDA18994F93C2011FB02F1D1
:10302000E187A4F84010F5EEC01AF1EE10FA08DDC1
:1030300094ED080AB4EEC80AF1EE10FA01D284ED5C
:10304000088AF5EEC01AF1EE10FA08D294ED090ADA
:10305000B4EEC80AF1EE10FA01DD84ED098AA0B3DE
:1030600094F92810814230D079B3226B521C22632C
:10307000D10721D1E16A791AB1FBF8F101B9012137
:1030800094ED080AD4ED090A70EE600A10EE908AF9
:10309000E04501DAF0EE620A00EE101A94ED0D1A26
:1030A000B8EE400A31EE000A84ED0D0A94ED0E0AE6
:1030B00030EE200A84ED0E0A84ED088A84ED098A38
:1030C000E762102A01DB2370676084F82800B5F5F9
:1030D000487F85D9267000E0D5E18AA194A0A1653A
:1030E000F8E694ED0D0AB1EE089A4FF07E5180EEAD
:1030F000098A94ED0E0AC0EE098AB7EE000A18EEAE
:10310000100A884201DAB0EE408A18EE900A88422E
:1031100001DAF0EE408AA089F1EE000A00EE100A12
:1031200068EEA29AB8EE400A20EE200ADFED860A89
:1031300018EE100A854969EEA00A884280EE201A2E
:1031400084ED111A84ED128A0EDA18EE100A06F0D8
:1031500025FD41EC100B3C20009053EC102B7C48DB
:10316000FDF718F984ED129AD4ED060A9FED790A5D
:1031700094ED111A20EE800A20EE010A84ED130A64
:10318000DFED751A60EEA11A21EE812AD4ED121A34
:10319000C2EE212AC4ED142A9FED702A60EE820A45
:1031A00060EE810AB2EE001A60EEA10AC4ED150AC3
:1031B0009FED6B9AF0EE490A05F005FD84ED130AC8
:1031C00094ED140AB0EE001A9FED668AF0EE480AFC
:1031D00005F0F9FC84ED140A94ED150AB7EE081A0F
:1031E000F0EE480A05F0EFFC84ED150A606904F082
:1031F00031FD9FED5DAA08B394ED130AB0EE4A8A43
:1032000080ED000A94ED140A80ED010A94ED150A90
:1032100080ED020A94ED020A20EE080A80ED030A0E
:10322000A18949080182616900291DD001291CD0AA
:10323000022901D0B6EE008A80ED058A4BA0FDF789
:10324000A9F8A18955A0FDF7A5F819EE900A06F096
:10325000A5FC05460E4618EE900A06F09FFC41ECD0
:10326000100B53EC102BABE015E117E1F89F0008B1
:1032700054696D656F75743A206D6F746F72206359
:10328000616E6E6F7420726561636820746573741B
:1032900020737065656400005B4155544F54554E72
:1032A000455D204D65617375726520706861736559
:1032B000202D20636F6C6C656374696E67202564D4
:1032C0002066756C6C206379636C65732E2E2E0DF1
:1032D0000A00000054696D656F75743A2072656C60
:1032E0006179206F7363696C6C6174696F6E2064BF
:1032F0006964206E6F742073746162696C697365B0
:103300000000000054696D656F75743A206D656149
:10331000737572656D656E74207068617365207475
:103320006F6F6B20746F6F206C6F6E670000000012
:103330005B4155544F54554E455D204552524F52B6
:103340003A2025730D0A0000DB0F49400000C04001
:1033500040A000089A99193F9A99993F9A99993DE6
:103360009A99993E0AD7A33CCDCCCC3E0D0A5B413D
:1033700055544F54554E455D203D3D3D3D3D3D200E
:1033800054554E494E4720434F4D504C45544520CF
:103390003D3D3D3D3D3D0D0A000000005B41555463
:1033A0004F54554E455D2052656C617920616D70BA
:1033B00020203A2025752050574D0D0A00000000AE
:1033C000CDE9005637A0FCF7E5FF94ED128AB2EE86
:1033D000040A28EE000A10EE100A06F0DFFB05468C
:1033E0000E4618EE100A06F0D9FB41EC100BCDE9A1
:1033F000005653EC102B3AA0FCF7CCFF606C06F0A3
:10340000CDFB41EC100B42A053EC102BFCF7C2FF9C
:10341000E06C06F0C3FB41EC100B48A053EC102B02
:10342000FCF7B8FF206D06F0B9FB41EC100B4BA088
:1034300053EC102BFCF7AEFF606D06F0AFFB41ECD8
:10344000100B4EA053EC102BFCF7A4FF94ED020AD6
:1034500020EE0A0A10EE100A06F0A0FB41EC100B59
:103460004EA053EC102BFCF795FF54A06169FCF7BC
:1034700091FF60A0FCF78EFF062020706760A4F823
:103480003E90A4F8409003B02046BDEC068BBDE80A
:10349000F043FFF75BBB9FED638ACDE6B0EE498A50
:1034A000CAE600005B4155544F54554E455D204FD0
:1034B000736320616D70202020203A20252E316614
:1034C0002070756C73657320706B2D706B202028D5
:1034D000252E31662068616C66290D0A0000000007
:1034E0005B4155544F54554E455D20506572696F90
:1034F0006420547520203A20252E3166207469639B
:103500006B732028252E3066206D73290D0A00006C
:103510005B4155544F54554E455D204761696E20BF
:103520004B75202020203A20252E32662050574D02
:103530002F70756C73650D0A000000005B415554D7
:103540004F54554E455D2054756E6564204B702078
:1035500020203A20252E33660D0A00005B41555489
:103560004F54554E455D2054756E6564204B69205F
:1035700020203A20252E33660D0A00005B41555469
:103580004F54554E455D2054756E6564204B642044
:1035900020203A20252E33660D0A00005B41555449
:1035A0004F54554E455D20696E74656772616C5F5E
:1035B0007365703A20252E31660D0A005B41555423
:1035C0004F54554E455D205A6F6E65202564207519
:1035D0007064617465642E202054797065205354A2
:1035E0004154555320746F207665726966792E0DAB
:1035F0000A0000005B4155544F54554E455D203D37
:103600003D3D3D3D3D3D3D3D3D3D3D3D3D3D3D3DEA
:103610003D3D3D3D3D3D3D3D3D3D3D3D3D3D3D0D0A
:103620000A0D0A00CDCC4C3E0A220249024802F0A3
:103630003BB90000540600207002002000211D4A02
:10364000084600BF52F8203011FA83F1401C0A28C6
:10365000F8DB00EE101AB2EE041A1949F8EE400A2F
:1036600080EE810ADFED140A20EE200ADFED130A56
:1036700020EE200AF1EE080A60EE200AB2EE080AF7
:1036800010EE900AB0F1824F03DB10EE900A8842F0
:1036900001DDF0EE400A0B489FED0B1A90ED000A99
:1036A00020EE010A9FED091A00EE810A80ED000A62
:1036B0007047000054060020000080393333534027
:1036C00000007041580000206666663FCDCCCC3DBE
:1036D00008B5084900E000BF0A681206FBD548603B
:1036E00000200090044800BF0099491C00918142CD
:1036F000F9D308BD00100140400D0300FEE70000B3
:1037000010B504463C21FDF755F99FED1B0AF3EE79
:103710000E0A84ED000AB0EE080A84ED010A9FED5E
:10372000170A002084ED020AB1EE040A84ED030AB0
:103730009FED130A84ED040AC4ED050ADFED110ABA
:10374000C4ED060AF0EE000AC4ED070AF2EE000A24
:10375000C4ED080ADFED0C0AC4ED090A84ED0A0A7B
:1037600084ED0B0A84F8300084F831006086A0866E
:10377000E086208710BD00000AD7A33B52B87E3FE9
:10378000000000000AD7A33CCDCC4C3E90ED040ACB
:10379000F6EE000A002120EE200A80ED040A9FEDDB
:1037A000050A80ED0A0A80ED0B0A80F8301080F8D7
:1037B00031107047000000002DE9F04704462DED60
:1037C000088B16468846B0EE61BAF0EE41BA008F1B
:1037D000F0EE609A401CB0EE40AA2087DFEDAFAA61
:1037E0000020C4ED0AAAC4ED0BAA84F8300084F8C6
:1037F000310091ED008AD6ED008A38EE680A05F0B6
:1038000020FA10EE100A4FF00109B0F17F5F01DDE0
:1038100084F83090B0EE480A05F013FAB0EE409A02
:10382000B0EE680A05F00DFAB4EEC09AF1EE10FAA7
:1038300001DDB0EE490A10EE105A3AEE699A94F89A
:1038400030004FF07C5790BBBD423FDD94ED040A41
:10385000D4ED020A30EE090A20EE200A84ED040AB3
:1038600005F0EFF9D4ED030AF4EEC00AF1EE10FA18
:1038700036D230EE600AD4ED000A94ED011A20EE43
:10388000800AF0EE6A0A05F0AEF9D4ED040AF5EE0E
:10389000C00AF1EE10FAD4ED0A0A09DD70EEC00A92
:1038A000C4ED0A0AD4ED0B0A30EE800A08E00DE000
:1038B00070EE800AC4ED0A0AD4ED0B0A30EEC00A9D
:1038C00084ED0B0A608E401C608609E0BD4207DC77
:1038D00094ED040ADFED720A20EE200A84ED040A5A
:1038E00094F8300038B194ED040ADFED6E0A20EE52
:1038F000200A84ED040A3BEECBBAB0EE4B0A05F089
:10390000A0F9D4ED050AF4EEC00AF1EE10FA27D2C0
:1039100030EE600AD4ED060A94ED071A20EE800A14
:10392000F0EE6A0A05F05FF994F8300018B1F6EE8F
:10393000000A20EE200AB5EEC0BAF1EE10FA06DD5C
:10394000D4ED0B0A30EEC00A84ED0B0A05E0D4ED8D
:103950000A0A30EEC00A84ED0A0AA08E401CA08636
:1039600094F83000B8BBBD4235DDB0EE490A05F031
:1039700068F9D4ED080AF4EEC00AF1EE10FA2AD282
:103980003AEE480A05F05DF9F0EE40AA39EEE80A91
:1039900005F057F9F0EE400AF4EEE0AAF1EE10FA65
:1039A00094ED090A0ADD79EECA0A20EE200AD4ED68
:1039B0000A0A30EE800A84ED0A0A07E020EE090ABE
:1039C000D4ED0B0A30EE800A84ED0B0A84F83190B6
:1039D000E08E401CE08694ED010A94ED071AB4EEE7
:1039E000C10AF1EE10FA01DDB0EE401A94ED0A0AB8
:1039F000B0EE419AF1EE490AF0EE609A05F0F3F864
:103A000084ED0A0A94ED0B0AB0EE491AF0EE690A49
:103A100005F0E9F884ED0B0AD4ED0A0A18EE100A55
:103A200030EE280A70EE880A4FF03F41BEEE001AD1
:103A3000B84204DDF5EEC00AF1EE10FA08D318EE34
:103A4000100A88420AD9F5EEC00AF1EE10FA05DD37
:103A500068EE010AC4ED0A0A70EE880A18EE900AB0
:103A6000B84204DDB5EEC00AF1EE10FA08D318EE44
:103A7000900A88420AD9B5EEC00AF1EE10FA05DDC7
:103A800028EE810A84ED0B0A30EE280AC8ED000A00
:103A900086ED000ABDEC088BBDE8F0870000000051
:103AA0006666663F48E17A3F10B51CA0FCF772FCE1
:103AB00023A0FCF76FFC27A0FCF76CFC32A0FCF7FE
:103AC00069FC3EA0FCF766FC46A0FCF763FC50A036
:103AD000FCF760FC53A0FCF75DFC60A0FCF75AFC0F
:103AE00068A0FCF757FC6AA0FCF754FC77A0FCF731
:103AF00051FC83A0FCF74EFC8AA0FCF74BFC96A07F
:103B0000FCF748FCA1A0FCF745FCA3A0FCF742FC95
:103B1000BDE81040AAA0FCF73DBC000020203D3DC0
:103B20003D3D3D2053544D3332204465627567203E
:103B3000436F6E736F6C65203D3D3D3D3D0D0A004A
:103B400020204D6F746F7220436F6E74726F6C3AE9
:103B50000D0A0000202020204C3C76616C75653EEB
:103B600020202020202020202020736574206C65D8
:103B70006674202073706565642028652E672E208A
:103B80004C313030290D0A0020202020523C766133
:103B90006C75653E20202020202020202020736589
:103BA0007420726967687420737065656420286585
:103BB0002E672E2052323030290D0A00202020207E
:103BC0004C52203C4C3E203C523E202020202020C5
:103BD000202073657420626F74682073706565645B
:103BE000730D0A002020202053544F502020202005
:103BF0002020202020202020202073746F7020623D
:103C00006F7468206D6F746F72730D0A000000008E
:103C10002020504944204175746F2D54756E653ACB
:103C20000D0A00002020202054554E45203C6D6D8B
:103C30005F733E205B435D2020206175746F2D749F
:103C4000756E65205049442028652E672E205455F6
:103C50004E4520333030290D0A000000202020205E
:103C600054554E452053544F5020202020202020D2
:103C7000202061626F72742074756E696E670D0A20
:103C8000000000002020496E666F3A0D0A00000017
:103C90002020202053544154555320202020202000
:103CA0002020202020207072696E7420766F6C7442
:103CB0006167652F73706565642F50574D2F7A6F5C
:103CC0006E65206761696E730D0A00002020202058
:103CD000494E464F20202020202020202020202038
:103CE00020207072696E7420636869702F66697233
:103CF0006D7761726520696E666F0D0A00000000C5
:103D00002020555341525432205465737420285258
:103D1000444B2058352070726F746F636F6C293A72
:103D20000D0A00002020202054455354203C4C3ED6
:103D3000203C523E20202020202073656E6420739A
:103D400070656564206672616D65206F6E205553E5
:103D5000415254320D0A00002020202053454E4489
:103D6000203C6865783E202020202020202073659C
:103D70006E6420726177206279746573206F6E20A3
:103D80005553415254320D0A0000000020204F7458
:103D90006865723A0D0A00002020202048454C50EA
:103DA000206F72203F2020202020202020207368B8
:103DB0006F7720746869732068656C700D0A000065
:103DC00020203D3D3D3D3D3D3D3D3D3D3D3D3D3D5D
:103DD0003D3D3D3D3D3D3D3D3D3D3D3D3D3D3D3D13
:103DE0003D0D0A002DE9F04186B005A9684602F0B4
:103DF000ABF902F0EFF9074602F0C6F9064602F009
:103E0000C9F9804602F0D6F905461E4800688003CD
:103E100001D51DA407E01B4808300068400701D504
:103E20001FA400E01FA42AA0FCF7B4FA2FA0FCF7FF
:103E3000B1FA38A0FCF7AEFA3CA0FCF7ABFA214689
:103E400043A0FCF7A7FA464C46A0B7FBF4F1FCF7F9
:103E5000A1FAB6FBF4F149A0FCF79CFAB8FBF4F127
:103E60004CA0FCF797FAB5FBF4F150A0FCF792FADE
:103E700054A0FCF78FFA60A0FCF78CFA06B0BDE8FE
:103E8000F0810000003802404853452028657874CE
:103E900065726E616C206372797374616C290000C5
:103EA000485345004853492028696E7465726E6115
:103EB0006C2031364D487A202D20485345206661CC
:103EC000696C6564206F7220616273656E7429008D
:103ED00020203D3D3D3D3D2053595354454D204903
:103EE0004E464F203D3D3D3D3D0D0A00202043689C
:103EF00069703A2020202053544D333246343037F5
:103F00005A4754782028436F727465782D4D3429B0
:103F10000D0A00002020466C6173683A2020203191
:103F2000303234204B420D0A000000002020524164
:103F30004D3A2020202020313932204B4220283198
:103F400032382B36342043434D290D0A000000003F
:103F50002020436C6F636B3A20202025730D0A00EC
:103F600040420F002020535953434C4B3A20202508
:103F70006C75204D487A0D0A00000000202048434F
:103F80004C4B3A20202020256C75204D487A0D0A94
:103F900000000000202050434C4B313A20202025C7
:103FA0006C75204D487A0D0A000000002020504317
:103FB0004C4B323A202020256C75204D487A0D0A52
:103FC0000000000020204657205665723A202076D7
:103FD000312E3320285049442B444F422B43545315
:103FE0002B4175746F54756E652B426174436F6D10
:103FF00070290D0A0000000020203D3D3D3D3D3D63
:104000003D3D3D3D3D3D3D3D3D3D3D3D3D3D3D3DE0
:104010003D0D0A0070B5A2B00025209500E0401CBF
:1040200001782029FBD004466E4621E0641C2078EC
:104030002028FBD010F0FF001ED08DF8800014F86F
:10404000010FC8B18DF88100102221A920A8641C9D
:10405000FCF7ECFB219A0DF182018A4205D020A9E0
:1040600015A0FCF797F922B070BD70556D1CADB26C
:10407000207808B1802DDAD34DB12946684604F086
:1040800051FC294614A0FCF785F9002406E01AA08B
:104090000EE0315D25A0FCF77DF9641CAC4201DA2D
:1040A000202CF6DB202D02D922A0FCF773F909A001
:1040B000FCF770F9D7E7000020205B4552525D20E5
:1040C000496E76616C6964206865782062797465F0
:1040D0003A2025730D0A000020205B53454E445DB5
:1040E000202564206279746573206F6E20555341DA
:1040F0005254323A0000000020205B4552525D20AD
:104100004E6F206461746120746F2073656E642E3D
:104110002055736167653A2053454E44203C6865DD
:10412000782062797465733E0D0A000020253032D4
:1041300058000000202E2E2E000000002DE9F04F28
:104140002DED028B8BB0AFA0FCF724F9B34E96EDAA
:10415000000A10EE100A05F021FDB14F04460D468D
:1041600097ED000A10EE100A05F018FD41EC100B57
:10417000ACA053EC102BCDE90045FCF70BF9B04D8A
:10418000B04CB1A02A682168FCF704F920682968BE
:1041900008430FD197ED000AB5EEC00AF1EE10FA10
:1041A00006D196ED000AB5EEC00AF1EE10FA01D084
:1041B000ABA000E098A0FCF7EDF8B248006805F06D
:1041C000EDFC0446B0480D46006805F0E7FC41EC04
:1041D000100BAEA053EC102BCDE90045FCF7DAF83C
:1041E000B448006805F0DAFC0446B3480D460068A0
:1041F00005F0D4FC41EC100BB0A053EC102BCDE932
:104200000045FCF7C7F8B94EF06A05F0C7FCB84F97
:1042100004460D46F86A05F0C1FC41EC100BB5A050
:1042200053EC102BCDE90045FCF7B4F8B06C05F069
:10423000B5FC04460D46B86C05F0B0FC41EC100B23
:10424000B6A053EC102BCDE90045FCF7A3F801F024
:10425000EFF8044601F080F801462246B9A0FCF7C9
:1042600099F8DFF81483D8F82C0005F097FC06467F
:104270000F46D8F8280005F091FC04460D46D8F802
:10428000100005F08BFC41EC100BB8F83410B8F8B6
:104290003600B8F83220CDE9042106908DE8F00010
:1042A00053EC102BB5A0FCF775F8C348DFEDC30A3B
:1042B0000568B5F1824F02DD01EE105A01E0B0EE63
:1042C000601A80EE810A10EE100A05F067FC0646BF
:1042D0000F46284605F062FC41EC100BB8A053ECE9
:1042E000102BCDE90067FCF755F801F055FE0146AB
:1042F000BDA0FCF74FF8C1484168C1A0FCF74AF8DF
:10430000C9484168C9A0FCF745F8D348FEF71EFC30
:10431000D14C98B1A06805F041FC41EC180B207815
:10432000FEF720FD0146206B53EC182B00EBD070FC
:1043300040100090C9A0FCF72DF807E0207806286F
:104340003FD0072857D0D1A0FCF724F8002083469F
:1043500003F070FC0446406905F020FC07468846DF
:10436000E06805F01BFCCDE90001A06805F016FC33
:1043700081468A46606805F011FC05460E462068B5
:1043800005F00CFCCDE9087841EC100B208A069072
:10439000DDE90001CDE904018DE8600653EC102B46
:1043A0005946BF48FBF7F6FF0BF10100834604288E
:1043B000CEDB0BB0BBA0BDEC028BBDE8F04FFBF732
:1043C000E9BFA046606D05F0E9FB06460F46D8F848
:1043D000500005F0E3FB04460D46D8F84C0005F00C
:1043E000DDFB8DE8F00041EC100BB4A053EC102B7A
:1043F000FBF7D0FFAAE7A16D01B9BBA1BCA0FBF7F9
:10440000C9FFA3E720203D3D3D3D3D20535441548D
:104410005553203D3D3D3D3D0D0A00008C000020E0
:104420008800002020205461726765743A20204C77
:104430003D252E30662020523D252E30660D0A0087
:1044400004000020000000202020456E636F64659A
:10445000723A204C3D25642020523D2564202000E6
:10446000284E4F20454E434F444552202D20505753
:104470004D2077696C6C207361747572617465216D
:10448000290D0A000C0000200800002020205057B1
:104490004D206F75743A204C3D252E3066202052F9
:1044A0003D252E30662020284152523D3939392988
:1044B0000D0A000014000020100000202020444FAE
:1044C00042206573743A204C3D252E3066202052E0
:1044D0003D252E30662020286469737475726261F0
:1044E0006E63652050574D290D0A000054010020CD
:1044F0000001002020204672696374696F6E3A20C3
:104500004C3D252E30662020523D252E3066202041
:10451000286C6561726E6564290D0A0020204B5F6E
:10452000616363656C3A20204C3D252E3366205232
:104530003D252E33662028616363656C204646293D
:104540000D0A000020204F75746C696572733A2063
:104550004C3D25642020523D2564202028656E6353
:104560006F64657220676C6974636820636F756E31
:10457000746572290D0A0000340200202020435483
:10458000533A2020202020207961773D252E316666
:1045900020626961733D252E31662F252E316620FC
:1045A000206576743A20593D256420423D256420DB
:1045B000433D25640D0A0000180000209A994941E6
:1045C0002020426174746572793A20252E3266206B
:1045D00056202028636F6D70207363616C653A20EC
:1045E000252E3266290D0A002020557074696D65EC
:1045F0003A2020256C75206D730D0A0004050020FB
:1046000020205553415254313A2020256C752062A8
:1046100061756420287468697320636F6E736F6CB2
:1046200065290D0A000000004C050020202055538C
:10463000415254323A2020256C7520626175642005
:10464000444D41202852444B2058352070726F74DD
:104650006F636F6C290D0A00A801002020204175AE
:10466000746F54756E653A202573207C20746774CE
:104670003D252E316620702F7469636B202063798D
:10468000636C65733D25640D0A00000020204175B0
:10469000746F54756E653A2069646C650D0A00008C
:1046A000B49F000820203D3D3D3D3D3D3D3D3D3D0D
:1046B0003D3D3D3D3D3D3D3D0D0A00002020417505
:1046C000746F54756E653A20444F4E4520204B70F0
:1046D0003D252E3366204B693D252E3366204B64E5
:1046E0003D252E33660D0A00756E6B6E6F776E007A
:1046F00020204175746F54756E653A204552524FB3
:1047000052202D2025730D0A0000000030B587B01F
:1047100005B2AA208DF80C0055208DF80D008120DF
:104720008DF80E0004208DF80F000CB28DF810509B
:10473000280A8DF811008DF81240200A8DF8130018
:1047400006210DF10E0004F05EFA010A8DF8141036
:104750008DF815000A2103A804F0E4F80DA0FBF77A
:1047600019FE9DF813009DF815209DF814108DE892
:1047700007009DF812309DF811209DF810100FA031
:10478000FBF708FE224629461AA0FBF703FE07B0F6
:1047900030BD000020205B544553545D2053656EAE
:1047A000742052444B205835206672616D65206F2D
:1047B0006E205553415254323A0D0A0020202020D9
:1047C0002020202020414120353520383120303430
:1047D00020253032582025303258202530325820BC
:1047E00025303258202530325820253032580D0AD5
:1047F0000000000020202020202020202053706571
:1048000065643A204C3D256420523D25640D0A0024
:1048100010B52DED028B82B0044600E0641C2078B8
:104820002028FBD0042259A12046FCF756F8A8B155
:10483000042258A12046FCF750F878B15748FEF7FB
:1048400085F9B0B155480078FEF78CFA0146544816
:10485000FBF7A0FD02B0BDEC028B10BD4F48FEF788
:1048600075F920B14D48FEF74DF94EA084E055A0F2
:1048700082E000200090B7EE000A8DED010A01AB46
:104880006A465AA12046FBF70DFF012802DB00987B
:1048900000280DDC57A0FBF77DFD64A0FBF77AFD37
:1048A00071A0FBF777FD80A0FBF774FD8EA063E09D
:1048B00000EE100AB8EEC00ADFED970A20EE208A5B
:1048C00018EE100AB0F1804F01DA00240EE018EE65
:1048D000100A9249884201DA012407E018EE100A12
:1048E0008F49884201DA022400E003249FED8D0AFB
:1048F0008D4880ED000A8D4880ED000A8C4803F059
:10490000E9F98C4803F0E6F900F03EFE8A48FEF72C
:104910003DFF8AA0FBF73EFD18EE100A05F03EF9B8
:1049200041EC100B8EA053EC102B0099FBF732FDDD
:10493000002C24D0012C24D0022C24D094A2214677
:1049400095A0FBF727FD019805F028F941EC100B25
:1049500098A053EC102BFBF71DFD9F48FBF71AFDA9
:10496000DDED010A2146B0EE480A0C48FEF7F8F8E2
:1049700000287FF46FAF99A0FBF70CFD6AE703A254
:10498000DDE7A2A2DBE7A2A2D9E7000053544F5013
:104990000000000073746F7000000000A801002088
:1049A0006C9F000820205B4F4B5D204175746F2D7C
:1049B00074756E696E672061626F727465642E0D26
:1049C0000A00000020205B494E464F5D204175746F
:1049D0006F2D74756E6572206973206E6F7420720E
:1049E000756E6E696E672E0D0A0000002564202525
:1049F0006600000020205B4552525D2055736167C0
:104A0000653A2054554E45203C73706565645F6D72
:104A10006D5F733E205B636F6E7365727661746960
:104A200076656E6573735D0D0A00000020202020FE
:104A300020202020652E672E2054554E45203330EF
:104A400030202020202020202D2074756E652061CC
:104A50007420302E33206D2F7320287374616E64A0
:104A6000617264290D0A00002020202020202020CF
:104A7000652E672E2054554E452036303020302E7E
:104A8000352020202D2074756E6520617420302E15
:104A900036206D2F732028636F6E73657276617494
:104AA000697665290D0A0000202020202020202082
:104AB000652E672E2054554E452033303020312E40
:104AC000352020202D2074756E6520617420302ED5
:104AD00033206D2F73202861676772657373697661
:104AE00065290D0A00000000202020202020202021
:104AF000652E672E2054554E452053544F5020208C
:104B0000202020202D2061626F72742074756E69E0
:104B10006E670D0A000000002EFFE13D00007041AD
:104B20000000704200000000880000208C0000207F
:104B300000010020540100203402002020205B549A
:104B4000554E455D205374617274696E67206175BE
:104B5000746F2D74756E652E2E2E0D0A00000000E8
:104B600020202020202020202053706565643A20DA
:104B70002564206D6D2F73203D20252E3166207019
:104B8000756C7365732F31306D730D0A0000000072
:104B900048494748000000002020202020202020F5
:104BA000205A6F6E653A20256420282573290D0A46
:104BB00000000000202020202020202020436F6EB5
:104BC0007365727661746976656E6573733A2025D4
:104BD0002E31660D0A000000289F000820205B454A
:104BE00052525D204661696C656420746F20737455
:104BF000617274206175746F2D74756E65722028F2
:104C0000627573793F292E0D0A0000004C4F570042
:104C10004D454400014800F04FBF000094050020BE
:104C2000014800F049BF0000F4050020014800F0F1
:104C300043BF000000030020014800F03DBF00001A
:104C400044040020014800F037BF0000A404002005
:104C500001681823CAB2103AB2FBF3F2054B6FF3A6
:104C60000901032A9B5CC36500D9091D81650846BB
:104C700070470000A09D000810B5014600208B6918
:104C80008A6A4FF0C07453B1B3F5005F15D072B1AA
:104C9000012A0CD0022A0AD0032A09D104E01AB151
:104CA000012A06D0022A03D1C96AC90100D5012010
:104CB00010BDC96AA142FAD010BD002AF7D0012A5E
:104CC000F2D0022AF3D0032AF3D010BD30B5046825
:104CD000256825F480252560046863608368402B7F
:104CE000036803D099600068C26030BD9A600068B4
:104CF000C16030BD10B504462DED048BB0EE418A85
:104D0000F0EE608AB0EE409A1821FBF753FE19EEE0
:104D1000101A1148814201DC9FED109A18EE901A8A
:104D200084ED009A814201DCDFED0D8A18EE101A45
:104D3000C4ED018A814201DC9FED0A8A9FED0A0AD7
:104D400084ED028A84ED030A84ED040A84ED050AE9
:104D5000BDEC048B10BD00006F12833A0AD7A33D4F
:104D6000CDCC4C3D6666663F0000000090ED030A26
:104D7000DFED060A20EE200A80ED030A9FED040A0B
:104D800080ED040A80ED050A70470000CDCC4C3F51
:104D90000000000090ED041A90ED052A1D4A70EE07
:104DA000411A90ED001A21EE021A90ED012A71EEDF
:104DB000C11A90ED031A71EEC11A02EE211A11EE1A
:104DC000101A80ED031A914203DD9FED131A80ED56
:104DD000031A11EE101A114A914203D99FED101ACD
:104DE00080ED031A80ED040AC0ED050A90ED020A79
:104DF0000C4A0D4920EE010A10EE100A904202DD25
:104E00009FED0A0A704710EE100A8842FAD99FED0A
:104E1000080A70470000FA430000FA430000FAC392
:104E20000000FAC30000C8430000C8C30000C84324
:104E30000000C8C37047000010B5012206490748AA
:104E400002F01AF906A0FBF7A5FAFEF7CBFFBDE8C2
:104E50001040FEF729BE000092000020040500204B
:104E60001B5B324A1B5B4800F0B5974C93B06078EF
:104E700000287CD03F2295496846FBF7C2FD0025FB
:104E80008DF83F5065706C4600E0641C2078202847
:104E9000FBD021468EA0FBF77DFA04228EA120468E
:104EA000FBF71BFD8E4E8F4F00287CD004228EA175
:104EB0002046FBF712FD0028F7D003228CA12046E4
:104EC000FBF70BFD00286FD003228AA12046FBF7D9
:104ED00004FD0028F7D0042287A12046FBF7FDFC43
:104EE00000287DD0042286A12046FBF7F6FC00288E
:104EF000F7D0052284A12046FBF7EFFC002870D0F4
:104F0000052283A12046FBF7E8FC0028F7D0052204
:104F100081A12046FBF7E1FC002870D0052280A18A
:104F20002046FBF7DAFC0028F7D020784C2867D021
:104F30006C28FCD0522878D07228FCD006227AA1A6
:104F40002046FBF7CAFC002870D0062278A1204634
:104F5000FBF7C3FC0028F7D0042277A12046FBF71B
:104F6000BCFC002872D0042275A1204600E023E09A
:104F7000FBF7B3FC0028F5D0042273A12046FBF711
:104F8000ACFC002878D0042271A12046FBF7A5FCD8
:104F90000028F7D0012270A12046FBF79EFC0028D4
:104FA000F0D0204601E009E01EE0FBF777FC002886
:104FB00002D06AA0FBF7EEF913B0F0BD9FED730AC3
:104FC000734886ED000A87ED000A02F083FE7148FF
:104FD00002F080FE00F0D8FA6F48FEF7D7FB01E040
:104FE00025E028E06DA0E5E7109511AB10AA77A1A8
:104FF000E01C1195FBF756FB022804D001E02DE0E0
:1050000030E074A0D6E710997EA000EE101AB8EE3A
:10501000C00A86ED000A119A00EE102AB8EEC00A06
:1050200087ED000AFBF7B6F9C6E72FE043E0201D45
:10503000FFF7EEFBC0E7109511AB10AA63A1601D4E
:105040001195FBF72FFB022803D000E036E074A097
:10505000B0E7DDE91001FFF759FBADE7601DFEF792
:10506000D9FFA9E710AA7BA1601C1095FBF71AFBDA
:10507000012802D078A09DE723E0109982A000EEDD
:10508000101AB8EEC00A86ED000A11E010AA71A14C
:10509000601C1095FBF706FB012801D081A089E771
:1050A00010998CA000EE101AB8EEC00A87ED000A25
:1050B000FBF770F980E7FFF741F87DE7FEF792FE16
:1050C0007AE7FEF7F1FC77E790000020DC0600208D
:1050D0003E2025730D0A000053544F50000000007D
:1050E000880000208C00002073746F7000000000A6
:1050F0004C5220006C72200054554E4500000000B8
:1051000074756E6500000000544553542000000083
:10511000746573742000000053454E442000000065
:1051200073656E64200000005354415455530000D1
:105130007374617475730000494E464F000000009F
:10514000696E666F0000000048454C50000000008A
:1051500068656C70000000003F00000020205B4587
:1051600052525D20556E6B6E6F776E20636F6D6D62
:10517000616E642E20547970652048454C5020663D
:105180006F72206C6973742E0D0A0000000000001D
:1051900000010020540100203402002020205B4F39
:1051A0004B5D20426F7468206D6F746F7273207353
:1051B000746F7070656420285049442B4354532009
:1051C0007265736574290D0A0000000025642025AE
:1051D0006400000020205B4552525D2055736167DA
:1051E000653A204C52203C6C6566745F737065654F
:1051F000643E203C72696768745F73706565643EE5
:105200000D0A000020205B4F4B5D205461726765E2
:10521000743A204C3D25642020523D25640D0A003F
:1052200020205B4552525D2055736167653A2054DA
:10523000455354203C6C6566745F73706565643ECD
:10524000203C72696768745F73706565643E0D0A1F
:10525000000000002564000020205B4552525D20C4
:1052600055736167653A204C3C76616C75653E20EC
:105270002028652E672E204C313030206F72204C54
:105280002D3530290D0A000020205B4F4B5D204C4E
:1052900065667420746172676574203D2025640D15
:1052A0000A00000020205B4552525D205573616763
:1052B000653A20523C76616C75653E202028652E4B
:1052C000672E2052323030206F7220522D31303014
:1052D000290D0A0020205B4F4B5D205269676874DE
:1052E00020746172676574203D2025640D0A0000FA
:1052F0000D48016841F001010160BFF34F8F0B4879
:10530000016821F4403141F480310160416821F4A9
:1053100080714160816821F440318160C16821F46D
:105320004031C16070470000303802400000024048
:105330000248416981F48071416170470000024078
:1053400001480069704700005C0000200148406986
:10535000704700005C000020014840897047000051
:105360005C0000200148B0F9060070475C00002096
:1053700010B528482DED028BB0EE408A0068406AD7
:10538000254C61886080411A207809B210B1002054
:10539000207001464842216900B20144216118EEA3
:1053A000101A1E4B1E4AE080994202DA9FED1D8AB8
:1053B00005E018EE101A914201DD9FED1B8A00EE08
:1053C000100AF8EEC00A94ED060A70EEC08A04F0E6
:1053D000ABF9F4EEC08AF1EE10FA06DCB1EE400A49
:1053E000F4EEC08AF1EE10FA06D260899FED0F0A42
:1053F000401C608128EE008A94ED060A08EE280A17
:1054000084ED060ABDEEC00ABDEC028B10EE100A58
:1054100010BD0000B40300205C000020CDCC4C3D4A
:105420003333733FCDCC4C3D3333733F9A99193EA0
:1054300001488089704700005C0000200148B0F9F5
:10544000080070475C00002010B526482DED028B47
:10545000B0EE408A0068416A234CA088A180081AF7
:10546000617800B209B10020607061691F4B01448E
:10547000616118EE101A1E4A2081994202DA9FEDEE
:105480001D8A05E018EE101A914201DD9FED1A8A7F
:1054900000EE100AF8EEC00A94ED070A70EEC08A1A
:1054A00004F042F9F4EEC08AF1EE10FA06DCB1EE37
:1054B000400AF4EEC08AF1EE10FA06D2A0899FED00
:1054C0000F0A401CA08128EE008A94ED070A08EE1E
:1054D000280A84ED070ABDEEC00ABDEC028B10EE6F
:1054E000100A10BDFC0300205C000020CDCC4C3D18
:1054F0003333733FCDCC4C3D3333733F9A99193ED0
:1055000070B586B014216846FBF754FA02240125D1
:10551000CDE901452020174E009069463046CDE97F
:10552000034500F03BFC08200090694604951248B2
:1055300000F034FC4020009069460494304600F0AE
:105540002DFC80200090694604940C4800F026FC55
:105550003C210B4801F0D0F83C210A4801F0CCF87E
:10556000074900200968486206490968486206B090
:1055700070BD00000000024000040240000802402C
:10558000B4030020FC03002007489FED060A002119
:1055900080ED060A80ED070AC18001814181818189
:1055A00070470000000000005C00002072B600BFE1
:1055B000FDE7000010B590F83C20012A1FD0012221
:1055C00000F83C2F0F4A536823F01F0353605368C1
:1055D0000C6823435360536823F44043536053687B
:1055E0004C6823435360536823F4706353605368DB
:1055F00089680B43536000210170084610BD0220EA
:1056000010BD00000023014078B50024009490F8FC
:105610003C20012A19D0012280F83C200A68072387
:105620000568092A13D9EE680A3A02EB4202934050
:105630009E43EE600B788A680A3B03EB43039A4073
:105640000368DD682A43DA6010E0022078BD2E6925
:1056500002EB420293409E432E610B788A6803EB73
:1056600043039A4003681D692A431A614A681F234D
:10567000072A13D205686E6B521E02EB820293401A
:105680009E436E630B790A885B1E92B203EB830321
:105690009A4003685D6B2A435A6327E005680D2A28
:1056A00012D22E6BD21F02EB820293409E432E63D6
:1056B0000B790A88DB1F92B203EB83039A400368DD
:1056C0001D6B2A431A6311E0EE6A0D3A02EB820267
:1056D00093409E43EE620B790A880D3B92B203EB36
:1056E00083039A400368DD6A2A43DA62164B056831
:1056F000144A9D4206D10D68122D03D1556845F418
:105700008005556005689D4218D10B68102B01D0AB
:10571000112B13D1536843F4000353600968102917
:105720000CD10A490A4A0968B1FBF2F101EB810187
:10573000490000E0491E00910029FBD180F83C405F
:10574000002078BD002301400020014054000020CB
:1057500040420F0070477047704770B504004FF02B
:10576000000503D0206C002610B107E0012070BDB9
:10577000204600F01DF8666484F83C60206CC0068A
:1057800010D4206C20F4885040F0020020642046A1
:10579000FDF724F96664206C20F0020040F001005F
:1057A000206400E0012584F83C60284670BD0000BC
:1057B00070B586B0064614216846FBF7FBF83349FE
:1057C000314B326800253148143903249A4240D1C4
:1057D000026842F480720260006800F480700590F4
:1057E000086840F001000860086800F001000590BA
:1057F000086840F0020008600868694600F002008E
:10580000059080208DE83100214800F0C7FA012082
:105810008DE8310069461F4800F0C0FA1F4C1E4851
:10582000C4E900050015A560C4E90350800060616B
:105830008000A0618011E0610002C4E908052046F3
:1058400000F00AFA08B1FFF7B1FEB463A66306B030
:1058500070BD134B9A42FAD1026842F400720260A2
:10586000006800F400700590086840F004000860CB
:105870000868694600F00400059030208DE831008A
:10588000084800F08BFAE2E700200140443802406B
:1058900000000240000402401064024000030020A7
:1058A0000021014000080240F8B50E4600210446E0
:1058B000009190F83C0013460A46012807D00120C9
:1058C00084F83C0020688568ED0702D011E00220D2
:1058D000F8BD856845F0010585604048404D006889
:1058E000B0FBF5F000EB400000E0401E0090002807
:1058F000FBD120688568ED0503D5856825F48075A2
:10590000856020688568ED075DD0226C40F20165F6
:10591000AA4342F4807222644068400505D5206C99
:1059200020F4005040F480502064206CC00404D562
:10593000606C20F00600606400E0616484F83C1054
:10594000A16B2948274DC863A16B28480864A16B47
:105950002748C86421686FF0220008602068416809
:1059600041F0806141602068816841F4807181600C
:10597000216832464C31A06B00F0D8F902466868C5
:105980001C49C006206806D0884224D1816811F0E5
:10599000405F13D01FE08842F8D0174B984203D1E4
:1059A000D1F80433DB06F1D0144B984213D1D1F86F
:1059B000041301F01F011029E8D30CE0816841F0C5
:1059C0008041816007E0206C40F010002064606C32
:1059D00040F0010060641046F8BD00005400002053
:1059E00040420F00002301404D290008D129000842
:1059F000BB29000800200140002101400022014095
:105A00002DE9F0410446876D00F0C6FA064694F889
:105A100035000025022806D08020606584F83450C7
:105A20000120BDE8F0812068016821F016010160C5
:105A30002068416921F080014161206C08B9A06CA7
:105A400020B12068016821F0080101602068016828
:105A500021F0010101600CE000F09EFA801B052896
:105A600007D920206065032084F8350084F834507D
:105A7000D7E720680068C007EED194F85C103F209B
:105A80008840B860012084F8350084F83450002044
:105A9000C7E790F83510022903D080214165012025
:105AA0007047052180F835100068016821F0010178
:105AB00001600020704700002DE9F84304464FF0D4
:105AC0000009CDF8009063484FF41651A56D0068A9
:105AD000B0FBF1F72E6894F85C10082000FA01F191
