:020000040800F2
:10000000C00B0020650200086D550008954F0008E0
:100010008954000855210008F9610008000000001B
:100020000000000000000000000000000D59000862
:10003000C52C000800000000795700080F5900087F
:100040007F0200087F0200087F0200087F0200088C
:100050007F0200087F0200087F0200087F0200087C
:100060007F0200087F0200087F0200087F0200086C
:100070007F0200087F0200087F0200087F0200085C
:10008000E52B0008F12B00087F0200087F02000822
:100090007F0200087F0200087F0200087F0200083C
:1000A0007F020008255900087F0200087F0200082F
:1000B000315900087F0200087F0200087F02000813
:1000C0007F0200087F0200087F0200087F0200080C
:1000D0007F0200087D610008A56100087F0200081A
:1000E0007F0200087F0200087F0200087F020008EC
:1000F0007F0200087F0200087F0200087F020008DC
:100100007F0200087F0200087F0200087F020008CB
:100110007F0200087F0200087F0200087F020008BB
:10012000FD2B0008092C0008152C00087F02000890
:100130007F0200087F0200087F0200087F0200089B
:100140007F0200087F0200087F0200087F0200088B
:100150007F0200087F0200087F0200087F0200087B
:100160007F0200087F0200087F0200087F0200086B
:100170007F0200087F0200087F02000800000000E4
:100180007F0200087F02000800F002F800F05BF830
:100190000AA090E8000C82448344AAF10107DA45E2
:1001A00001D100F050F8AFF2090EBAE80F0013F0D9
:1001B000010F18BFFB1A43F0010318472469000020
:1001C00044690000103A24BF78C878C1FAD85207B1
:1001D00024BF30C830C144BF04680C6070470000C1
:1001E0000023002400250026103A28BF78C1FBD840
:1001F000520728BF30C148BF0B607047662906F020
:10020000C783642900F02281752900F01F817829B5
:1002100000F05881732900F08786002070471FB5D1
:1002200006F0B1FB00F050FF04000020002106F0B2
:1002300007FB401C60600020002106F017FBE06017
:100240001FBD10B510BD01F019FA1146FFF7E7FF09
:1002500006F010F801F037FA03B4FFF7F2FF03BC21
:1002600005F0FAFF0948804709480047FEE7FEE726
:10027000FEE7FEE7FEE7FEE7FEE7FEE7FEE7FEE756
:1002800004480549054A064B704700001559000807
:1002900089010008C0050020C00B0020C007002015
:1002A000C0070020704753EA020C00F069802DE976
:1002B000F04B4FF00006002B1FBFB3FA83F503FA93
:1002C00005F424FA05F65E4012BF1643B2FA82F531
:1002D00002FA05F4C5F120051EBF22FA05FC44EA26
:1002E0000C04203556EA044C4FEA144418BF641C31
:1002F0004FF000084FF00009904271EB030C39D326
:10030000002919BFB1FA81F701FA07F6B0FA80F7B0
:1003100000FA07F6C7F120071EBF20FA07FC46EADD
:100320000C062037B6FBF4FCA7EB0507103F07F0DF
:100330001F0BCBF120060CFA0BFB2CFA06F644BF80
:10034000B3460026202FA4BF5E464FF0000B5BEAA9
:10035000060C08BF4FF0010B19EB0B09ABFB027C3D
:1003600048EB0608C01B06FB02CC0BFB03CC71EB71
:100370000C01C1E70B46024641464846BDE8F08BFA
:1003800013B54FF000004FF00001AFF30080BDE85F
:100390001C4070470FB4044910B503AA029800F03E
:1003A000C7FD10BC5DF814FB2800002070B50446A2
:1003B00085690068C10601D5302600E02026C00707
:1003C00007D070BDD4E9012130469047206A401C17
:1003D00020626D1EF6D570BD70B504468569007843
:1003E000C00707D170BDD4E9012120209047206AC1
:1003F000401C20626D1EF6D570BD70B50C460546DA
:10040000012A05D02878800600D5EA69002302E099
:10041000012305E05B1C934202D2E05C0028F9D185
:10042000A869E618C01AA861286A184428622846F4
:10043000FFF7BCFF04E0D5E9012114F8010B904758
:10044000B442F8D32846FFF7C7FF70BD2DE9F0414D
:100450000646002410687529314616A510D0AFF362
:100460000080002802DA404213A507E031688A07BD
:1004700001D512A502E0490704D511A5012401E028
:10048000AFF3008000210A2206F1240709E0B0FB47
:10049000F2FCB0FBF2F302FB1C003030785418463B
:1004A000491C0028F3D123462A463046BDE8F041D6
:1004B00000F0C0BA000000002D0000002B0000007A
:1004C0002000000070B504460D4621461068AFF3C9
:1004D00000802188090502D50F4A7A4402E00E4ABD
:1004E0007A440E32002104F1240305E000F00F06E7
:1004F0000009965D5E54491C0028F7D1207800233E
:10050000000704D5702D02D009B102231132204614
:10051000BDE8704000F08EBAC66400002DE9F05FBF
:10052000894604464FF0000ADFF874B1FB44C0F876
:1005300020A02046E1688847002874D0252806D0EE
:10054000D4E901219047206A401C2062F1E700268F
:100550005F462046E16888472028054607DB312DA5
:1005600005D2781910F8200C08B10643F1E7B0075E
:1005700001D526F00406C4F81CA00027C4F818A072
:100580002A2D09D0284605F060FE38B304EB870811
:10059000303DC8F8185019E059F8041B204604EB08
:1005A00087029161E1688847012F054618D1E0690B
:1005B000002820DA26F020061DE0D8F8180000EB0D
:1005C000800005EB40003038C8F818002046E1688C
:1005D0008847054605F039FE0028EED1012F0AD0E4
:1005E0002E2D08D12046E16888477F1C0546022F42
:1005F00046F02006C4DBA069002803DA404246F03A
:100600000106A061F00701D026F010066C2D0BD07A
:10061000682D09D04C2D39D06A2D35D0742D35D0A8
:100620007A2D33D016E038E0E1682F46204688471F
:10063000B842054609D16C2F26D04FF48060E1689E
:10064000064320468847054604E06C2F1AD04FF435
:10065000807006430DB3A5F14100192802D820355A
:1006600046F400664A462946204626604E46FFF775
:10067000C5FD80B101280BD0F61D26F0070000F162
:10068000080956E74020E4E78020D8E70020D6E7B5
:1006900006F104094DE7284652E7206ABDE8F09FBD
:1006A0009C6400000FB400B58DB010A909900091B2
:1006B0000B904FF0FF300A9000200C9006487844D1
:1006C0000690064878446A4607900F9909A800F0FA
:1006D00055FC0DB05DF814FBDB080000F3080000CA
:1006E0002DE9FF5F1D464FF0FF3B91464FF000089C
:1006F0005F46D5E90146A96901987F1C8847296AA8
:10070000824688470028F6D1BAF1FF3F0CD0002E70
:1007100024F4C06419DD600614D5BAF12B0F09D09A
:10072000BAF12D0F0ED103E0584604B0BDE8F09F9A
:1007300044F48064A96901987F1C8847761E82462C
:10074000002E02DDBAF1300F03D0B9F1000F26D030
:1007500032E0A969761E01987F1C44F40074884732
:10076000002E824605DDBAF1780F06D0BAF1580F97
:1007700003D0B9F1000F10D01EE0B9F1000F02D084
:10078000B9F1100F18D1A969761E01987F1C24F4C5
:10079000007488478246102002E0082000E00A200A
:1007A000814609E0A96908FB0908761E01987F1CAB
:1007B00044F4007488478246002E05DD49465046C1
:1007C00000F0C8FB0028EDDAE96901988847A00528
:1007D00002D46FF00100A8E7E00725D1600613D529
:1007E000600502D5C8F1000000E0404629680A1DF6
:1007F0002A600968220501D5087015E0220701D595
:10080000088011E008600FE02868011D2960006879
:10081000210502D580F8008006E0210702D5A0F866
:10082000008001E0C0F8008038467EE72DE9F047FF
:1008300091460F4680460446002614F8015B2DB110
:1008400000F0ECF80068405DC007F6D12B2D02D017
:100850002D2D18D0641E4A463946204600F0BEFBB6
:1008600027B13968A14201D1C7F800804FF00204D6
:1008700071050BD54042002803DD00F0D7F8046075
:10088000A007BDE8F08746F48066E4E70028F8DAC0
:1008900000F0CCF804606FF00040F2E710B5431CA4
:1008A00002E010F8011B71B18107FAD14FF001325B
:1008B00002C88C1A8C4314EAC211F9D0C01A0A0675
:1008C00003D0C01E10BDC01A10BD0A0401D0801E86
:1008D00010BD0902FCD0401E10BD40EA010370B5F6
:1008E0009B072ED14FF00136042A2AD308C810C91D
:1008F0009D1B9D43121F15EAC61517D0D8B2E1B251
:10090000401A50EA056110D198B2A1B2401A50EADB
:1009100005410AD123F07F4024F07F41401A50EA7C
:10092000052102D1180EA0EB146070BDA342DBD0EC
:1009300018BA21BA884201D9012070BD4FF0FF30AA
:1009400070BD0AB9002070BD10F8013B11F8014BD1
:1009500063B1A3420AD1521E08D010F8013B11F82E
:10096000014B1BB1A34201D1521EEDD1181B70BD2A
:100970004FF0000200B5134694469646203922BF38
:10098000A0E80C50A0E80C50B1F12001BFF4F7AF83
:10099000090728BFA0E80C5048BF0CC05DF804EB65
:1009A000890028BF40F8042B08BF704748BF20F8D3
:1009B000022B11F0804F18BF00F8012B704710B5C3
:1009C000044610F0030F08BF11F0030F40F015802C
:1009D0004FF0013E121FC0F20E8051F8043BA3EB12
:1009E0000E0C2CEA030C1CEACE1C08BF40F8043B9A
:1009F000F0D0A1F1040102F10402521E08DB11F84B
:100A0000013B002B00F8013BF7D1114600F035FB0C
:100A1000204610BD704770477047704710B500F012
:100A200053FB001D10BD00BF195E00000048704759
:100A3000600500202DE9F0470D4699469246044690
:100A400000F124080168880604D5E06921F010014E
:100A5000216000E00120A84201DD471B00E00027E3
:100A6000A1697A1902EB0900081AA0612078C00672
:100A700002D42046FFF79AFC002608E0D4E90121C1
:100A80001AF806009047206A401C761C20624E45EA
:100A9000F4DB2078C0060AD52046FFF787FC06E085
:100AA000D4E9012130209047206A401C2062381E82
:100AB000A7F10107F4DC07E0D4E9012118F80500EB
:100AC0009047206A401C2062281EA5F10105F3DC36
:100AD0002046FFF781FC2078000602D50220BDE801
:100AE000F0870120FBE770472DE9FF4F0C461E46BB
:100AF0004FF0FF378BB0D2E90001DDF860800A903B
:100B00008A46C1F30A5505B93D46002108464FF013
:100B10000000BAF1000F00F4400005DA00EB80009D
:100B20004FF4400101EA50004FEA9059B9F1010F2A
:100B300000DDB9460A9850EA4A000ED044F610503B
:100B4000A5F2FF3545432F14B8F1000F1ED07542B2
:100B5000291E1EDDC9F100021CE0B8F1010F4FF0A3
:100B6000000001D0302103E0F24305E02154401C95
:100B7000B042FBDB30460022002121540B99C1F822
:100B80000880C1E900200FB0BDE8F08FBD1B6D1CCF
:100B9000DEE74A4600DA694206A800F0F9FC06AB37
:100BA00093E8070003AB83E8070050460A9900F07A
:100BB000D3FD8DE80700A0F500501F380090039882
:100BC000002D0ADD42F21F014A460844002303A912
:100BD0000390684601F03CF809E0A0F500504A4651
:100BE0001F38002303A90390684601F046F88DE8FA
:100BF00007000004000C03D04FF0FF30410800E074
:100C00001046B8F1000F03D00022009215461EE0F6
:100C1000751E05D400F05CFA303262556D1EF9D5B0
:100C2000B3460122084302D000227F1C04E0207852
:100C3000302801D100227F1E002A099784D01DE0B0
:100C4000112D07DA00F044FA303262556D1C50EA7B
:100C50000102F5D1084302D00098C8B10EE000218E
:100C6000681E05E0235C625C63542254401E491CEC
:100C70008142F7DBAB46A81B401E0990002004F818
:100C80000B000B98099AC0F80880C0E9002B7AE79E
:100C900011264FF0000857E72DE9F04F884604462B
:100CA000D21D22F0070191B0D1E90001CDE90A017E
:100CB00005F0A3FA02460B98C00F01D02D2007E0E3
:100CC0002068810701D52B2002E0202101EAC00025
:100CD000032A099001D0072A05DB03464146204636
:100CE00000F05CFA0BE12078800601D5E06900E0B5
:100CF0000620B8F1650F814606D0B8F1660F18D00E
:100D0000B8F1670F70D131E00020B9F1110F0090F8
:100D100001DB112301E009F101030AAA01A90CA8D2
:100D2000FFF7E2FEDDE90C70002609F101058346BC
:100D300047E001204B4600904FF000470AAA01A966
:100D40000CA8FFF7D1FEDDE90DB00C995D46002639
:100D500010B909F101000D18B9EB050003D4C0F179
:100D6000FF3609F10105A5EB09002BE0B9F1010FF0
:100D700001DA4FF001090020B9F1110F0090484647
:100D800001DD112300E003460AAA01A90CA8FFF720
:100D9000ABFEDDE90C704D46002683462078000747
:100DA0000AD4AB4500DA5D4601A8012D04DD4119E6
:100DB00011F8011C302907D04F4502DA17F1040F52
:100DC00004DA012082460FE06D1EEEE7002F02DC00
:100DD000ED1B3E4403E0781CA84200DD7D1CB81BDF
:100DE00000F1010A4FF000472078000703D4AA451C
:100DF00001DB4FF0FF3A0021B7F1004F0DF143083E
:100E00008DF8431024D002202B23002F01DA7F42DB
:100E10002D230A21021EA0F1010000DC5FB197FB27
:100E2000F1FC97FBF1F201FB1C7C17460CF1300C36
:100E300008F801CDEEE7A8F101000370218809054B
:100E400001D5452100E06521A0F1010800F8011C51
:100E500009980FA9A1EB0807FF1D00B10120411956
:100E600001EBEA70A1693844081A401EA06120789D
:100E7000C00602D42046FFF799FA099828B1D4E9B0
:100E800001219047206A401C20622078C00622D5AC
:100E90002046FFF78BFA1EE0002E04DBB34502DD8F
:100EA00001A8805D00E03020D4E901219047206A4C
:100EB000401C2062761CAAF101005FEA000A0AD1F8
:100EC00000F002F9C0680168405CD4E90121904754
:100ED000206A401C2062281EA5F10105DCDC07E029
:100EE000D4E9012118F8010B9047206A401C2062C8
:100EF000381EA7F10107F3DC2046FFF76DFA032047
:100F000011B041E610B5436913B1AFF3008001E0C1
:100F1000FFF773FA012010BD127800F124010A7066
:100F200000224A700122EDE711684FF0FF32E9E735
:100F3000074B70B50D467B4400F01DF9044628466A
:100F400000F098FB10B14FF0FF3070BD204670BD2F
:100F5000235300003A2800D2303820F02002412AE2
:100F600001D3A2F13700884201D34FF0FF30704720
:100F7000026811441378016018467047D160054932
:100F8000794451610449794411620021116111468B
:100F900000F044B9EDFFFFFFD1010000426842B10B
:100FA000016811F8013B23B1521EC0E90012184636
:100FB00070470121C160881E704742685AB1C368FA
:100FC000016843B983688B4205D0491E521CC0E9B1
:100FD0000012002070474FF0FF3070472DE9F05F9E
:100FE000824615468B4600270AF10104B94600786F
:100FF000302801D09DB113E014F8010B01277828A7
:1010000003D0582801D045B10AE00DB1102D07D109
:10101000002714F8010B102502E0082500E00A253E
:101020000026B0460EE005FB080005FB06F101278F
:101030001FFA80F801EB1046B6F5803F00D3B946A1
:1010400014F8010B2946FFF785FF0028EBDABBF106
:10105000000F05D00FB1641E00E05446CBF80040ED
:10106000B9F1000F06D0FFF7E1FC02210160C81EB4
:10107000BDE8F09F48EA0640FAE74FF00002042975
:10108000C0F0128010F0030C3FF474ACCCF1040CEF
:10109000BCF1020F18BF00F8012BA8BF20F8022BEB
:1010A000A1EB0C01FFF766BC5FEAC17C24BF00F82E
:1010B000012B00F8012B48BF00F8012B70470000FE
:1010C00000487047600500200048704780050020F8
:1010D00030B5B0F10A024FEA900E71F100034EEA0A
:1010E000817EB0EB0E0061EB91014FEA101E4EEADB
:1010F000017E10EB0E0041EB11114FEA102E4EEA6B
:10110000016E10EB0E0041EB11214FEA104E4EEA3A
:10111000014E10EB0E0041EB1141401841F100016E
:101120004FEAD00040EA41704FEAD10110EB800550
:101130004FEA810444EA907444EB01046D1944EBD6
:101140000404521BA3414FF0000348BF0A3200D5EC
:1011500030BD401C41F1000130BD10B50446FFF721
:101160005DFC0068005D00F0010010BD01694A1CD3
:1011700002610878704700B58FB0CDE901310021D8
:10118000059105497944CDE9031011466846FFF7FA
:10119000C5F90FB000BD0000E5FFFFFF2DE9F041EC
:1011A0001F46044603260168072A01F4006004DB99
:1011B00008B116A505E016A503E008B115A500E0E5
:1011C00015A521F010002060A069C01EA0610FB11C
:1011D000401EA0612046FFF7E9F84FB1D4E9012194
:1011E00038469047206A401C2062C01C206206E0FE
:1011F000206AFAE7D4E9012115F8010B9047761E21
:10120000F8D22046FFF7E8F8BDE8F0814E414E00E5
:101210006E616E00494E4600696E66002DE9F34F1F
:101220004FF0000A0C4656468DB001200C9001F19B
:101230000C000B9062690B9801219047051E2DD080
:10124000252D2CD0216A8847C0B162690B980121F5
:101250009047216A88470028F7D16269411E0B98A0
:10126000904700E0761CA1690D988847216A88475D
:101270000028F7D1E1690D988847DBE7A1690D984F
:101280008847A842074601D1761CD3E7E1690D984B
:1012900088477F1C02D1BAF1000F6FD06BE1626901
:1012A0000B9800273D46394690472A2804D16269A9
:1012B0000B98012190470125DFF8D08262690B98D5
:1012C00001219047A0F130010A290AD24745E5DC07
:1012D00007EB870100EB4107303FDFD445F01005F5
:1012E000ECE7E90601D46FF000476C280AD04C28DF
:1012F00014D0682815D06A280DD074281CD07A28FC
:101300001AD01DE062690B98012190476C2802D029
:1013100045F0040514E045F002050DE045F0200518
:101320000AE062690B9801219047682802D045F0D5
:10133000080505E045F4006562690B9801219047B6
:10134000C4E9015765283DD019DC58287AD00CDC57
:10135000452837D004DC252826D041289ED131E00D
:1013600046282FD0472899D12CE05B2877D06128D8
:1013700028D063287CD0642823D15AE0F6E06F2877
:1013800048D008DC66281DD067281BD0692821D0EA
:101390006E2816D127E0702845D0732868D07528AC
:1013A00047D078280DD14DE0A1690D9888472528B0
:1013B00005463FF469AFE1690D9888476D1C3FF41D
:1013C0006AAFD8E00D9923466A466FF00100AFF38B
:1013D0000080C5E045F0400023464FF00002606009
:1013E000A80736D43EE0E8077FF447AF2068011D28
:1013F00021600068290501D506701BE7290701D582
:10140000068017E7A90703D5F117C0E9006111E7C6
:1014100006600FE745F0400023464FF00802606089
:10142000A80716D41EE040F60E0125EA0100606010
:1014300016E045F0400023464FF00A026060A8071E
:1014400007D40FE045F040006060A80708D52346A8
:1014500010220D996FF00100AFF3008080E007E0EB
:10146000102223460D996FF00100FFF739F977E05C
:101470004FF0000963284F46C8464B46CB4602D082
:101480005B2806D038E0E80601D40120A0600127DF
:1014900032E06269D4F80CB00B98012190475E28C5
:1014A00007D14FF0010949466269D4F80CB00B9896
:1014B0009047216939B900210A4603AB43F821203E
:1014C000491C0829FADBD8B3216949B308F101089E
:1014D00062690B98012190475D28F4D1B9F1000FA2
:1014E00009D0002003A951F82020D24341F8202040
:1014F000401C0828F7DB03AB2069002820794FEA5D
:1015000040701ED05B462246CDF80080CDE90197A1
:101510000D9900286FF0010020DAAFF300801FE082
:10152000C11703AA00EBD1614B1121F01F0102EB9F
:101530008302411A13680120884003431360C7E700
:1015400019E00D99224600286FF00100009702DA99
:10155000AFF3008004E0AFF3008001E0AFF3008060
:1015600000280ADA401C06D10C9820B14FF0FF3059
:101570000FB0BDE8F08F5046FAE7E90701D10AF154
:10158000010A064400200C9054E60000CCCCCC0CA0
:101590002DE9F047814616468AB0354878440DC893
:1015A0008DE80D0032487844801C03AC0DC884E8F7
:1015B0000D0041F69B300844372190FBF1F290FB7F
:1015C000F1F5A5F1800501FB12041B3C02D5644234
:1015D000012000E00020DFF898A080460027FA44B0
:1015E000AAF1BE0A0EE0E0070AD03246684607EBD1
:1015F000470101230AEB810100F03FFB8DE8070062
:1016000064107F1C002CEED1194F7F44AE3F19E0CF
:10161000E80715D007EB04100DF1180A90E80E004A
:101620008AE80E00C068F04201D19819089032464D
:10163000012306A903A800F020FB03AB83E8070001
:101640006D10641C002DE3D14FF001033246694652
:10165000B8F1000F03A802D000F0FAFA01E000F0A0
:101660000CFBC9E90001C9F808200AB0BDE8F08701
:10167000BC540000007B00F0800070477546FFF707
:101680001FFDAE4605006946534620F0070085461B
:1016900018B020B5FEF7F4FDBDE820404FF000067D
:1016A0004FF000074FF000084FF0000B21F007014A
:1016B000AC46ACE8C009ACE8C009ACE8C009ACE88D
:1016C000C0098D46704710B50446AFF30080204630
:1016D000BDE81040FEF7C0BD4FF0013C50F8042BB0
:1016E00051F8043B9A4221D1A2EB0C03934313EA35
:1016F000CC1317D150F8042B51F8043B9A4215D162
:10170000A2EB0C03934313EACC130BD150F8042B38
:1017100051F8043B9A4209D1A2EB0C03934313EA1C
:10172000CC13DBD04FF00000704700BFD01A01BAD5
:10173000B1FA81F101F0180122FA01F0CB40C1F1B8
:101740002001DBB2C0B2C01A2CFA01F3D11A9143C6
:1017500011EAC311E6D170475FEA400C08BF91F06F
:10176000000F4FEA8C234FEAC12243EA51514FEA5E
:101770001C5018BF00F5F0404FEA300018BF41F090
:1017800000415FEA6C5C00F02980BCF1FF3F08BFBC
:1017900040F080407047130C06BF12044FF0100C4D
:1017A0004FF0000C130E04BF12020CF1080C130FC3
:1017B00004BF12010CF1040C930F04BF92000CF152
:1017C000020CD30F04BF52000CF1010C11464FF074
:1017D0000002A0F11F00A0EB0C00704711F0004FB9
:1017E00008BF704731F000413FF4D5AF0B0C06BF86
:1017F00009044FF0100C4FF0000C0B0E04BF09024F
:101800000CF1080C0B0F04BF09010CF1040C8B0F39
:1018100004BF89000CF1020CCB0F04BF49000CF18E
:10182000010CCCF12003A0EB0C0022FA03F302FA26
:101830000CF241EA030100F10100704720F07F4CF7
:1018400080EA030023F07F47ACEB070303F57C53EA
:1018500000F0004003F1FF032DE980494FEA154BEA
:1018600009B44FEA144325EA0B4E24EA03480FF269
:10187000042606EB132749083E785FEA320203FB91
:101880000667C7F5000707FB06F64FEA54374FEA2D
:10189000D64606F1020607FB066CCCF1005C4FEA67
:1018A0001C472CEA074C07FB06F40CFB06F504EB7F
:1018B00015464FEA961634BF00204FF000404FEA1D
:1018C000D13706FB07FC4FEA1C4C0CFB0BF7D21B75
:1018D00003FB0CF761EB07010CFB0EF7B0EB0740C5
:1018E00072EB17420CFB08F734BFA2EB0742B2EBD6
:1018F000074261EB17414FEA0C444FEA910706FBA0
:1019000007FC4FEA1C4C0CFB0BF7B0EBC74072EB2B
:10191000573203FB0CF734BFA2EBC742B2EBC7420E
:1019200061EB57310CFB0EF7B0EBC70072EB57724F
:101930000CFB08F734BFA2EBC702B2EBC70261EBA6
:101940005771039F4FEA816141EA921104EBCC0485
:101950004FEAD1374FEA826206FB07FC42EA901257
:101960004FEA80604FEA1C4C0CFB0BF7D21B03FBC9
:101970000CF761EB07010CFB0EF7B0EB074072EBC5
:1019800017420CFB08F734BFA2EB0742B2EB074249
:1019900061EB17414FEA8C554FEA910704EB9C2409
:1019A00006FB07FC4FEA1C4C0CFB0BF7B0EBC740E7
:1019B00072EB573203FB0CF734BFA2EBC742B2EB1A
:1019C000C74261EB57310CFB0EF7B0EBC70072EB6F
:1019D00057720CFB08F734BFA2EBC702B2EBC70289
:1019E00061EB577115EB4C254FEA816141EA921189
:1019F0004FEA82624FEAD13742EA901206FB07FCB7
:101A000044F100044FEA80604FEA1C4C0CFB0BF7DA
:101A1000D21B03FB0CF761EB07010CFB0EF7B0EBDD
:101A2000074072EB17420CFB08F734BFA2EB0742EA
:101A3000B2EB074261EB174115EB1C154FEA813100
:101A400041EA92414FEA823242EA90424FEA8030C4
:101A50004FEA0C7644F1000448EA03434EEA0B488F
:101A60004FF0000EB2EB080C71EB030724BF624687
:101A700039464EEB0E0E4FF0000B00185241494113
:101A80004BEB0B0BB2EB080C71EB03077BF1000B7C
:101A900024BF624639464EEB0E0E4FF0000B001885
:101AA000524149414BEB0B0BB2EB080C71EB0307B6
:101AB0007BF1000B24BF624639464EEB0E0E51EA15
:101AC000020718BF46F0010616EB0E7655F100022C
:101AD00054F1000103D5BDE88901BDE80088BDE8E7
:101AE0008901BDE80048B619524141EB0101A3F15B
:101AF0000103704780807F7E7D7C7B7A7978777662
:101B000076757473727171706F6E6E6D6C6C6B6ADA
:101B10006A69686867666665646463636261616078
:101B2000605F5F5E5E5D5D5C5C5B5B5A5A595958F5
:101B3000585757565655555554545353525252515F
:101B4000515050504F4F4F4E4E4D4D4D4C4C4C4BB5
:101B50004B4B4A4A4A4949494848484747474746FC
:101B60004646454545444444444343434342424238
:101B700042414141002B9C4630D477002BD01CB50C
:101B80004FEA370703B44FF010004FF01001BAF1DD
:101B9000000F06D0BCF1000FDCBF40F0080040F0A1
:101BA00008014FF000000FBCBDE810400BF1010B25
:101BB000BBF1010F08BF5FEA170722BF12F1010254
:101BC00011F101014FF0004143F1000300F000402A
:101BD00043EA00007047F9D35708D0E746EA0646C3
:101BE00013F1400F4FEA16461FDD13F1200FDFBF40
:101BF00016430A46002120335B42BED0C3F12007C2
:101C000046EA064602FA07F74FEA164646EA07068C
:101C1000C3F1200722FA03F201FA07F721FA03F1D0
:101C20004FF0000342EA0702A7E746EA020646EA47
:101C300006464FEA164646EA0106BCBF46EA064695
:101C4000360C4FF000034FF000024FF0000194E714
:101C50002DE9804C9A46934670B491E8380007C845
:101C600031EA400C48BF34EA430C03D5FFF7E6FDE8
:101C7000FFF780FFF0BCBDE8008C2DE9804C9A4650
:101C8000934670B491E8380007C810F0804F08BF41
:101C900013F0804F03D100F005F8FFF76BFFF0BCA5
:101CA000BDE8008C20F07F4780EA030023F07F4CE2
:101CB00007EB0C03A3F57C5300F00040A3F1FE03F7
:101CC00092F0000F00F0B38095F0000F00F07780E5
:101CD0002DE901494FEA11404FEA144621EA004834
:101CE00000FB06FC24EA064708FB06F607FB08F89B
:101CF00000FB07F718EB06484CEB164C4FEA124B6B
:101D000018EB07484FEA15464CEB174022EA0B4EFA
:101D10000BFB06FC25EA06470EFB06F607FB0EFE4C
:101D20000BFB07F71EEB064E4CEB164C4FF0000674
:101D30001EEB074E4CEB174B18EB0B0840F1000065
:101D400018EB0E0B58EB000840F100008F1A4FF013
:101D500000013CBFC943661B14BFB5EB040C002156
:101D60003CBFC943F61B4FEA17444EEA8E0E27EAE2
:101D700004454FEA1C4704FB07622CEA074C05FBAD
:101D800007F70CFB05F604FB0CFC16EB074642EBD1
:101D9000174216EB0C4642EB1C421BEB060658EBB7
:101DA0000202414146EA9E0601D5BDE80189B61905
:101DB000524141EB0101A3F10103BDE801894FEA62
:101DC00014454FEA114724EA054621EA074C05FB72
:101DD00007F406FB07F70CFB06F105FB0CFC11EB07
:101DE000074144EB17444FEA124711EB0C4144EB17
:101DF0001C4422EA074C05FB07F206FB07F70CFB25
:101E000006F605FB0CFC16EB074642EB174216EBF9
:101E10000C4642EB1C456A1854F1000148BF70475C
:101E2000B619524141EB0101A3F10103704795F04E
:101E3000000F37D04FEA11424FEA144721EA024619
:101E400024EA074C02FB07F106FB07F70CFB06F43C
:101E500002FB0CFC14EB074441EB17414FEA15471A
:101E600014EB0C4441EB1C4125EA074C02FB07F53F
:101E700006FB07F70CFB06F602FB0CFC16EB07460D
:101E800045EB174516EB0C4645EB1C42121951F178
:101E9000000148BF7047B619524141EB0101A3F15F
:101EA000010370474FEA14454FEA114724EA0546FB
:101EB00021EA074C05FB07F106FB07F70CFB06F2CE
:101EC0004FF0000605FB0CFC12EB074241EB1741FB
:101ED00012EB0C4251EB1C4148BF7047921841EB8A
:101EE0000101A3F10103704710B50146806B026C3C
:101EF00012F0500F05D0026CD20626D501F0F0FA90
:101F000010BD016C41F40071016401688A6812F02F
:101F1000405F17D1027EAAB9CA6A12F4700F02D0CC
:101F20008A6852050ED44A6822F020024A60016C89
:101F300021F480710164016CC90403D4016C41F087
:101F40000101016401F0CAFA10BD806BC26CBDE8EA
:101F500010400846104710B5806B40210164416C69
:101F600041F00401416401F0BBFA10BD10B5806B73
:101F700001F0B5FA10BD0000464910B54A6822F4D8
:101F800040324A604A6843681A434A6001684A68B6
:101F900022F480724A6001684A68036942EA0322B7
:101FA0004A6001684A6822F040724A6001684A68E3
:101FB00083681A434A6001688A6822F400628A6072
:101FC00001688A68C3681A438A60816A6FF0706228
:101FD000D14201688A6822F070628A6001688A686A
:101FE0000CD0836A1A438A6001688A6822F04052E2
:101FF0008A6001688A68C36A1A4301E022F040528D
:102000008A6001688A6822F002028A6001688A6830
:10201000037E42EA43028A6090F82010002901689A
:102020004A680FD042F400624A6001684A6822F4AC
:1020300060424A6001684A68174C436A04EB4333C4
:102040001A4301E022F400624A600168CA6A22F47D
:102050007002CA620168CA6A838B104C04EB035396
:102060001A43CA6201688A6822F400728A600168B1
:102070008A6890F8303042EA43228A6001688A68B0
:1020800022F480628A6001688A68406942EA80209E
:10209000886010BD0023014000E0FFFF0000F0FF5A
:1020A0000A220249024801F0C3BA0000B804002025
:1020B000D40000200021164A084600BF52F8203004
:1020C00011FA83F1401C0A28F8DB00EE101AB2EE78
:1020D000041A1248F8EE400A80EE810ADFED0D0A7C
:1020E0009FED0F1A20EE200ADFED0B0A20EE200AEA
:1020F000F1EE080A60EE200A90ED000A20EE010AD7
:102100009FED081A00EE810A80ED000A704700007A
:10211000B8040020000080393333534030000020E1
:102120006666663FCDCCCC3D08B5084900E000BFEF
:102130000A681206FBD5486000200090044800BFE2
:102140000099491C00918142F9D308BD001001405B
:10215000400D0300FEE7034610B50020024604E0F0
:102160009C5C521C2044C0B292B28A42F8D310BD8B
:10217000034610B50020024604E09C5C521C20443B
:10218000C0B292B28A42F8D310BD000010B517A0B9
:10219000FEF700F91EA0FEF7FDF822A0FEF7FAF800
:1021A0002DA0FEF7F7F839A0FEF7F4F841A0FEF7EE
:1021B000F1F84BA0FEF7EEF84CA0FEF7EBF857A0B5
:1021C000FEF7E8F862A0FEF7E5F86AA0FEF7E2F88D
:1021D00075A0FEF7DFF881A0FEF7DCF882A0FEF71D
:1021E000D9F8BDE810408AA0FEF7D4B820203D3DC4
:1021F0003D3D3D2053544D33322044656275672088
:10220000436F6E736F6C65203D3D3D3D3D0D0A0093
:1022100020204D6F746F7220436F6E74726F6C3A32
:102220000D0A0000202020204C3C76616C75653E34
:1022300020202020202020202020736574206C6521
:102240006674202073706565642028652E672E20D3
:102250004C313030290D0A0020202020523C76617C
:102260006C75653E202020202020202020207365D2
:1022700074207269676874207370656564202865CE
:102280002E672E2052323030290D0A0020202020C7
:102290004C52203C4C3E203C523E2020202020200E
:1022A000202073657420626F7468207370656564A4
:1022B000730D0A002020202053544F50202020204E
:1022C0002020202020202020202073746F70206286
:1022D0006F7468206D6F746F72730D0A00000000D8
:1022E0002020496E666F3A0D0A0000002020202051
:1022F00053544154555320202020202020202020BA
:1023000020207072696E7420766F6C746167652F1F
:1023100073706565642F50574D0D0A0020202020F2
:10232000494E464F20202020202020202020202001
:1023300020207072696E7420636869702F666972FC
:102340006D7761726520696E666F0D0A000000008E
:102350002020555341525432205465737420285222
:10236000444B2058352070726F746F636F6C293A3C
:102370000D0A00002020202054455354203C4C3EA0
:10238000203C523E20202020202073656E64207364
:1023900070656564206672616D65206F6E205553AF
:1023A000415254320D0A00002020202053454E4453
:1023B000203C6865783E2020202020202020736566
:1023C0006E6420726177206279746573206F6E206D
:1023D0005553415254320D0A0000000020204F7422
:1023E0006865723A0D0A00002020202048454C50B4
:1023F000206F72203F202020202020202020736882
:102400006F7720746869732068656C700D0A00002E
:1024100020203D3D3D3D3D3D3D3D3D3D3D3D3D3D26
:102420003D3D3D3D3D3D3D3D3D3D3D3D3D3D3D3DDC
:102430003D0D0A002DE9F04186B005A9684601F07E
:1024400047FD01F08BFD074601F062FD064601F0F5
:1024500065FD804601F072FD05461E480068800358
:1024600001D51DA407E01B4808300068400701D5CE
:102470001FA400E01FA42AA0FDF78CFF2FA0FDF7EA
:1024800089FF38A0FDF786FF3CA0FDF783FF2146BA
:1024900043A0FDF77FFF464C46A0B7FBF4F1FDF7E4
:1024A00079FFB6FBF4F149A0FDF774FFB8FBF4F136
:1024B0004CA0FDF76FFFB5FBF4F150A0FDF76AFFEC
:1024C00054A0FDF767FF5FA0FDF764FF06B0BDE80D
:1024D000F081000000380240485345202865787498
:1024E00065726E616C206372797374616C2900008F
:1024F000485345004853492028696E7465726E61DF
:102500006C2031364D487A202D2048534520666195
:10251000696C6564206F7220616273656E74290056
:1025200020203D3D3D3D3D2053595354454D2049CC
:102530004E464F203D3D3D3D3D0D0A002020436865
:1025400069703A2020202053544D333246343037BE
:102550005A4754782028436F727465782D4D34297A
:102560000D0A00002020466C6173683A202020315B
:10257000303234204B420D0A00000000202052412E
:102580004D3A2020202020313932204B4220283162
:1025900032382B36342043434D290D0A0000000009
:1025A0002020436C6F636B3A20202025730D0A00B6
:1025B00040420F002020535953434C4B3A202025D2
:1025C0006C75204D487A0D0A000000002020484319
:1025D0004C4B3A20202020256C75204D487A0D0A5E
:1025E00000000000202050434C4B313A2020202591
:1025F0006C75204D487A0D0A0000000020205043E1
:102600004C4B323A202020256C75204D487A0D0A1B
:102610000000000020204657205665723A202076A0
:10262000312E3020286D6F646966696564202D2025
:10263000446961672064697361626C6564290D0A8D
:102640000000000020203D3D3D3D3D3D3D3D3D3DE8
:102650003D3D3D3D3D3D3D3D3D3D3D3D3D0D0A004A
:1026600070B5A2B00025209500E0401C017820291B
:10267000FBD004466E4621E0641C20782028FBD065
:1026800010F0FF001ED08DF8800014F8010FC8B1C3
:102690008DF88100102221A920A8641CFEF7C6F83D
:1026A000219A0DF182018A4205D020A915A0FDF7DB
:1026B00071FE22B070BD70556D1CADB2207808B1AE
:1026C000802DDAD34DB12946684603F08DFD2946A9
:1026D00014A0FDF75FFE002406E01AA00EE0315DB5
:1026E00025A0FDF757FE641CAC4201DA202CF6DB76
:1026F000202D02D922A0FDF74DFE09A0FDF74AFECC
:10270000D7E7000020205B4552525D20496E76617C
:102710006C69642068657820627974653A20257355
:102720000D0A000020205B53454E445D20256420A7
:102730006279746573206F6E205553415254323A5A
:102740000000000020205B4552525D204E6F206447
:1027500061746120746F2073656E642E20557361FF
:1027600067653A2053454E44203C6865782062797D
:102770007465733E0D0A00002025303258000000B9
:10278000202E2E2E000000002DE9FC414FA0FDF769
:1027900001FE544E96ED000A10EE100A04F082F885
:1027A000514F04460D4697ED000A10EE100A04F052
:1027B00079F841EC100B4DA053EC102BCDE90045FE
:1027C000FDF7E8FD504C514D51A022682968FDF7F6
:1027D000E1FD28682168084310D197ED000AB5EEA5
:1027E000C00AF1EE10FA06D196ED000AB5EEC00A65
:1027F000F1EE10FA02D053A0FDF7CCFD00F002FD7F
:10280000044600F0C3FC014622465BA0FDF7C2FD72
:1028100000F0FEFC10EE100A04F044F80D460446E9
:1028200000F0BAFC10EE100A04F03CF841EC100B7A
:102830005FA053EC102BCDE90045FDF7ABFD6648DA
:10284000006804F02FF8044664480D46006804F060
:1028500029F841EC100B62A053EC102BCDE9004598
:10286000FDF798FD6848C06A04F01CF80446674804
:102870000D46C06A04F016F841EC100B64A053EC4E
:10288000102BCDE90045FDF785FD6E48006804F08A
:1028900009F841EC100B6CA053EC102BFDF77AFDFE
:1028A00001F03EFA01466DA0FDF774FD70484168E5
:1028B00070A0FDF76FFD7948416879A0FDF76AFDCA
:1028C000BDE8FC4181A0FDF765BD000020203D3D35
:1028D0003D3D3D20535441545553203D3D3D3D3DEC
:1028E0000D0A0000500000204C0000202020546100
:1028F000726765743A20204C3D252E3066202052A8
:102900003D252E30660D0A00040000200000002046
:10291000202053706565643A2020204C3D256420BA
:1029200020523D256420202870756C7365732F310B
:10293000306D732C2066696C7465726564290D0AAC
:102940000000000020202020202020202020202AFD
:102950002A204E4F20454E434F444552202D2050B3
:10296000574D2077696C6C20736174757261746562
:1029700021202A2A0D0A00002020416363756D3A48
:102980002020204C3D25642020523D256420202815
:102990007261772070756C7365732C206E65766537
:1029A0007220636C6561726564290D0A0000000085
:1029B0002020446973743A202020204C3D252E337A
:1029C000662020523D252E33662020286D657465D3
:1029D0007273290D0A0000000C000020080000207E
:1029E000202050574D206F75743A204C3D252E30D5
:1029F000662020523D252E30662020284152523D2F
:102A0000393939290D0A00009C000020640000209B
:102A100020204672696374696F6E3A204C3D252E02
:102A200030662020523D252E306620202850574DFC
:102A3000206F66667365742C206C6561726E6564C8
:102A4000290D0A0010000020202042617474657274
:102A5000793A20252E326620560D0A002020557026
:102A600074696D653A2020256C75206D730D0A0020
:102A70006803002020205553415254313A2020252C
:102A80006C75206261756420287468697320636FB7
:102A90006E736F6C65290D0A00000000B003002002
:102AA00020205553415254323A2020256C75206223
:102AB00061756420444D41202852444B20583520F4
:102AC00070726F746F636F6C290D0A0020203D3D9A
:102AD0003D3D3D3D3D3D3D3D3D3D3D3D3D3D3D3D26
:102AE0000D0A000030B585B004B2AA208DF80800A8
:102AF00001208DF8090004208DF80A000DB2200A8B
:102B00008DF80C008DF80D50280A8DF80E008DF808
:102B10000B40082102A8FFF72BFB8DF80F000921BD
:102B200002A8FFF725FB8DF81000082102A8FFF787
:102B30001FFB8DF80F00092102A803F055FB0CA024
:102B4000FDF728FC9DF80F109DF80E00CDE900015F
:102B50009DF80D309DF80C209DF80B100EA0FDF790
:102B600019FC2A46214618A0FDF714FC05B030BD1B
:102B700020205B544553545D2053656E74205244AD
:102B80004B205835206672616D65206F6E2055535D
:102B9000415254323A0D0A002020202020202020CB
:102BA000204141203031203034202530325820253A
:102BB00030325820253032582025303258202530E8
:102BC00032580D0A00000000202020202020202064
:102BD0002053706565643A204C3D256420523D25A4
:102BE000640D0A00014800F02BBE0000F80300202D
:102BF000014800F025BE000058040020014800F004
:102C00001FBE000064010020014800F019BE000052
:102C1000A8020020014800F013BE000008030020B5
:102C200001681823CAB2103AB2FBF3F2054B6FF3F6
:102C30000901032A9B5CC36500D9091D816508460B
:102C4000704700009C69000810B5014600208B69A0
:102C50008A6A4FF0C07453B1B3F5005F15D072B1FA
:102C6000012A0CD0022A0AD0032A09D104E01AB1A1
:102C7000012A06D0022A03D1C96AC90100D5012060
:102C800010BDC96AA142FAD010BD002AF7D0012AAE
:102C9000F2D0022AF3D0032AF3D010BD30B5046875
:102CA000256825F480252560046863608368402BCF
:102CB000036803D099600068C26030BD9A60006804
:102CC000C16030BD7047000010B5012206490748B9
:102CD00002F0CEF806A0FDF75DFBFFF7ABFBBDE809
:102CE0001040FFF753BA0000560000206803002090
:102CF0001B5B324A1B5B4800F0B58C4C93B060788C
:102D000000287CD03F228A496846FDF758FE0025FE
:102D10008DF83F5065706C4600E0641C20782028D8
:102D2000FBD0214683A0FDF735FB042283A120467A
:102D3000FDF7D3FD834E844F002879D0042283A170
:102D40002046FDF7CAFD002872D0032281A120464B
:102D5000FDF7C3FD00287ED003227FA12046FDF7AA
:102D6000BCFD002877D005227CA12046FDF7B5FDEB
:102D700000286DD005227BA12046FDF7AEFD00287E
:102D8000F7D0052279A12046FDF7A7FD00286ED0D7
:102D9000052278A12046FDF7A0FD0028F7D0207875
:102DA0004C2877D06C28FCD0522874D07228FCD0E4
:102DB000062272A12046FDF790FD00286CD0062265
:102DC00070A12046FDF789FD0028F7D004226FA1ED
:102DD0002046FDF782FD002870D004226DA1204618
:102DE000FDF77BFD0028F7D004226CA12046FDF7FB
:102DF00074FD002870D004226AA1204600E015E08E
:102E0000FDF76BFD0028F5D0012268A12046FDF7F3
:102E100064FD0028EED02046FDF740FD002805D0D7
:102E200000E005E062A000BFFDF7B4FA13B0F0BD0A
:102E30009FED6B0A6B4886ED000A87ED000A02F0F1
:102E40008BFC694802F088FC00F05CFA01E002E0CB
:102E500023E066A0E8E7109511AB10AA6EA1E01C74
:102E60001195FDF71FFC022802D06DA0DCE726E0DB
:102E7000109977A000EE101AB8EEC00A86ED000A8D
:102E8000119A00EE102AB8EEC00A87ED000AFDF78D
:102E900081FACBE717E02BE03FE0109511AB10AAC9
:102EA0005DA1601D1195FDF7FDFB022801D06FA00B
:102EB000BAE7DDE91001FFF715FEB7E730E0601D66
:102EC000FFF7CEFBB2E710AA75A1601C1095FDF7C5
:102ED000E9FB012803D000E025E072A0A4E71099E7
:102EE0007CA000EE101AB8EEC00A86ED000A11E0D0
:102EF00010AA6BA1601C1095FDF7D4FB012801D02E
:102F00007BA091E7109986A000EE101AB8EEC00AD7
:102F100087ED000AFDF73EFA88E7FFF735FC85E705
:102F2000FFF788FA82E7FFF731F97FE754000020C6
:102F3000200500203E2025730D0A000053544F50F9
:102F4000000000004C0000205000002073746F70DF
:102F5000000000004C5220006C7220005445535475
:102F600020000000746573742000000053454E4437
:102F70002000000073656E6420000000535441542B
:102F8000555300007374617475730000494E464FC9
:102F900000000000696E666F0000000048454C505C
:102FA0000000000068656C70000000003F00000039
:102FB00020205B4552525D20556E6B6E6F776E2000
:102FC000636F6D6D616E642E205479706520484585
:102FD0004C5020666F72206C6973742E0D0A0000CD
:102FE00000000000640000209C00002020205B4FB7
:102FF0004B5D20426F7468206D6F746F7273207325
:10300000746F707065642028504944207265736540
:1030100074290D0A000000002564202564000000CA
:1030200020205B4552525D2055736167653A204C04
:1030300052203C6C6566745F73706565643E203C2D
:1030400072696768745F73706565643E0D0A00009D
:1030500020205B4F4B5D205461726765743A204CB1
:103060003D25642020523D25640D0A0020205B454B
:1030700052525D2055736167653A20544553542080
:103080003C6C6566745F73706565643E203C726974
:103090006768745F73706565643E0D0A0000000028
:1030A0002564000020205B4552525D205573616706
:1030B000653A204C3C76616C75653E202028652E73
:1030C000672E204C313030206F72204C2D35302946
:1030D0000D0A000020205B4F4B5D204C656674207C
:1030E000746172676574203D2025640D0A0000003C
:1030F00020205B4552525D2055736167653A20522E
:103100003C76616C75653E202028652E672E205226
:10311000323030206F7220522D313030290D0A00AC
:1031200020205B4F4B5D2052696768742074617288
:10313000676574203D2025640D0A00000D48016874
:1031400041F001010160BFF34F8F0B48016821F48A
:10315000403141F480310160416821F48071416067
:10316000816821F440318160C16821F44031C1603F
:1031700070470000303802400000024002484169B8
:1031800081F480714161704700000240014880680D
:10319000704700003400002004489FED051A90EDB0
:1031A000020AF8EEC00A80EE810A7047340000205F
:1031B000006C2C460F480168486A00224A6240426F
:1031C00001B20D48DFED0D0A9FED0D1A82680A4429
:1031D000826090ED000A20EE200A00EE901AF8EED0
:1031E000E00A00EE810A80ED000ABDEEC00A10EE92
:1031F000100A704718020020340000203333333F98
:103200009A99993E0148C068704700003400002038
:1032100004489FED051A90ED030AF8EEC00A80EE0F
:10322000810A704734000020006C2C460F4800686B
:10323000416A002209B242620D48DFED0E0A9FED9D
:103240000E1AC2680A44C26090ED010A20EE200AFC
:1032500000EE901AF8EEE00A00EE810A80ED010A15
:10326000BDEEC00A10EE100A704700006002002098
:10327000340000203333333F9A99993E70B586B0BD
:1032800014216846FDF774FB02240125CDE90145B0
:103290002020174E009069463046CDE9034500F0E6
:1032A00041FC0820009069460495124800F03AFC61
:1032B0004020009069460494304600F033FC8020A2
:1032C0000090694604940C4800F02CFC3C210B480B
:1032D00001F0D6F83C210A4801F0D2F80749002055
:1032E0000968486206490968486206B070BD000076
:1032F00000000240000402400008024018020020C2
:103300006002002008489FED070A084980ED000A86
:1033100080ED010A09680020486205490968486291
:103320007047000000000000340000201802002058
:103330006002002072B600BFFDE7000010B590F8F3
:103340003C20012A1FD0012200F83C2F0F4A53686D
:1033500023F01F03536053680C6823435360536882
:1033600023F44043536053684C68234353605368CD
:1033700023F470635360536889680B4353600021E2
:103380000170084610BD022010BD0000002301405E
:1033900078B50024009490F83C20012A19D001222D
:1033A00080F83C200A6807230568092A13D9EE68CB
:1033B0000A3A02EB420293409E43EE600B788A6821
:1033C0000A3B03EB43039A400368DD682A43DA6053
:1033D00010E0022078BD2E6902EB420293409E432A
:1033E0002E610B788A6803EB43039A4003681D69DA
:1033F0002A431A614A681F23072A13D205686E6B95
:10340000521E02EB820293409E436E630B790A8840
:103410005B1E92B203EB83039A4003685D6B2A4301
:103420005A6327E005680D2A12D22E6BD21F02EBD9
:10343000820293409E432E630B790A88DB1F92B26F
:1034400003EB83039A4003681D6B2A431A6311E060
:10345000EE6A0D3A02EB820293409E43EE620B79D4
:103460000A880D3B92B203EB83039A400368DD6A3E
:103470002A43DA62164B0568144A9D4206D10D684C
:10348000122D03D1556845F48005556005689D42AD
:1034900018D10B68102B01D0112B13D1536843F4B2
:1034A00000035360096810290CD10A490A4A0968C7
:1034B000B1FBF2F101EB8101490000E0491E0091EE
:1034C0000029FBD180F83C40002078BD002301405A
:1034D000002001402C00002040420F007047704740
:1034E000704770B504004FF0000503D0206C002633
:1034F00010B107E0012070BD204600F01DF86664A1
:1035000084F83C60206CC00610D4206C20F48850F5
:1035100040F0020020642046FEF72EFD6664206C19
:1035200020F0020040F00100206400E0012584F852
:103530003C60284670BD000070B586B00646142178
:103540006846FDF715FA3349314B3268002531489A
:10355000143903249A4240D1026842F48072026016
:10356000006800F480700590086840F00100086071
:10357000086800F001000590086840F0020008604B
:103580000868694600F00200059080208DE831004F
:10359000214800F0C7FA01208DE8310069461F4834
:1035A00000F0C0FA1F4C1E48C4E900050015A560D4
:1035B000C4E90350800060618000A0618011E06177
:1035C0000002C4E90805204600F00AFA08B1FFF736
:1035D000B1FEB463A66306B070BD134B9A42FAD134
:1035E000026842F400720260006800F40070059006
:1035F000086840F0040008600868694600F00400AC
:10360000059030208DE83100084800F08BFAE2E7A1
:103610000020014044380240000002400004024003
:1036200010640240640100200021014000080240B3
:10363000F8B50E4600210446009190F83C00134670
:103640000A46012807D0012084F83C0020688568DC
:10365000ED0702D011E00220F8BD856845F00105B4
:1036600085604048404D0068B0FBF5F000EB40003D
:1036700000E0401E00900028FBD120688568ED0521
:1036800003D5856825F48075856020688568ED0719
:103690005DD0226C40F20165AA4342F4807222643C
:1036A0004068400505D5206C20F4005040F480505F
:1036B0002064206CC00404D5606C20F006006064B7
:1036C00000E0616484F83C10A16B2948274DC86371
:1036D000A16B28480864A16B2748C86421686FF073
:1036E000220008602068416841F0806141602068E4
:1036F000816841F480718160216832464C31A06B51
:1037000000F0D8F9024668681C49C006206806D057
:10371000884224D1816811F0405F13D01FE08842B5
:10372000F8D0174B984203D1D1F80433DB06F1D01F
:10373000144B984213D1D1F8041301F01F01102942
:10374000E8D30CE0816841F08041816007E0206CA3
:1037500040F010002064606C40F00100606410468E
:10376000F8BD00002C00002040420F000023014063
:10377000E91E00086D1F0008571F000800200140C7
:1037800000210140002201402DE9F0410446876DEF
:1037900000F0C6FA064694F835000025022806D047
:1037A0008020606584F834500120BDE8F0812068F5
:1037B000016821F0160101602068416921F0800153
:1037C0004161206C08B9A06C20B12068016821F02B
:1037D000080101602068016821F0010101600CE02E
:1037E00000F09EFA801B052807D920206065032081
:1037F00084F8350084F83450D7E720680068C007A3
:10380000EED194F85C103F208840B860012084F825
:10381000350084F834500020C7E790F835100229AD
:1038200003D08021416501207047052180F83510C3
:103830000068016821F0010101600020704700006C
:103840002DE9F84304464FF00009CDF80090634895
:103850004FF41651A56D0068B0FBF1F72E6894F88F
:103860005C10082000FA01F131420FD021680A688B
:1038700052070BD50A6822F004020A6094F85C1023
:103880008840A860606D40F00100606594F85C10AD
:103890004FF0010808FA01F0304208D02168496968
:1038A000090604D5A860606D40F00200606594F8D8
:1038B0005C1004208840304208D0216809688907DC
:1038C00004D5A860606D40F00400606594F85C1059
:1038D00010208840304218D021680968090714D5A3
:1038E000A86020680168490304D50068000308D572
:1038F000A16C07E00168C90503D4016821F0080143
:103900000160216C09B12046884794F85C102020A2
:103910008840304231D021680968C9062DD5A86099
:1039200094F8350005282068016806D0490347D57A
:10393000006800031DD4616C1CE021F016010160D9
:103940002068416921F080014161206C08B9A06CB8
:1039500020B12068016821F00801016094F85C1032
:103960003F208840A86084F8358084F83490216D29
:103970001FE0E16B09B120468847606D00282BD01D
:10398000606DC00714D0052084F8350020680168F8
:1039900021F0010101600098401C0090B84203D85A
:1039A00020680068C007F6D184F8358084F8349028
:1039B000E16C002910D001B02046BDE8F043084773
:1039C0000168C905D5D4016821F01001016084F8AF
:1039D000358084F83490CCE7BDE8F8832C000020D3
:1039E0002DE9F041044600F09BF906465CB1022047
:1039F00084F83500002584F834502068016821F0EF
:103A0000010101600DE00120BDE8F08100F088F9BE
:103A1000801B052805D920206065032084F8350027
:103A2000F2E720680068C007F0D1226811682048DA
:103A30000140D4E901031843D4E903363343184362
:103A400063691843A3691843E3691843236A184359
:103A50000843616A042903D1D4E90B1319430843CD
:103A6000106020684069666A20F0070130460E4306
:103A7000012704280CD1A06A0643E06A40B1204621
:103A8000FFF7E2F820B14020606584F83570BAE7AE
:103A9000206846612046FFF7C3F894F85C203F2178
:103AA00091408160656584F835700020ACE70000C6
:103AB0003F8010F02DE9F0410446866D90F8340007
:103AC000002501280DD0012084F8340094F83570C9
:103AD0000020012F07D084F8340002252846BDE8D5
:103AE000F0810220FBE7022784F8357060652046EC
:103AF000FFF7D4F894F85C103F208840B06020684D
:103B0000016841F016010160206C20B12068016855
:103B100041F0080101602068016841F00101016085
:103B2000DCE700002DE9F84FDFF8BCA100220125F9
:103B300003264FF00F090AF1040BAAF1040E00BF8F
:103B40000B6805FA02F42340A34270D10F7907F005
:103B50000307012F01D0022F16D187684FEA4208D0
:103B600006FA08FC27EA0C07D1F80CC00CFA08FC8E
:103B70004CEA070CC0F808C04768A7430C79C4F3A7
:103B8000001494403C4344600C79E443A4070AD0F9
:103B9000C4684FEA420C06FA0CF7BC438F6807FA78
:103BA0000CF72743C7600C7904F00304022C12D1F0
:103BB000D40800EB840CDCF820405707FF0E09FA0C
:103BC00007F824EA0804D1F8108008FA07F848EA50
:103BD0000408CCF8208004684FEA420C06FA0CF77F
:103BE000BC430F7907F0030707FA0CF72743076078
:103BF0004C6814F4403F70D03C4C276847F4804731
:103C00002760246822F0030704F480440094384CB1
:103C100007EB040CDCF8084897074FEA177809FA15
:103C200008F7BC43334FB84202D1002724E054E0E8
:103C3000314FB84201D101271EE0304FB84201D1C7
:103C4000022719E02E4FB84201D1032714E02D4F6F
:103C5000B84201D104270FE02B4FB84201D105270C
:103C60000AE02A4FB84201D1062705E0284FB842A2
:103C700001D1072700E0082707FA08F72743CCF807
:103C80000878DAF800405746D1F804C09C435FEA50
:103C9000CC2C00D51C433C60DBF800405F46D1F8DB
:103CA00004C09C435FEA8C2C00D51C433C60DEF8CA
:103CB00000407746D1F804C09C435FEA8C3C00D5B5
:103CC0001C433C60084F083F3C68D1F804C09C434B
:103CD0005FEACC3C00D51C433C60521C102AFFF428
:103CE0002FAFBDE8F88F0000083C01404438024087
:103CF0000030014000000240000402400008024081
:103D0000000C024000100240001402400018024063
:103D1000001C02400AB1816170470904FBE7000002
:103D200001488068704700005800002070B504000A
:103D300013D021684CF6CC400860216845F25550FC
:103D40000860D4E9000141602168A0688860FFF73D
:103D5000E7FF054641F601060DE0012070BD00BFFA
:103D6000FFF7DEFF401BB04205D92068C06880071E
:103D700001D0032070BD2068C0688007F0D12168A1
:103D80004AF6AA200860002070BD00684AF6AA2101
:103D900001600020704700000248816802781144E9
:103DA00081607047580000200B4810B5016841F44D
:103DB00000710160016841F480610160016841F4B3
:103DC00080710160032000F06FF80F2000F006F80A
:103DD00000F024F8002010BD003C024070B50D4DED
:103DE00004464FF47A712878B1FBF0F00A4909686B
:103DF000B1FBF0F000F0F2F848B9102C07D2002225
:103E00002146501E00F030F800206C6070BD01208B
:103E100070BD0000580000202C0000200A4808B5A2
:103E2000016841F480410160006800F48040009026
:103E30000548001F016841F080510160006800F0F2
:103E40008050009008BD000044380240002809DB83
:103E500000F01F02012191404009800000F1E020A4
:103E6000C0F8001170470000F0B40E4B1B680C4600
:103E7000C3F30223C3F10705042D00D90425191D3E
:103E8000072901D2002300E0DB1E012606FA05F116
:103E9000491E214099409E40761E16403143F0BC99
:103EA00002F0C3B90CED00E0064900F00702086813
:103EB0004FF6FF03184040EA0220034A104308600F
:103EC000704700000CED00E00000FA0570470000AC
:103ED0000F2202600C4A136803F003034360136867
:103EE00003F0F0038360136803F4E053C3601268C7
:103EF0004FF4E05303EAD20202610448006800F084
:103F0000070008607047000008380240003C02408B
:103F100001480068704700002C0000200448054953
:103F200000680968044AC1F38221515CC8407047A7
:103F30002C00002008380240946900080448054914
:103F400000680968044AC1F34231515CC8407047B7
:103F50002C0000200838024094690008154810B56C
:103F6000006810F00C02144813D01449042A0FD032
:103F7000082A0ED10F4C241F2268236802F03F024A
:103F80005B0207D52068C0F38810A0FB010106E0A2
:103F9000084610BD2168C1F38811A1FB0001002370
:103FA000FCF781F92168C1F30141491C4900B0FBCC
:103FB000F1F010BD083802400024F40040787D0183
:103FC000054810B50068000605D5FFF77FFF0249D8
:103FD0008020891C087010BD0C38024010B5401EAE
:103FE000B0F1807F01D3012010BD4FF0E02460616B
:103FF0000F21601702F019F90020A061072020614D
:10400000002010BD7047704710B590F83C20012A81
:1040100022D0012280F83C20CA688C6822F44072C9
:1040200022434C6822F4806222430C6822F400622E
:1040300022430C6922F4805222434C6922F400523C
:104040002243C969002322F480420A4301684A647A
:1040500080F83C30002010BD022010BD70B590F8F3
:104060003C20012A32D0012480F83C40022280F812
:104070003D2003685A689D6822F070060A68324342
:104080005A60134B02689A4214D0B2F1804F11D09B
:10409000104B9A420ED0104B9A420BD00F4B9A42C3
:1040A00008D00F4B9A4205D00E4B9A4202D00E4BCD
:1040B0009A4204D1496825F080031943916080F841
:1040C0003D40002180F83C10084670BD022070BDC4
:1040D000000001400004004000080040000C0040C7
:1040E00000040140004001400018004010B50400E9
:1040F00003D094F83D0010B107E0012010BD00206E
:1041000084F83C00204600F01FF8022084F83D00AF
:10411000211D206801F012FC012084F8460084F87B
:104120003E0084F83F0084F8400084F8410084F8A1
:10413000420084F8430084F8440084F8450084F881
:104140003D00002010BD00002DE9F84F0546006835
:10415000274988424AD1274900200A6842F00102D3
:104160000A600968254C01F00101009122494FF0D5
:1041700040664FF0400BA4E8420809154F004FF489
:1041800000584FF480794FF4403AA4E883070421A3
:1041900044F824190121C4E90A1020631748FFF7E5
:1041A0001FFC08B1FFF7C6F86C62A563134C1248F8
:1041B00060341830A4E8410800204FF48061A4E87E
:1041C000830744F824090D486030FFF709FC08B163
:1041D000FFF7B0F8AC62002204211920A563FFF7B5
:1041E00043FEBDE8F84F1920FFF730BEBDE8F88F59
:1041F000000001404438024028640240A802002028
:1042000070B5044690F83C000025012817D001261F
:1042100084F83C60022084F83D002068826822F027
:10422000770222F47F4282600868502838D00DDC83
:1042300020284FD005DC90B3102811D14AE002208D
:1042400070BD302846D040280AD13BE060282FD0EE
:1042500070280DD0B0F5805F03D0B0F5005F12D0AC
:10426000012584F83D60002084F83C00284670BD9C
:10427000CB68D1E90121206801F04AFC20688168FF
:1042800041F0770109E0CB68D1E90121206801F014
:104290003FFC2068816841F480418160E1E719E0DA
:1042A000CA684968206801F007FD5021206806E0CF
:1042B000CA684968206801F010FD6021206801F09B
:1042C00031FCCEE7CA684968206801F0F5FC40215E
:1042D0002068F4E7226801461046F0E72DE9F04136
:1042E0000D46040003D094F83D0018B108E0012009
:1042F000BDE8F081002084F83C00204600F040F842
:10430000022084F83D002068816844F2070291434E
:104310008160211D206801F011FB2268906891697D
:10432000166A2B68AF69034340F20330814341EAC8
:104330000721A868EF6908434FF6FC418843E96804
:1043400040EA0720014328692F6A000140EA07304C
:10435000084369686D6926F0AA0646EA05152943EF
:1043600093602268906154F8460B0162012004F8C2
:104370001F09E0752076E0762077A0750020B7E76A
:1043800070B586B0044614216846FCF7F1FA374947
:1043900023680024354A103902253548B3F1804F8F
:1043A0002FD0344EB3422AD1136843F00203136076
:1043B000126802F0020205920A6842F001020A60E5
:1043C0000A6802F0010205920A6842F004020A60DB
:1043D000096801F00401059140210091CDE90154E3
:1043E0006946CDE90345FFF79DFB80200090CDE9AC
:1043F000015469462048CDE90345FFF793FB06B019
:1044000070BD136843F001031360126802F00102EB
:1044100005920A6842F001020A600A6802F001028D
:1044200005920A6842F002020A600968012601F05A
:104430000201059120210091CDE90154CDE9034607
:104440006946FFF76FFB08200090CDE90154CDE9E4
:10445000034669460948FFF765FB002205211C2039
:10446000FFF702FD1C20FFF7F1FCC8E740380240CF
:104470000000024000040040000802400004024026
:1044800070B590F83E60044690F83F5090F8423086
:1044900090F84320022021B104290ED0012E1BD117
:1044A00014E0012E18D1012B16D184F83E0084F8B7
:1044B000420001220021206820E0012D0CD1012AB8
:1044C0000AD184F83F0084F8430014E0012D03D1A1
:1044D000012B01D1012A01D0012070BD84F83E00DA
:1044E00084F83F0084F8420084F843000122002150
:1044F000206801F08BFA01220421206801F086FA7D
:104500002068016841F001010160002070BD704722
:1045100070472DE9F04104460068C66805694FF010
:104520000007A90713D5B10711D5F91E01610120B4
:104530002077206880698007204602D0FFF7E8FFD7
:1045400004E000F0A9F8204600F03BF9277768075F
:1045500016D5700714D521686FF004000861022099
:1045600020772068806910F4407F204602D0FFF752
:10457000CFFF04E000F090F8204600F022F9277702
:10458000280715D5300713D521686FF0080008619A
:10459000042020772068C0698007204602D0FFF7FA
:1045A000B7FF04E000F078F8204600F00AF927771A
:1045B000E80616D5F00614D521686FF010000861E2
:1045C000082020772068C06910F4407F204602D080
:1045D000FFF79EFF04E000F05FF8204600F0F1F8DE
:1045E0002777E80708D0F00706D021686FF00100B0
:1045F0000861204600F0C8F9280608D5300606D51F
:1046000021686FF0800008612046FFF7FBFC680618
:1046100008D5700606D521686FF040000861204675
:1046200000F0B3F9A8060AD5B00608D521686FF0E6
:10463000200008612046BDE8F041FFF7E4BCBDE87A
:10464000F081000010B586B0044614216846FCF7DE
:104650008FF90E492068884216D10D480021026862
:1046600042F010020260006800F0100005904FF464
:10467000206000900220CDE901010120CDE9031066
:1046800069460448FFF74EFA06B010BD000001402D
:104690003038024000100240704770B5044690F870
:1046A0003C0000260D4601280FD0012084F83C0074
:1046B0006AB1042A1DD0082A2FD00C2A3FD0012627
:1046C000002084F83C00304670BD022070BD206898
:1046D00001F030FA2068816941F0080181612068A9
:1046E000816921F004018161206881692A6911438F
:1046F00011E0206801F04EFA2068816941F4006100
:1047000081612068816921F480618161206881690B
:104710002A6941EA02218161D2E7206801F070FA3A
:104720002068C16941F00801C1612068C16921F0B8
:104730000401C1612068C1692A69114311E0206840
:1047400001F092FA2068C16941F40061C1612068FA
:10475000C16921F48061C1612068C1692A6941EAA7
:104760000221C161ACE710B5040003D094F83D000C
:1047700010B107E0012010BD002084F83C00204665
:1047800000F01EF8022084F83D00211D206801F091
:10479000D5F8012084F8460084F83E0084F83F00F4
:1047A00084F8400084F8410084F8420084F8430013
:1047B00084F8440084F8450084F83D00002010BDD2
:1047C00070477047704700002DE9F04117460D0013
:1047D00004464FF000060CD0042D11D0082D16D041
:1047E00094F84100022819D094F84100012818D00B
:1047F0007CE094F83E00022810D094F83E00F5E7E3
:1048000094F83F00022809D094F83F00EEE794F8AE
:104810004000022802D094F84000E7E70220BDE8FB
:10482000F081002F62D0002B60D04D494D4ADFF857
:1048300038C102204DB1042D18D0082D27D084F89E
:1048400041000C2D44D0012687E084F83E00606AC8
:10485000C163606A39460264606AC0F84CC022686D
:10486000606A3432FFF726F988BB21E084F83F0004
:10487000A06AC163A06A39460264A06AC0F84CC04D
:104880002268A06A3832FFF715F900BB15E084F8FA
:104890004000E06AC163E06A39460264E06AC0F839
:1048A0004CC02268E06A3C32FFF704F978B909E0AD
:1048B0002068C16841F400711EE02068C16841F4BD
:1048C000806119E02068C16841F4006114E00DE0E6
:1048D000206BC163206B39460264206BC0F84CC06A
:1048E0002268206B4032FFF7E5F808B1012096E717
:1048F0002068C16841F48051C160012229462068C6
:1049000001F084F819492068194A884201D0904280
:1049100003D1436C43F4004343642068884213D0BE
:10492000B0F1804F10D0134988420DD0124988420F
:104930000AD01249884207D0904205D010498842D7
:1049400002D01049884204D1816801F0070106298C
:1049500003D0016841F00101016030465FE70000CB
:10496000275A0008855A0008BD5A00080000014077
:10497000000401400004004000080040000C00401A
:1049800000400140001800407047704738B50446A9
:1049900090F84200202801D0022038BD51B14AB120
:1049A0000120206300206063204601F043FB216B5F
:1049B000012901D0012038BD21680A6849680091A9
:1049C00021680C3151E8002F42F0100241E8002329
:1049D000002BF5D138BD704710B50446006840691A
:1049E00094F84110C0F3C010212911D180B1206882
:1049F000143050E8001F21F0800140E80012002A26
:104A0000F5D1A06B08B1FEF7BFFE204601F01CFAFD
:104A10002068406994F84210C0F38010222911D117
:104A200080B12068143050E8001F21F0400140E8B8
:104A30000012002AF5D1E06B08B1FEF7A5FE204672
:104A400001F0DBF9002010BD70470000F8B50168E7
:104A500004460868CA684B6910F00F0F4FF0000554
:104A600059D003F0010602F49077374365D0C107AF
:104A700005D0D10503D5616C41F0010161644107A6
:104A800005D5D90703D0616C41F00201616481074B
:104A900005D5D90703D0616C41F0040161640107B9
:104AA00007D502F02001314303D0616C41F00801C9
:104AB0006164616C00293AD0800604D5900602D565
:104AC000204601F0CFF920684069616CC0F3801086
:104AD000090700D460B3204601F08FF920684069CF
:104AE000400621D52068143050E8001F21F0400115
:104AF00040E80012002AF5D1E06BA8B172490165C7
:104B0000E06BFEF78AFE002811D0E06B016D01B06A
:104B1000BDE8F040084783060FD593060DD5204623
:104B2000BDE8F84001F09EB92046FFF78DFFF8BDC3
:104B30002046FFF789FF6564F8BD266B2023012E10
:104B40007ED1C6067CD5D6067AD50868486800901E
:104B500048694FF0020640064DD5E26B1068406888
:104B60004FF480770004000C3AD0A18D814237D9F0
:104B7000E085D069B8422DD020680C3050E8001F85
:104B800021F4807140E80012002AF5D12068143029
:104B900050E8001F21F0010140E80012002AF5D181
:104BA0002068143050E8001F21F0400140E8001256
:104BB000002AF5D184F84230256320680C3050E893
:104BC000001F21F0100140E80012002AF5D1E06B2F
:104BD000FEF7DAFD6663A08DE18D401A81B206E032
:104BE000A18D8142A8D1D069B842A5D16663204683
:104BF000FFF7F1FEF8BDA08DE18D401A81B2E08D86
:104C00000028F7D00029F5D020680C3050E8002F9C
:104C100022F4907240E80027002FF5D1206814306C
:104C200050E8002F22F0010240E80027002FF5D1C4
:104C300084F84230256320680C3050E8002F00E0F3
:104C400006E022F0100240E80023002BF3D1CDE76C
:104C500005062BD5150629D594F841002128C9D180
:104C6000A068B0F5805F01D12069B0B1206A411C15
:104C70002162216800784860E08C401E0004000C2E
:104C8000E084B7D12068C16821F08001C16020684C
:104C9000C16841F04001C160F8BD206A0088C0F3DE
:104CA00008004860206A801C2062E5E74006F3D5D2
:104CB0005006F1D5CA68204622F04002CA6084F846
:104CC000413000F066F9F8BDFF5C000870B50400E3
:104CD00004D094F84100002510B106E0012070BD19
:104CE00084F84050204600F023F8242084F8410046
:104CF0002068C16821F40051C160204601F014F918
:104D00002068016921F4904101612068416921F026
:104D10002A0141612068C16841F40051C1606564A5
:104D2000202084F8410084F842006563002070BDB3
:104D30002DE9F04387B0064614216846FBF718FEBC
:104D4000DFF814C131684548022203230727444D88
:104D50000024614521D1414914310E6846F0100606
:104D60000E60096801F010010591016841F0010130
:104D700001600068694600F00100059058028DE866
:104D80001500CDE903372846FEF7CCFE00220721A7
:104D90002520FFF769F8252059E0DFF8C8C06145F4
:104DA00057D12E491031D1F800C04CF4003CC1F865
:104DB00000C0096801F400310591016841F001016A
:104DC00001600068694600F0010005900C208DE844
:104DD0001500CDE903372846FEF7A4FE234D2248EF
:104DE0004FF000672860C5E901744FF48068C5E999
:104DF000034880156C61C5E906404FF44039C5E9A8
:104E000008942846FEF7ECFD08B1FEF793FAF56327
:104E1000AE63164D144860351830E5E802074020AF
:104E2000A5E81101114845F814496030AC61C5E9A5
:104E300007496C62FEF7D4FD08B1FEF77BFAB56353
:104E4000002206212620AE63FFF70EF82620FEF78B
:104E5000FDFF07B0BDE8F08300100140303802408C
:104E6000000002400044004088600240F803002037
:104E700090F84230202B01D00220704721B11AB1A6
:104E80000023036301F026B901207047006814492C
:104E9000884223D11349144B08468A7800780D2A9A
:104EA00010D00A2A0ED0082A14D07F2A12D03F2808
:104EB00002D21A54401C08700A490122891C0B486E
:104EC000FFF7D6BF0028F7D000221A5401204870FF
:104ED0000A70F1E70028EFD0401EECE770470000B1
:104EE000001001405400002020050020680300202D
:104EF00070472DE9F843044690F84100984616465D
:104F00000D46202802D00220BDE8F88385B17EB18D
:104F100000206064212084F84100FEF701FFA68490
:104F20008146E684A0682027B0F5805F02D003E0C8
:104F30000120E9E7206910B12E4600250EE0002689
:104F40000CE08021204601F0E0F8A8B9C6B116F8BF
:104F5000010B21684860E08C401EE084E08C4B46E9
:104F60004FF00002CDF800800028EAD14FF0400158
:104F7000204601F0CAF840B184F841700320C3E72D
:104F800035F8020BC0F30800E3E784F84170002015
:104F9000BAE77047FEE7000030B587B000241E482E
:104FA000059406940494009401940294194903947E
:104FB000016001254FF480310561C0E901140576D7
:104FC00080F820401549C0E90A14C561C46080F822
:104FD00030504561FEF785FA08B1FEF7ABF90620BF
:104FE00004904FF40040CDE9050404A90A48FEF7F7
:104FF000A5F908B1FEF79EF90720CDE9000569463D
:1050000002940548FEF7C4F9002801D0FEF792F992
:1050100007B030BD00200140D40000200100000F87
:105020007FB5002513480095019502951049039519
:10503000016001244FF480310461C0E90115047658
:1050400080F82050C560C46180F830504461FEF79C
:1050500048FA08B1FEF76EF90E208DE83100694676
:105060000448FEF795F9002801D0FEF763F97FBDEB
:10507000002101401C0100201D4808B5016841F4D1
:1050800080010160016801F480010091016841F430
:10509000001101600068002200F400100090114629
:1050A0001020FEF7E1FE1020FEF7D0FE0022114690
:1050B0001120FEF7D9FE1120FEF7C8FE00220321C1
:1050C0003820FEF7D1FE3820FEF7C0FE0022114640
:1050D0003920FEF7C9FE3920FEF7B8FE002211463E
:1050E0003A20FEF7C1FEBDE808403A20FEF7AEBE0A
:1050F000303802402DE9F04786B014216846FBF7AE
:1051000037FC53480024016841F010010160016838
:1051100001F010010591016841F00401016001688E
:1051200001F004010591016841F02001016001686E
:1051300001F020010591016841F0800101600168E2
:1051400001F080010591016841F0010101600168F1
:1051500001F001010591016841F00201016001685F
:1051600001F002010591016841F040010160016810
:1051700001F040010591016841F0080101600068FB
:10518000DFF8D09000F008004FF4C04705900022EF
:1051900039464846FEF7BEFDDFF8BCA04FF4E07884
:1051A000002241465046FEF7B5FD49F2FF50032567
:1051B000CDE90005694602944846FEF7B3FC4FF678
:1051C0004F70CDE90005694602942448FEF7AAFC19
:1051D0004FF6FF760096CDE9015469462048FEF768
:1051E000A1FC49F61310CDE90005694602941D485B
:1051F000FEF798FC4FF6F670CDE90005694602947B
:105200001948FEF78FFC4FF63F60CDE9000569466F
:1052100002945046FEF786FC00970127CDE9017401
:10522000694648460394FEF77DFC0096CDE901549B
:1052300069460E48FEF776FCCDF80080CDE9017492
:10524000694650460394FEF76DFC06B0BDE8F08752
:1052500030380240001002400018024000080240AE
:10526000001402400000024000040240000C024012
:10527000094810B5074901600421416040F2F3116B
:105280008160FEF753FD002803D0BDE81040FEF713
:1052900051B810BD00300040C401002010B596B0D8
:1052A00000240F9410941194129413941C216846B6
:1052B0001494FBF75DFB202107A8FBF759FB2D4851
:1052C0002B4901601021C0E9011440F2E731C0E927
:1052D00003148021C0E90541FEF708FF08B1FEF77D
:1052E00029F84FF480500F900FA92248FEF788FF4D
:1052F00008B1FEF71FF81F48FFF735FA08B1FEF7AF
:1053000019F8139413A91B481494FEF7A7FE08B1CB
:10531000FEF710F86020CDE9000402940394049491
:1053200005940022694613480694FFF7B6F908B1C0
:10533000FEF700F8042269460E48FFF7AEF908B1FF
:10534000FDF7F8FF0794089409944FF400500A946D
:10535000CDE90B4007A907480E94FEF755FE08B1AA
:10536000FDF7E8FF0348FFF76DF916B010BD000028
:1053700000000140D001002010B58CB02421684607
:10538000FBF7F6FA0024164809944FF080410A947E
:10539000C0E900144FF6FF71C0E9024180210461A9
:1053A00081610320CDE900040120CDE902040494C9
:1053B000CDE905400794694609480894FEF78EFF39
:1053C00008B1FDF7B7FF099409A905480A94FEF74B
:1053D00045FE002801D0FDF7ADFF0CB010BD000068
:1053E0001802002010B58CB024216846FBF7C0FAE3
:1053F00000241648099414490A94C0E900144FF691
:10540000FF71C0E902418021046181610320CDE97F
:1054100000040120CDE902040494CDE9054007947D
:1054200069460A480894FEF759FF08B1FDF782FF64
:10543000099409A905480A94FEF710FE002801D036
:10544000FDF778FF0CB010BD0004004060020020A2
:105450000C4810B50A4901604FF4E1314160002168
:1054600081600C22C160C0E904128161C161FFF753
:105470002DFC002803D0BDE81040FDF75BBF10BD38
:1054800000440040B0030020FEE700000D4810B5C6
:105490000068416C41F40041416401230A4A002143
:1054A0000848FFF791F9084A0123921C0421054896
:1054B000FFF78AF90122BDE8104011020348FEF708
:1054C00029BC0000D0010020440000200018024048
:1054D0002DE9F0410C46224E05004FF400514FF4E7
:1054E000804709D401223046FEF714FC00223946D9
:1054F0003046FEF70FFC0AE000223046FEF70AFCB9
:10550000012239463046FEF705FC684205B2154EC9
:10551000002C0ADB012240213046FEF7FBFB002273
:1055200080213046FEF7F6FB0BE00022402130469A
:10553000FEF7F0FB012280213046FEF7EBFB6042D4
:1055400004B24FF47A71481E8D4200DB05468C424E
:1055500000DB0446044805804480BDE8F08100007B
:10556000001002400018024044000020FEF728FD11
:10557000FEE7000030EE601A70B5B5EEC01A00F11B
:105580000C01F1EE10FA81EC030A02DBB0EE413AB5
:1055900001E0B1EE413AD0ED001AD0ED085A21EE0B
:1055A000816AF4EEC35AF1EE10FA05DDD0ED061A69
:1055B00071EE811AC0ED061AD0ED011A90ED065A6F
:1055C0004C4A61EE851A11EE903ADFED4B3A9FEDB1
:1055D0004B4A4B49934202DDF0EE631A05E011EEAF
:1055E000903A8B4201D9F0EE441AD0ED092A90EDA1
:1055F000022A72EEE02A62EE226ADFED424A10EEE3
:10560000103A4FF07C55B0EE642A4FF03F44AB4265
:1056100002DD90ED0B2A07E010EE103AA34203D909
:1056200090ED0B2AB1EE422A13EE103A364EB342F9
:1056300029DA10EE103AAB4203DC10EE103AA34226
:1056400021D9436B5B1C4363322B1EDB71EE822A34
:10565000B5EEC00AF1EE10FA01DCF1EE622AB0EE0E
:10566000620AB5EEC00AF1EE10FA01D2B0EE640A99
:10567000D0ED0B2AD0ED0C4A30EE620A44EE802ABF
:10568000C0ED0B2A01E00023436336EE210A30EE21
:10569000260A30EE020A10EE103A934202DDB0EE16
:1056A000630A0AE010EE103A8B4202D9B0EE440AC7
:1056B0000CE010EE103A934204DBB5EEC01AF1EEA6
:1056C00010FA08DC10EE102A8A420DD3B5EEC01A8B
:1056D000F1EE10FA08D2F4EEC35AF1EE10FA03DD3F
:1056E00035EE411A80ED061AC0ED090A80ED0A0A6E
:1056F00070BD000000C0794400C0794400C079C486
:1057000000C079C4000000000000A04080EC030A43
:1057100000219FED0E0ADFED0E0A80ED030A80EDF9
:10572000040A80ED050A80ED060A80ED070AC0ED47
:10573000080A80ED090A80ED0A0A80ED0B0A9FED48
:10574000050A80ED0C0A416370470000000000006C
:105750000000FA430AD7A33B9FED060A002180ED23
:10576000050A80ED060A80ED090A80ED0A0A416308
:10577000704700000000000070470000094910B5A4
:105780000020C8610846FEF72BF940220649074869
:10579000FFF7FCF805480068C16841F01001C160DE
:1057A00010BD0000F8030020E0040020B00300203A
:1057B0002DE9F84F3A4D287800286FD00020287046
:1057C0000446384E47E0305DAA2810D0641C3549A5
:1057D000A0B26A8804E00B5CAA2B04D0401C80B203
:1057E0009042F8D33BE000B2002838DB84B26988ED
:1057F000601D884233D8311989468F7891F801A00D
:10580000391D6A8804EB0108904528D8491E89B2E1
:105810004846FCF7A0FC08EB060111F8011C884281
:1058200002D0641CA4B216E0BAF1010F11D1042F0A
:105830000FD3B9F90500B9F9031000EE100AB8EE5C
:10584000C00A85ED010A00EE101AB8EEC00A85ED17
:10585000020A1FFA88F46988601D8842B3D9124C85
:105860002068016841680091016841680091016801
:105870004168009101684068009094F84200202837
:1058800002D0202084F84200402206490648FFF753
:105890007DF82068C16841F01001C160BDE8F88F53
:1058A00048000020E0040020B00300200EB5AA222A
:1058B0008DF8002002228DF8012008228DF80220A8
:1058C0000A0A8DF804200A0C8DF803108DF80520C3
:1058D000090E8DF80610010A8DF80810010C8DF8DC
:1058E00007008DF80910000E8DF80A000C2168469B
:1058F000FCF731FC8DF80B000A230C2269460248A4
:10590000FFF7F7FA0EBD0000B00300207047FEF766
:1059100043BA00000248016841F470010160704719
:1059200088ED00E00148FEF7F4BD0000D001002042
:105930000148FEF7EEBD000018020020F0B5026835
:10594000274B284D284E294F294C4FF0804C984228
:1059500009D0604507D0A84205D0B04203D0B84274
:1059600001D0A04204D122F0700E4A6842EA0E0231
:1059700098421BD0604519D0A84217D0B04215D02C
:10598000B84213D0A04211D01A4DA8420ED01A4DE1
:10599000A8420BD0194DA84208D0194DA84205D0F5
:1059A000184DA84202D0184DA84203D122F44075E8
:1059B000CA682A434D6922F080022A438D68C56275
:1059C0000D688562984201D0A04201D10969016346
:1059D000016841F004010160012141610260F0BDF4
:1059E000000001400004004000080040000C00409E
:1059F00000040140004001400044014000480140D3
:105A000000180040001C00400020004010B501F0CC
:105A10001F030121046A99408C430462016A9A4081
:105A20001143016210BD10B5846B0121626A82428C
:105A300005D12177C069F8B984F83E101CE0A26A4C
:105A4000824206D102222277C069A8B984F83F10A9
:105A500012E0E26A824206D104222277C06958B974
:105A600084F8401008E0226B824205D10822227798
:105A7000C06908B984F841102046FEF7A2FE002054
:105A8000207710BD10B5846B616A814201D101207D
:105A90000DE0A16A814201D1022008E0E16A814261
:105AA00001D1042003E0216B814201D1082020773D
:105AB0002046FEF787FE0020207710BD10B5846BCE
:105AC0000121626A824203D1217784F83E1019E0F5
:105AD000A26A824204D10220207784F83F1011E0AC
