:020000040800F2
:1000000000090020CD010008AB190008D117000835
:10001000A919000817040008A91D00080000000025
:10002000000000000000000000000000AF19000800
:100030001904000800000000AD190008B1190008FB
:10004000E7010008E7010008E7010008E7010008F0
:10005000E7010008E7010008E7010008E7010008E0
:10006000E7010008E7010008E7010008E7010008D0
:10007000E7010008E7010008E7010008E7010008C0
:10008000E7010008E7010008E7010008E7010008B0
:10009000E7010008E7010008E7010008E7010008A0
:1000A000E7010008E7010008E7010008E701000890
:1000B000151A0008E7010008E7010008E701000839
:1000C000E7010008E7010008E7010008E701000870
:1000D000E7010008E70100089D1D0008E70100088E
:1000E000E7010008E7010008E7010008E701000850
:1000F000E7010008E7010008E7010008E701000840
:10010000E7010008E7010008E7010008E70100082F
:10011000E7010008E7010008E7010008E70100081F
:10012000E7010008E7010008E7010008E70100080F
:1001300000F002F800F03AF80AA090E8000C8244BF
:100140008344AAF10107DA4501D100F02FF8AFF29C
:10015000090EBAE80F0013F0010F18BFFB1A43F0A5
:10016000010318471425000034250000103A24BF6D
:1001700078C878C1FAD8520724BF30C830C144BF0C
:1001800004680C607047000000230024002500264E
:10019000103A28BF78C1FBD8520728BF30C148BFEA
:1001A0000B6070471FB51FBD10B510BD00F0F9F80A
:1001B0001146FFF7F7FF02F0C9F800F017F903B492
:1001C000FFF7F2FF03BC00F01FF900000948804769
:1001D00009480047FEE7FEE7FEE7FEE7FEE7FEE729
:1001E000FEE7FEE7FEE7FEE704480549054A064B41
:1001F00070470000111A00083101000800030020B8
:10020000000900200005002000050020032A40F21C
:10021000308010F0030C00F0158011F8013BBCF1A8
:10022000020F624498BF11F801CB00F8013B38BFC0
:1002300011F8013BA2F1040298BF00F801CB38BFCE
:1002400000F8013B11F0030300F07980083AC0F098
:10025000088051F8043B083A51F804CBA0E8081094
:10026000F5E7121D5CBF51F8043B40F8043BAFF3C7
:100270000080D20724BF11F8013B11F801CB48BF21
:1002800011F8012B24BF00F8013B00F801CB48BF57
:1002900000F8012B704702F0FF0343EA032242EA11
:1002A000024200F002B84FF000020429C0F01280B0
:1002B00010F0030C00F01B80CCF1040CBCF1020F19
:1002C00018BF00F8012BA8BF20F8022BA1EB0C01EE
:1002D00000F00DB85FEAC17C24BF00F8012B00F8E4
:1002E000012B48BF00F8012B70474FF0000200B50A
:1002F000134694469646203922BFA0E80C50A0E849
:100300000C50B1F12001BFF4F7AF090728BFA0E8F6
:100310000C5048BF0CC05DF804EB890028BF40F8C2
:10032000042B08BF704748BF20F8022B11F0804F04
:1003300018BF00F8012B704770477047704710B521
:10034000203AC0F00B80B1E81850203AA0E81850CD
:10035000B1E81850A0E81850BFF4F5AF5FEA027C8E
:1003600024BFB1E81850A0E8185044BF18C918C0FD
:10037000BDE810405FEA827C24BF51F8043B40F89E
:10038000043B08BF7047D20728BF31F8023B48BF83
:1003900011F8012B28BF20F8023B48BF00F8012BC1
:1003A0007047754600F02CF8AE4605006946534686
:1003B00020F00700854618B020B5FFF715FFBDE80F
:1003C00020404FF000064FF000074FF000084FF0BC
:1003D000000B21F00701AC46ACE8C009ACE8C0094D
:1003E000ACE8C009ACE8C0098D46704710B50446BA
:1003F000AFF300802046BDE81040FFF7E0BE0000EC
:1004000000487047A002002001491820ABBEFEE75B
:10041000260002007047FEE7704772B6FEE710B58F
:1004200090F821100022022905D00421816380F870
:100430002020012010BD01680B6823F00E030B6023
:1004400001680B6823F001030B6090F84030012431
:1004500004FA03F1C36B596080F8214080F8202032
:10046000104610BD2DE9F05F90F8211000240229FC
:1004700003D004218163012485E001680A6822F029
:100480000E020A6001680A6822F001020A603F4E0B
:100490003E4FB215DFF8F4C0DFF8F090DFF8ECA0C3
:1004A000DFF8E8B0DFF8E4E00168783F13011502F7
:1004B000ACF1640CA9F15009AAF13C0AABF1280B8C
:1004C000AEF1140E4FF48018B14227D9B9420ED0C4
:1004D000614512D049451DD0514518D0594518D015
:1004E000714501D1424615E0294EB14201D10122A8
:1004F00010E0274E1436B14201D110220AE0244EFA
:100500002836B14206D0224A3C32914201D11A46E5
:1005100000E02A461E49091F0A602BE0B94213D0A9
:10052000614517D0494522D051451DD059451DD0B0
:10053000714501D142461AE0B14202D14FF08072BA
:1005400015E0134EB14201D1012210E0104E1436D5
:10055000B14201D110220AE00D4E2836B14206D038
:100560000B4A3C32914201D11A4600E02A46074923
:1005700080394A60012180F82110002180F8201084
:10058000416B01B188472046BDE8F09F80000240E2
:100590000804024070B5044600F00CF90546601CE2
:1005A00002D004480078044400F004F9401BA04243
:1005B000FAD370BD3C0000202DE9F84FDFF8C09160
:1005C0000024A9F1040B23464FF00F0809F1040A97
:1005D000ABF1040ECCE00127A7403A40BA4272D1F9
:1005E000DFF8A0C14D68A5EB0C0665452BD00DDCEE
:1005F000032D34D005DC35B3012D19D0022D2FD1B8
:100600001BE0112D16D0122D2AD119E0B6F5881F46
:1006100019D006DCB6F5803F15D0B6F5801F1FD186
:1006200011E0B6F5001F0ED0B6F5041F18D10AE090
:10063000CB6815E0CB681B1D12E0CB6808330FE0D8
:10064000CB680C330CE08B682BB1012B4FF0080307
:1006500003D0476104E0042302E0076100E00023C7
:10066000FF2A01D8064601E000F104064FEA84059E
:1006700001D9A5F12005376808FA05FC27EA0C071F
:1006800003FA05F547EA050737604D68ED006ED5BA
:100690003D4DAE6946F00106AE61AD6924F003063A
:1006A00005F001050095394D7719BE68A5072D0F96
:1006B00008FA05FC26EA0C06DFF8D4C0604503D131
:1006C0004FF0000C25E052E0DFF8C8C0604502D1D1
:1006D0004FF0010C1DE0DFF8C0C0604502D14FF0C3
:1006E000020C16E0DFF8B4C0604502D14FF0030CF5
:1006F0000FE0DFF8ACC0604502D14FF0040C08E019
:10070000DFF8A0C0604502D14FF0050C01E04FF0CA
:10071000060C0CFA05FC4CEA060CC7F808C04D683C
:10072000D9F80060ED024D4601D5164300E096432E
:100730002E604D68DAF80060AD02554601D51643CB
:1007400000E096432E604D68DBF80060AD035D4627
:1007500001D5164300E096432E604D68DEF8006038
:10076000ED03754601D5164300E096432E60641CE8
:100770000A6832FA04F57FF42EAFBDE8F88F000066
:100780000804014000001110001002400000014068
:1007900000080140000C014000100140001401401D
:1007A00000180140001C01400AB1016170470904B2
:1007B000FBE7000001488068704700003C00002013
:1007C0000248816802781144816070473C00002033
:1007D000074810B5016841F010010160032000F0E6
:1007E00075F80F2000F006F800F024F8002010BD86
:1007F0000020024070B50D4D04464FF47A71287800
:10080000B1FBF0F00A490968B1FBF0F000F0DEFA44
:1008100048B9102C07D200222146501E00F036F8AD
:1008200000206C6070BD012070BD00003C00002005
:10083000380000200C4808B5816941F00101816150
:10084000816901F001010091C16941F08051C161EC
:10085000C069064900F080500090486820F0E060D0
:1008600040F00070486008BD0010024000000140E8
:10087000002809DB00F01F0201219140400980009F
:1008800000F1E020C0F8001170470000F0B40E4BFA
:100890001B68C3F30223C3F10704042C00D904240A
:1008A0001D1D072D01D2002300E0DB1E012606FAE4
:1008B00004F56D1E0D409D409E40761E164045EA93
:1008C0000601F0BC01F071BA0CED00E0064A00F040
:1008D000070110684FF6FF03184040EA0120034962
:1008E00008431060704700000CED00E00000FA05BE
:1008F0002DE9F0470D46040067D0DFF81881D8F8DD
:10090000000000F00700A8420CD2D8F8001021F037
:1009100007012943C8F80010D8F8000000F00700CC
:10092000A84252D120683C4E810712D5400703D51A
:10093000706840F4E06070602078000703D570684C
:1009400040F4605070607068A16820F0F0000843C7
:1009500070602078C00727D06068012810D0316807
:10096000022810D0890700292FDA716821F00301CD
:1009700001437160FFF71EFF074641F288390CE022
:1009800031688903EFE78901EDE7FFF713FFC11B2A
:10099000494502D90320BDE8F0877068616800F01E
:1009A0000C00B0EB810FF0D1D8F80010404601F0F8
:1009B0000701A9420BD9016821F007012943016011
:1009C000006800F00700A84201D00120E3E720788A
:1009D000400705D57068E16820F4E0600843706066
:1009E0002078000706D57068216920F4605040EA3D
:1009F000C100706000F038F87168084AC1F3031153
:100A0000515CC8400649086006480068FFF7F2FEDE
:100A10000020C0E700200240001002404C260008E1
:100A2000380000204000002004480549006849685B
:100A3000044AC1F30221515CC840704738000020CD
:100A4000001002405C260008044805490068496817
:100A5000044AC1F3C221515CC840704738000020ED
:100A6000001002405C2600080E4B59680E4801F049
:100A70000C02042A11D0082A0FD10C48C1F383427A
:100A8000C903805C0AD55968084AC1F34041921EE7
:100A9000515C054A5043B0FBF1F0704704494843AC
:100AA000704700000010024000127A00662600081D
:100AB00000093D002DE9F84F04006FD02078BE4DAD
:100AC000C00747D06868C0F38100012807D0686874
:100AD000C0F38100022809D16868C00306D52868E0
:100AE000800337D560680028E7D033E06068B0F550
:100AF000803F0BD010B1B0F5A02F11D0286820F4A2
:100B000080302860286820F4802002E0286840F4C3
:100B100080302860606888B1FFF74CFE064609E027
:100B2000286840F480202860F0E7FFF743FE801B30
:100B3000642873D828688003F7D50BE0FFF73AFEE6
:100B4000064604E0FFF736FE801B6428F1D82868CB
:100B50008003F7D42078DFF8648280074FF0010A21
:100B60004FF0000939D5686810F00C0F07D068689D
:100B7000C0F38100022809D16868C00306D4286840
:100B8000800714D52069012808D110E02069B0B190
:100B9000C8F800A0FFF70EFE064605E007E1FFF7E4
:100BA00009FE801B0228C4D828688007F7D528686A
:100BB000616920F0F80040EAC10028600DE0C8F843
:100BC0000090FFF7F7FD064604E0FFF7F3FD801BFA
:100BD000022823D828688007F7D4207800072CD56E
:100BE0007748A169D9B1C0F800A0FFF7E3FD064638
:100BF00004E0FFF7DFFD801B02280FD8686A80073A
:100C0000F7D570484FF4FA510068B0FBF1F000904E
:100C100000BF0098411E0091FAD20EE07CE0C0F8BF
:100C20000090FFF7C7FD064604E0FFF7C3FD801BF9
:100C3000022871D8686A8007F7D4207840075BD50E
:100C4000E8690027C00008D4E86940F08050E861F6
:100C5000E869012700F0805000905B480168C905F1
:100C600011D40168834641F480710160FFF7A2FD51
:100C7000064604E0FFF79EFD801B64284CD8DBF895
:100C80000000C005F6D5E06801280AD008B10528A3
:100C900013D0286A20F001002862286A20F004009E
:100CA00002E0286A40F001002862E06841F2883BD7
:100CB00088B1FFF77FFD064609E0286A40F004008E
:100CC0002862EEE7FFF776FD811B59455BD8286A5D
:100CD0008007F7D50BE0FFF76DFD064604E0FFF750
:100CE00069FD811B59454ED8286A8007F7D41FB18A
:100CF000E86920F08050E861E069A8B36968C1F351
:100D00008101022946D00228484606D0C8F8600072
:100D1000FFF750FD044639E035E04746C8F860006B
:100D2000FFF748FD064604E0FFF744FD801B02285C
:100D300029D828688001F7D4206AB0F5803F05D112
:100D40006868A16820F4003008436860D4E90801AD
:100D50000843696821F4741108436860C7F860A00B
:100D6000FFF728FD044605E023E0FFF723FD001B05
:100D7000022808D828688001F7D51AE0FFF71AFD85
:100D8000001B022802D90320BDE8F88F28688001E3
:100D9000F4D40EE00128F7D06868226A00F48031AC
:100DA000914204D1616A00F47010884201D00120A0
:100DB000EAE70020E8E7000000100240000042429D
:100DC00080044242380000200070004010B5401EF0
:100DD000B0F1807F01D3012010BD4FF0E0246061AD
:100DE0000F21601700F0E1FF0020A06107202061C3
:100DF000002010BD7047704770B590F83C20012A64
:100E00002CD0012580F83C50022280F83D20026859
:100E10005368946823F070060B6833435360104B9B
:100E200002689A420ED00F4B9A420BD0B2F1804F1B
:100E300008D00D4B9A4205D00C4B9A4202D00C4B75
:100E40009A4204D1496824F080031943916080F8E4
:100E50003D50002180F83C10084670BD022070BD56
:100E6000002C014000340140000400400008004014
:100E7000000C004010B5040003D094F83D0010B100
:100E800007E0012010BD002084F83C00204600F05F
:100E90001FF8022084F83D00211D206800F0C0FDED
:100EA000012084F8460084F83E0084F83F0084F86E
:100EB000400084F8410084F8420084F8430084F83C
:100EC000440084F8450084F83D00002010BD000077
:100ED00008B50068B0F1804F12D10A48C16941F0ED
:100EE0000101C161C069002200F0010000901146BB
:100EF0001C20FFF7CBFCBDE808401C20FFF7B8BC66
:100F000008BD00000010024090F83D10012901D0FA
:100F100001207047022180F83D100168CA6842F044
:100F20000102CA6000680E4988420ED00D4988420D
:100F30000BD0B0F1804F08D00B49884205D00B4947
:100F4000884202D00A49884204D1816801F0070131
:100F5000062903D0016841F00101016000207047BB
:100F6000002C014000340140000400400008004013
:100F7000000C004070B5044690F83C0000250128A4
:100F800017D0012684F83C60022084F83D002068D8
:100F9000826822F0770222F47F428260086850283B
:100FA00038D00DDC20284FD005DC90B3102811D1AB
:100FB0004AE0022070BD302846D040280AD13BE0EC
:100FC00060282FD070280DD0B0F5805F03D0B0F529
:100FD000005F12D0012584F83D60002084F83C00B9
:100FE000284670BDCB68D1E90121206800F05EFD84
:100FF0002068816841F0770109E0CB68D1E90121DF
:10100000206800F053FD2068816841F480418160D0
:10101000E1E719E0CA684968206800F059FD5021ED
:10102000206806E0CA684968206800F062FD602117
:10103000206800F045FDCEE7CA684968206800F0E6
:1010400047FD40212068F4E7226801461046F0E79A
:10105000704770B50446006801694FF00005C94348
:10106000890715D4C168C943890711D4E91E0161F4
:1010700001202077206880698007204602D0FFF792
:10108000E7FF04E000F098F8204600F096F8257796
:1010900020680169C943490717D4C168C943490792
:1010A00013D46FF004010161022020772068806969
:1010B00010F4407F204602D0FFF7CAFF04E000F0A2
:1010C0007BF8204600F079F8257720680169C9434C
:1010D000090716D4C168C943090712D46FF0080183
:1010E0000161042020772068C0698007204602D073
:1010F000FFF7AEFF04E000F05FF8204600F05DF877
:10110000257720680169C943C90617D4C168C94356
:10111000C90613D46FF01001016108202077206800
:10112000C06910F4407F204602D0FFF791FF04E031
:1011300000F042F8204600F040F825772068016969
:10114000C943C90708D1C168C943C90704D1891E69
:101150000161204600F032F820680169C9430906A0
:1011600009D4C168C943090605D46FF08001016143
:101170002046FFF73FFE20680169C943490609D4AC
:10118000C168C943490605D46FF04001016120469A
:1011900000F01EF820680169C94389060BD4C168B4
:1011A000C943890607D46FF0200101612046BDE8DC
:1011B0007040FFF720BE70BD704770470068B0F107
:1011C000804F02D1014800F084BE70470300002028
:1011D0007047704770470000F8B50168044608681A
:1011E000CA684B6910F00F0F4FF0000559D003F09B
:1011F000010602F49077374365D0C10705D0D105C9
:1012000003D5616C41F001016164410705D5D9073F
:1012100003D0616C41F002016164810705D5D907F3
:1012200003D0616C41F004016164010707D502F04D
:101230002001314303D0616C41F008016164616CAD
:1012400000293AD0800604D5900602D5204600F049
:1012500091FC20684069616CC0F38010090700D4DC
:1012600060B3204600F05FFC20684069400621D54D
:101270002068143050E8001F21F0400140E80012BF
:10128000002AF5D1E06BA8B16D494163E06BFFF72F
:10129000E9F8002811D0E06B416B01B0BDE8F040E7
:1012A000084783060FD593060DD52046BDE8F840C4
:1012B00000F060BC2046FFF78DFFF8BD2046FFF729
:1012C00089FF6564F8BD266B2023012E7CD1C606FC
:1012D0007AD5D60678D508684868009048694FF0F6
:1012E0000206400640D5E16B086840680004000C27
:1012F000E8D0A28D8242E5D9E085886920282DD0EA
:1013000020680C3050E8001F21F4807140E8001282
:10131000002AF5D12068143050E8001F21F00101A7
:1013200040E80012002AF5D12068143050E8001F70
:1013300021F0400140E80012002AF5D184F8423043
:10134000256320680C3050E8001F21F0100140E8B0
:101350000012002AF5D1E06BFFF761F86663A08DFB
:10136000E18D401A81B22AE0A08DE18D401A81B250
:10137000E08D0028A6D00029A4D020680C3050E8C9
:10138000002F22F4907240E80027002FF5D120684A
:10139000143050E8002F22F0010240E80027002F0F
:1013A000F5D184F84230256320680C3050E8002FD6
:1013B00022F0100240E80023002BF5D1666320469E
:1013C000FFF707FFF8BDFFE705062BD5150629D562
:1013D00094F841002128F5D1A068B0F5805F01D1D3
:1013E0002069B0B1206A411C216221680078486000
:1013F000E08C401E0004000CE084E3D12068C1684A
:1014000021F08001C1602068C16841F04001C160E5
:10141000D8E7206A0088C0F308004860206A801C72
:101420002062E5E74006CDD55006CBD5CA682046F8
:1014300022F04002CA6084F8413000F0C8F9C1E7E8
:10144000171B000870B5040004D094F84100002573
:1014500010B106E0012070BD84F84050204600F035
:1014600023F8242084F841002068C16821F4005149
:10147000C160204600F0E0FB2068016921F4904142
:1014800001612068416921F02A0141612068C16839
:1014900041F40051C1606564202084F8410084F863
:1014A00042006563002070BDF0B585B00024009453
:1014B00001940294039401684848474F0222032391
:1014C000474E0515B9421DD1816941F480418161C2
:1014D000816901F480410491816941F004018161D5
:1014E0008069694600F0040004901002CDE9000212
:1014F00003933046FFF760F8CDE900546946304663
:10150000029444E0374FB94229D1C16941F4003116
:10151000C161C16901F400310491816941F00401A4
:1015200081618069694600F0040004900420CDE9DF
:10153000000203933046FFF73FF80820CDE900048E
:10154000694630460294FFF737F8002211462620FC
:10155000FFF79CF92620FFF78BF905B0F0BD224F6D
:10156000FE14B94216D1C16941F48021C161C1693B
:1015700001F480210491816941F008018161806951
:10158000CDE9005200F008006946184D18E0FFF759
:1015900013F8E2E7164FB942DFD1C16941F40021E7
:1015A000C161C16901F400210491816941F0100118
:1015B00081618069CDE900520E4D00F0100069464E
:1015C000CDE903302846FEF7F7FFCDE90064694610
:1015D00028460294DBE7000000380140001002407A
:1015E000000801400044004000480040000C014059
:1015F000004C0040001001402DE9F843044690F8EB
:101600004200984615460E46202802D00220BDE82A
:10161000F883AEB1A5B100206064222184F84210A5
:101620002063FFF7C7F8A5858146E585A0684FF4DC
:101630008057B84201D1206920B13546002626E006
:101640000120E4E7002522E04B460022202120462D
:10165000CDF8008000F067FB08B10320D7E725B183
:10166000A068B8421BD038B108E020684068C0F3D9
:10167000080026F8020B07E0206980B12068406866
:1016800000F07F0005F8010BE08D401EE085E08D45
:101690000028D9D1202084F842000020B7E7206834
:1016A0004068EFE790F84230202B01D002207047CD
:1016B00021B11AB10023036300F01ABB0120704767
:1016C00030B50068184987B088422BD1174C0025E7
:1016D000A178207810B1012803D004E03C2917D16B
:1016E00001E0022913D1124A1154401CC0B22070EB
:1016F00011280DD36946104600F0CEFC38B10C48D5
:10170000182269461230FEF781FD012060702570B5
:1017100007B006490648BDE830400122891C7430F4
:10172000FFF7C0BF07B030BD0044004000000020FC
:10173000480000202DE9F843044690F841001F4678
:1017400015460E46202802D00220BDE8F8837EB15F
:1017500075B100206064212084F84100FFF72AF869
:10176000A5848046E584A068B0F5805F02D003E0E0
:101770000120EAE7206910B1354600260EE0002579
:101780000CE08021204600F0CEFAA0B9ADB115F8EA
:10179000010B21684860E08C401EE084E08C4346E9
:1017A0004FF0000200970028EBD14FF04001204697
:1017B00000F0B9FA30B10320C7E736F8020BC0F3E6
:1017C0000800E6E7202084F841000020BDE77047CC
:1017D000FEE7000030B585B000241C480094019459
:1017E00002940394816941F020018161816901F0D3
:1017F00020010491816941F010018161816901F04A
:1018000010010491816941F004018161816901F055
:1018100004010491816941F00801816180690C4DE6
:1018200000F008000490012207212846FEF7BCFFC3
:1018300007210120CDE900100220CDE902406946D0
:101840002846FEF7B9FE05B030BD0000001002408A
:101850000010014010B586B0002417480094019490
:101860000294039404944FF080410594016041F682
:101870001F41C0E9011442F20F71C0E90314802135
:101880008161FFF7F7FA08B1FEF7C7FD4FF480500A
:10189000009069460848FFF76DFB08B1FEF7BDFDF3
:1018A000049404A904480594FFF7A6FA002801D07F
:1018B000FEF7B3FD06B010BDC80100200C4810B5FE
:1018C0000A4901604FF416514160002181600C22E9
:1018D000C160C0E904128161C161FFF7B3FD002856
:1018E00003D0BDE81040FEF798BD10BD004C00408D
:1018F0004C0100200C4810B50A4901604FF4965184
:101900004160002181600C22C160C0E90412816144
:10191000C161FFF797FD002803D0BDE81040FEF736
:101920007CBD10BD00380140740000200E4810B589
:101930000C4901604FF416514160002181600C2276
:10194000C160C0E904128161C161FFF77BFD08B18C
:10195000FEF763FDBDE81040012204490248FFF78D
:10196000A1BE000000440040BC0000200200002096
:101970000C4810B50A4901604FF41651416000212E
:1019800081600C22C160C0E904128161C161FFF76E
:1019900059FD002803D0BDE81040FEF73EBD10BD44
:1019A0000048004004010020FEE7FEE77047704752
:1019B000FEF706BF30B58FB028216846FEF795FCCC
:1019C00014210AA8FEF791FC0120010400248DE8EF
:1019D000130004904FF4E010CDE90810022507959C
:1019E0006846FFF767F808B172B6FEE70F20CDE949
:1019F0000A054FF48060CDE90C4002210AA80E943C
:101A0000FEF776FF002801D072B6FEE70FB030BDBA
:101A1000704700000148FFF71CBB0000C801002010
:101A2000F0B502681C4D1D4E1D4FDFF878C01E4BEF
:101A30004FF0804EA84209D0984207D0704505D09B
:101A4000B04203D0B84201D0604503D122F0700407
:101A50004A682243A84209D0984207D0704505D071
:101A6000B04203D0B84201D0604503D122F44074A3
:101A7000CA6822434C6922F08002224302608A68CD
:101A8000C2620A688262A84201D0984201D1096903
:101A9000016301214161F0BD002C014000040040C0
:101AA00000080040000C00400034014010B584687C
:101AB00042EA032224F47F440A432243826010BD99
:101AC000826822F070020A4342F007018160704789
:101AD00010B5046A036A23F001030362836923F0EB
:101AE000F00343EA021324F00A020A43836102620C
:101AF00010BD10B5036A046A24F0100404628469FE
:101B000023F0A00324F4704444EA023243EA0111B2
:101B10008261016210BD10B5406A0021C185C18497
:101B2000FFF758FB10BD01680C3151E8002F22F47B
:101B3000907241E80023002BF5D10168143151E87F
:101B4000002F22F0010241E80023002BF5D1016BA8
:101B5000012909D101680C3151E8002F22F010024F
:101B600041E80023002BF5D1202180F8421000210C
:101B70000163704708B590F84210222901D0022075
:101B800008BD81684FF48053994201D1026922B1A6
:101B9000826A99421BD049B10AE00268816A5268A0
:101BA000C2F308020A80816A891C08E0016971B1E8
:101BB0000168496801F07F011170816A491C8162E6
:101BC000C18D491E0904090CC18503D01BE00168C1
:101BD0004968F1E70168CA6822F02002CA6001681A
:101BE000CA6822F48072CA6001684A6922F0010260
:101BF0004A61202180F8421000214163026B012AD2
:101C000003D0FFF75DFD002008BD016301680C31C2
:101C100051E8002F22F0100241E80023002BF5D1FB
:101C200001680A68D20602D50A6849680091818D68
:101C3000FFF7CFFAE7E7000070B5044600680169D6
:101C4000E26821F4405111430161A1682069014318
:101C5000606901432068C26841F20C639A430A43F9
:101C6000C26020684169A26921F440711143416159
:101C70001E492068884202D1FEF7E6FE01E0FEF729
:101C8000D3FE00EBC00101EB00116068642280000C
:101C9000B1FBF0F3B3FBF2F36FF018067343B1FB43
:101CA000F0F5B1FBF0F605EB8305322303EB0515E8
:101CB000B5FBF2F5B6FBF2F605F0F00505EB0615FF
:101CC000B1FBF0F6B1FBF0F0B0FBF2F06FF01801F1
:101CD000484306EB800003EB0010B0FBF2F02168F4
:101CE00000F00F002844886070BD000000380140FB
:101CF00081628285C28500214164222180F84210E0
:101D0000016921B10168CA6842F48072CA60016841
:101D10004A6942F001024A610068C16841F020014D
:101D2000C160002070472DE9F0411E4617468846E5
:101D30000446069D26E0681C24D025B1FEF73AFD36
:101D4000801BA8421ED920680C3050E8001F21F4E7
:101D5000D07140E80012002AF5D12068143050E814
:101D6000001F21F0010140E80012002AF5D12020D7
:101D700084F8410084F84200002084F840000320E9
:101D8000BDE8F0812068016838EA010004D0002035
:101D9000B842D0D00020F3E70120F9E70148FFF76F
:101DA0001BBA0000BC000020FEE70907090E00284E
:101DB00004DB00F1E02080F80014704700F00F0011
:101DC00000F1E02080F8141D70470B8802681A4467
:101DD00002604B8842681A4442608B8882681A44C9
:101DE0008260CB88C2681A44C2600B8902691A44B7
:101DF0000261B1F90A3042691A4442618B898269F1
:101E00001A448261B1F90E30C2691A44C2610B8A68
:101E1000026A1A4402624B8A426A1A4442628B8AFC
:101E2000826A1A448262B1F91610C26A1144C16210
:101E3000018E491C0186704718B111B1028E0A2A21
:101E400001D2002070470368B3FBF2F20A80038ED0
:101E50004268B2FBF3F24A80038E8268B2FBF3F26F
:101E60008A80038EC268B2FBF3F2CA80038E0269D5
:101E7000B2FBF3F20A81038E426992FBF3F24A81CC
:101E8000038E8269B2FBF3F28A81038EC26992FBF0
:101E9000F3F2CA81038E026AB2FBF3F20A82038E66
:101EA000426AB2FBF3F24A82038E826AB2FBF3F219
:101EB0008A82C26A008E92FBF0F0C88201207047CD
:101EC0003421FEF712BA0021017041708170C17097
:101ED00070470121C17070472DE9F04F0446C0786A
:101EE0008BB000286FD062480026E6700178002988
:101EF00079D00670A67018225E496846FEF786F90A
:101F00000DF1160005A900F023F95B4D012738B14A
:101F10002F70BDF81600E880BDF81400288100E09D
:101F20002E70E878B0B306A9E87800F08DFA90B387
:101F30006F70BDF818306B81BDF81A20AA81BDF80A
:101F40001C10E981BDF81E80A5F81080BDF820C0E6
:101F5000A5F812C0BDF82290A5F81490CB46BDF8A4
:101F60002490A5F81690BDF826702F83434803806F
:101F700042808180A0F80680A0F808C0A0F80AB0CE
:101F8000A0F80C90C781ADF81020ADF80E30ADF878
:101F9000121012E000E00FE02879A87006A900F006
:101FA00053FA0028287901D0E870C1E7401CC0B27C
:101FB0002871032800D92F716E70287828B16878AD
:101FC00018B1012002E04FE00DE0022000F016FB06
:101FD0003220FEF7DFFA002000F010FB69462848A7
:101FE000FFF7F3FE02E0A078401CA0706078401C70
:101FF000C0B260703C2837D36670A0783C2807D305
:10200000022000F0FBFA1D4A30231032012116E0B5
:1020100069461B48FFF710FF50B1012000F0EEFAAF
:10202000164A302310326946012000F0F7F809E023
:10203000022000F0E3FA114A30231032022101207D
:1020400000F050F9002806DD81B20C484FF47A7296
:10205000103000F053F90A48FFF732FF0BB00020B0
:10206000BDE8F04F00F0CABA0BB0BDE8F08F000039
:10207000010000205A0000200E0000204002002035
:102080009401002000221146435C491C1A4492B27C
:102090001029F9DBD0B2704770B50D46040010D09E
:1020A0007DB118212846FEF7FEF820783C2808D19B
:1020B0006078022805D12046FFF7E4FF217C8842A2
:1020C00001D0002070BD608840BA2880A08840BA46
:1020D0006880E08840BAA880208940BAE88060899A
:1020E00040BA2881207B010602D54FF0FF3100E085
:1020F000012100F07F00627B00EBC00303EB0010C6
:1021000002EB800048436881A07BE17B00EBC002CA
:1021100002EB001001EB8000A881012070BD70B5BA
:1021200005460020034631240FE0EA5C50400022BF
:10213000060602D584EA400000E04000521CD2B2FC
:10214000C0B2082AF4D35B1C9BB28B42EDD370BDA6
:1021500030B585B00C46050045D0ECB301208DF8B4
:102160000C0003208DF80D0000208DF80E008DF876
:102170000F008DF8100002208DF81100062103A831
:1021800000F008F98DF81200000A8DF8130064239E
:10219000082203A91F48FFF7CDFAE8B9C82309228E
:1021A00069461C48FFF728FAB0B91B490022684667
:1021B000835C8B54521C092AFADB9DF8000001282D
:1021C00011D19DF8010003280DD19DF802000428CB
:1021D00009D10721684600E005E000F0DBF8BDF812
:1021E0000710884202D0002005B030BDBDF80300C2
:1021F000BDF8051040BA00EB8000400049BA2880C5
:1022000001EB81004FF6FF7101EA400020800120C0
:10221000EAE70000740000208002002010B588B0BA
:1022200000295CD00C88240A8DF808400C788DF8C1
:1022300009404C88240A8DF80A408C788DF80B40B0
:102240008C88240A8DF80C400C798DF80D40CC88D0
:10225000240A8DF80E408C798DF80F400C89240AE1
:102260008DF810400C7A8DF811404C89240A8DF8B5
:1022700012408C7A8DF813408C89240A8DF8144012
:102280000C7B8DF81540CC89240A8DF816408C7B88
:102290008DF817400C8A240A8DF818400C7C8DF8B4
:1022A00019404C8A240A8DF81A408C7C8DF81B400A
:1022B0008C8A240A8DF81C400C7D8DF81D40CC8A38
:1022C000240A8DF81E40897DCDE900238DF81F106A
:1022D000182302AA012100F091F808B010BD4FF0B8
:1022E000FF30FAE70FB583B0FF21CDE900230123CA
:1022F00004AA00F083F807B000BD00002DE9F0410A
:1023000090460C4607004FF0FF3615D0A4B1302C94
:1023100004D80A4601460A48FDF778FF094D6C804B
:102320004346224639460848FFF704FA2870A98830
:10233000491CA980002800D03046BDE8F08100008B
:10234000100200200800002004010020FEF740FADF
:10235000FFF730FBFFF73EFAFFF77CFAFFF7CAFA08
:10236000FFF7E4FAFFF704FBFFF7A8FA0748FEF7C8
:10237000CBFD00F02DF9002000F040F90448FFF7F4
:10238000A2FD0348FFF7A8FDFBE70000C8010020FD
:102390000300002070B505464FF6FF7000234AF297
:1023A00001040EE0EA5C50400022C60702D084EA35
:1023B000500000E04008521CD2B2082AF5D35B1C42
:1023C000DBB28B42EED370BD70B505464FF6FF70A1
:1023D00000234AF201040EE0EA5C50400022C607E6
:1023E00002D084EA500000E04008521CD2B2082A11
:1023F000F5D35B1CDBB28B42EED370BD70B50646E5
:10240000DDE904401D46134634B12BB1AA1D9042AC
:1024100005D26FF0010070BD4FF0FF3070BDAA20F3
:10242000207055206070A670E17025712A4619460B
:10243000601DFDF7EBFE691D2046FFF770FE611978
:102440004871A81D70BD00002DE9F0415D4D88B0B8
:102450004FF000070C000646EF7036D08DF818607C
:102460004FF003088DF819808DF81C7008208DF846
:102470001A708DF81D008DF81B70062106A8FFF755
:10248000A3FF01468DF81E00000A8DF81F000020F2
:1024900006ABAA1D13F800C002F800C0401C0828B3
:1024A000F8DBA980FF2215214748FDF7F4FE2F70C5
:1024B0006F70AF700127EF70C823082206A9434848
:1024C000FFF738F928B102204DE0002008B0BDE840
:1024D000F0816F7085F803803220FEF75BF81821D9
:1024E0006846FDF702FFC823152269463748FFF703
:1024F00083F80746A8700420E870334900206B4633
:102500001A5C0A54401CC0B21528F9D377B10021D7
:1025100008461A5C1AB1FF2A01D0491CC9B2401CF6
:10252000C0B21528F5D3297005201CE015202870AD
:102530000620E8709DF80000B04207D19DF8010028
:10254000032803D19DF80200102801D007200AE0DB
:102550000920E87013211846FFF736FFBDF8131065
:10256000884202D00A20E870AFE70B20E870BDF87F
:1025700003004FF6FF7140BA00EB800001EA400013
:102580006080BDF8050040BA00EB8000400020806C
:10259000BDF8070040BAA080BDF8090040BAE0814C
:1025A000BDF80B0040BA2081BDF80D0040BA608133
:1025B000BDF80F0040BAA081BDF8110040BAE0801C
:1025C000012083E728000020890200204C01002020
:1025D00010B5094C012211462046FEF7E5F801220C
:1025E00002212046FEF7E0F820460122BDE8104017
:1025F0000421FEF7D9B800000010014070B5124D5B
:102600000446012211462846FEF7CEF80122022197
:102610002846FEF7C9F8012204212846FEF7C4F82F
:1026200054B1012C0BD0022C0CD1002201212846E0
:10263000BDE87040FEF7B8B800220221F7E700229B
:102640000421F4E770BD000000100140000000000C
:102650000000000001020304060708090000000052
:1026600001020304010202030405060708090A0B1C
:102670000C0D0E0F1010000098260008000000201E
:10268000480000006C010008E02600084800002017
:10269000B8080000880100080000000000000000E9
:1026A0000000000000000000000001000000000029
:1026B000000000000000000000000000000000001A
:1026C000000000000000000000000000000000000A
:1026D0000024F400010000001000000000000000D1
:0400000508000131BD
:00000001FF
